:10000000000002308A00582A08008030A100FE302B
:100010009520013095207530B00030300C29A101B9
:10002000A117B800FE30952038089528A601B30026
:10003000B401A01126080319A0150530A50027302A
:10004000B20010302F200330B200E8302F20B20170
:1000500064302F20B2010A302F2033083628B10037
:100060003408B0003308AF001F212F08AF00A503EC
:100070000319A01126080319402825020318472850
:100080002F08031DA011A0194728303E952808000D
:10009000B600861106118316861106110F308605EB
:1000A00083123608A01872283E30B00080300C2130
:1000B0003330B50086201330B00088300C21862004
:1000C00064300B21862064300B212230B50086205D
:1000D000283071200C30712006307120A0143608B1
:1000E00072282014B500201C80280611033C031C34
:1000F000852885200730B000D0300C21031408007B
:100100002014FE3C031993280615201C2010861588
:100110000F3086053508F03986048611B50E201893
:10012000862832300B2136083B29A11B48280800BD
:10013000A300841780048413B1012F1CB100A620F2
:1001400003193B29A62003193B29A6282308B10639
:100150000130AF00B001000823053106031D08007F
:10016000AF0A0319B00FAB28080003178D0003175F
:1001700083168C130C1483120C088D0A3B29031769
:100180008C0083168C010C1555308D00AA308D0023
:100190008C148C18C9280C1183128D0A3B29A500D8
:1001A000A201250803178D000313260803178F00EB
:1001B000E22003193B299520A50A0319A60AA20FDC
:1001C000D1283B29831603178C170C14000000005C
:1001D00083120C083B29B500B50DB50D350D383926
:1001E000C1389F0032300B211F151F19F5281E083A
:1001F000BC0083161E088312BB003B29B201B1006C
:10020000FF30B107031CB207031C3B290330B000C9
:10021000E3300C210029B001F43EAF00B009FE30FC
:10022000031C1529AF0703181229AF070000B00FF0
:10023000122900002F181C292F181E290800B401AC
:10024000B3011030B500300DB30DB40D3108B30259
:100250003208031C320FB402031835293108B307E2
:1002600032080318320FB4070310AF0DB00DB50BF1
:1002700023292F080800831383120313080045085D
:10028000C3004906D1004408003A031D4808003A5B
:1002900003199129C4077E30031C5229C402031894
:1002A00093295529C402031C90294708C100460818
:1002B000C200C317C917C701C601C5011830D00055
:1002C000C30CC20CC10C031C6F294B08C7074A089A
:1002D00003184A0FC60749080318490FC507C50C7C
:1002E000C60CC70CD00B6029C51B7E29C70DC60DD7
:1002F000C50DC40803199029C403430D4F1F8F294E
:10030000031C8F29C70F8F29C60F8F29C50F8F296F
:100310000314C50CC60CC70CC40A031993299A29E7
:100320004F15C4019629CF14FF30C400C701C60180
:100330008030C500D11B9D29C5133B294508D1003C
:100340007F304402D0000318A7290030FB29C517CD
:10035000C401C1015008173CD0000318BB29083064
:10036000D007031CF9294508C4004608C500470802
:10037000C600C701C8290830D002031CC729470896
:10038000C1004608C7004508C600C501BB29D00703
:10039000D0080319D3290310C40CC50CC60CC70C14
:1003A000C10CD00BCB294418F9294F1FDE29C11FDE
:1003B000DE29C70FDE29C60FDE29C50A4408C100A1
:1003C0004708C4004108C7004508C1004608C500E9
:1003D0004108C600D11FF729C709C609C509C409C4
:1003E000C40FF729C50FF729C60A0319C70A44081D
:1003F0003B29CF16FF30C700C600C500C4003B290B
:10040000C601C7019630D000D113C71F132AC709F0
:10041000C609C509C409C40F122AC50F122AC60A83
:100420000319C70AD117C70803192E2A4F1F252AF7
:10043000C71F252AC50F252AC60F252AC70F252A1B
:100440000314C70CC60CC50CD00A0830D0074508E9
:10045000C4004608C5004708C600432AC608031D55
:10046000432A0830D0024508031D3F2A0830D00235
:100470004408031D3E2A4708D0004D2AC401C60087
:100480004408C500C401C61B4B2A0310C40DC50D8A
:10049000C60DD003432AD11FC6134408C700500815
:1004A000C4004608D0004508C6005008C5003B29D6
:1004B00083014030CF00A0018A0105208B178A11EB
:1004C0000A12672A8B1B08008A150A12DC2A8A0185
:1004D00062228A016222843083169F0083128A017D
:1004E00062228A016222263092008A0162228A01F7
:1004F0006222FA308316920083128A0162228A01F4
:10050000622283168C1483128A0162228A0162227B
:10051000C0308B008A0162228316071383128A017E
:1005200062228316861483128A01622283160614BD
:1005300083128A0162228316871783128A0162223C
:100540008316071083128A01622283168710831292
:100550008A0162228316071183128A01622283169E
:10056000871183128A0162228316071283128A017D
:1005700062228316871283128A0162228A01622212
:1005800000308A01B520D6008A0162228A016222E7
:1005900001308A01B520D7008A0162228A016222D5
:1005A00002308A01B520D8008A0162228A016222C3
:1005B00003308A01B520D9008A0162228A016222B1
:1005C00004308A01B520DA008A01B720DB008A01F5
:1005D00062228A01622206308A01B520DC008A018B
:1005E00062228A01622207308A01B520DE008A0178
:1005F00062228A01622207168A0162228A0162222D
:1006000087128A01622287018A0162220330B200C6
:10061000E8308A01FF208A0162228A110A126A2EBA
:100620008A0162228A0162228316051183128A01DD
:1006300062228A01622205118A01622219308A012E
:10064000FE208A0162228A01622205158A01622245
:1006500028308A010B218A0162228A01622201303C
:10066000AF000530840004308A0198202F088316DB
:10067000A00083128A0162220F30831620028A11A1
:100680000A1283120318482B8A0162228A01102B56
:100690008A0162221F308316A60083128A01622219
:1006A0008A0162220130AF000530840004308A01E3
:1006B00098202F08A70083162608603E8400831226
:1006C000270880008A01622201308316A6028A115F
:1006D0000A12831203184D2B8A0162221F308316DF
:1006E000A60083128A01622283162608603E8400D7
:1006F00000088312A7000A3027028A110A12031C7D
:100700008F2B8A0162228A01622283162608603EAC
:1007100084000130800083128A110A12992B8A0109
:1007200062228A01622283162608603E840000301D
:10073000800083128A01622201308316A6028A1188
:100740000A1283120318712B8A0162228A01622223
:100750007F08A700BC012708BB003C0C3B0CBC0079
:10076000BB01BB0C7E08A800C0012808BF000630F2
:10077000AF000310BF0DC00DAF038A110A12031D95
:10078000B92B3F08BB0740080318013EBC077D0892
:10079000A900C0012908BF000530AF000310BF0D3C
:1007A000C00DAF038A110A12031DCE2B3F08BB07F1
:1007B00040080318013EBC077C08AA00C0012A08B3
:1007C000BF000430AF000310BF0DC00DAF038A118E
:1007D0000A12031DE32B3F08BB0740080318013E24
:1007E000BC077B08AB00C0012B08BF000330AF0083
:1007F0000310BF0DC00DAF038A110A12031DF82BA1
:100800003F08BB0740080318013EBC077A08AC004C
:10081000C0012C08BF00BF0DC00DBF0DC00DFC30C6
:10082000BF053F08BB0740080318013EBC07790815
:10083000AD00C0012D08BF000310BF0DC00D3F0863
:10084000BB0740080318013EBC077808AE00C00192
:100850002E08BF003B083F078316A30083128A01BE
:1008600062228A0162226F08A700BC012708BB0030
:100870003C0C3B0CBC00BB01BB0C6E08A800C001CB
:100880002808BF000630AF000310BF0DC00DAF0336
:100890008A110A12031D442C3F08BB0740080318A5
:1008A000013EBC076D08A900C0012908BF00053042
:1008B000AF000310BF0DC00DAF038A110A12031D54
:1008C000592C3F08BB0740080318013EBC076C08C1
:1008D000AA00C0012A08BF000430AF000310BF0DFA
:1008E000C00DAF038A110A12031D6E2C3F08BB070F
:1008F00040080318013EBC076B08AB00C0012B0881
:10090000BF000330AF000310BF0DC00DAF038A114D
:100910000A12031D832C3F08BB0740080318013E41
:10092000BC076A08AC00C0012C08BF00BF0DC00D99
:10093000BF0DC00DFC30BF053F08BB0740080318C2
:10094000013EBC076908AD00C0012D08BF000310BF
:10095000BF0DC00D3F08BB0740080318013EBC0790
:100960006808AE00C0012E08BF003B083F07831691
:10097000A20083128A01622208008A0162228A018F
:1009800062228316851283128A0162228A01622200
:1009900085128A01622219308A01FE208A016222B0
:1009A0008A01622285168A01622228308A010B217F
:1009B0008A0162228A0162220130AF000530840080
:1009C00020308A0198202F088316A00083128A0104
:1009D00062220F30831620028A110A128312031832
:1009E000F52C8A0162228A01BD2C8A0162221F3005
:1009F0008316A60083128A0162228A0162220130D4
:100A0000AF000530840020308A0198202F08A7000D
:100A100083162608603E84008312270880008A011E
:100A2000622201308316A6028A110A128312031869
:100A3000FA2C8A0162221F308316A60083128A01D3
:100A4000622283162608603E840000088312A700F5
:100A50000A3027028A110A12031C3C2D8A016222E5
:100A60008A01622283162608603E840001308000DD
:100A700083128A110A12462D8A0162228A01622299
:100A800083162608603E84000030800083128A01AD
:100A9000622201308316A6028A110A1283120318F9
:100AA0001E2D8A0162228A0162227F08A700BC01F2
:100AB0002708BB003C0C3B0CBC00BB01BB0C7E08F8
:100AC000A800C0012808BF000630AF000310BF0D0A
:100AD000C00DAF038A110A12031D662D3F08BB0724
:100AE00040080318013EBC077D08A900C001290881
:100AF000BF000530AF000310BF0DC00DAF038A115A
:100B00000A12031D7B2D3F08BB0740080318013E56
:100B1000BC077C08AA00C0012A08BF000430AF004F
:100B20000310BF0DC00DAF038A110A12031D902DD3
:100B30003F08BB0740080318013EBC077B08AB0019
:100B4000C0012B08BF000330AF000310BF0DC00D64
:100B5000AF038A110A12031DA52D3F08BB074008E9
:100B60000318013EBC077A08AC00C0012C08BF0086
:100B7000BF0DC00DBF0DC00DFC30BF053F08BB074A
:100B800040080318013EBC077908AD00C0012D08DC
:100B9000BF000310BF0DC00D3F08BB07400803187E
:100BA000013EBC077808AE00C0012E08BF003B081C
:100BB0003F078316A50083128A0162228A016222FE
:100BC0006F08A700BC012708BB003C0C3B0CBC0015
:100BD000BB01BB0C6E08A800C0012808BF0006308E
:100BE000AF000310BF0DC00DAF038A110A12031D21
:100BF000F12D3F08BB0740080318013EBC076D08F4
:100C0000A900C0012908BF000530AF000310BF0DC7
:100C1000C00DAF038A110A12031D062E3F08BB0741
:100C200040080318013EBC076C08AA00C0012A084E
:100C3000BF000430AF000310BF0DC00DAF038A1119
:100C40000A12031D1B2E3F08BB0740080318013E74
:100C5000BC076B08AB00C0012B08BF000330AF001E
:100C60000310BF0DC00DAF038A110A12031D302EF1
:100C70003F08BB0740080318013EBC076A08AC00E8
:100C8000C0012C08BF00BF0DC00DBF0DC00DFC3052
:100C9000BF053F08BB0740080318013EBC076908B1
:100CA000AD00C0012D08BF000310BF0DC00D3F08EF
:100CB000BB0740080318013EBC076808AE00C0012E
:100CC0002E08BF003B083F078316A40083128A0149
:100CD000622208008A0162228A01622200308A01AF
:100CE000EB20D2003C08D3008A0162228A016222F2
:100CF0005208C4005308C5008A0100222130CB00ED
:100D00002330CA002030C9007730C8008A013F2153
:100D10004708BE004608BD004508BC004408BB00AB
:100D2000C701C6014830C5008530C4003E08CB006D
:100D30003D08CA003C08C9003B08C8008A013F21A1
:100D40008A019E21D2004508D3008A0162228A01CD
:100D5000622201308A01EB20D4003C08D5008A01D0
:100D600062228A0162225408C4005508C5008A0123
:100D700000222130CB002330CA002030C900773058
:100D8000C8008A013F214708BE004608BD0045084B
:100D9000BC004408BB00C701C6014830C50085300F
:100DA000C4003E08CB003D08CA003C08C9003B080F
:100DB000C8008A013F218A019E21D4004508D50040
:100DC0008A0162228A0110238A0162228A01BD24DB
:100DD0008A016222D3088A110A12031DF52E5208D5
:100DE00056028A110A120319022F8A0162228A010D
:100DF000622207148A0162228A016222DF148A11A8
:100E00000A120C2F8A0162228A01622207108A01CB
:100E100062228A016222DF108A0162228A110A128A
:100E2000DF1C1A2F8A0162228A01622207178A11A7
:100E30000A121F2F8A0162228A01622207138A0185
:100E400062228030A1008A010F200330A6005308DF
:100E5000B4005208B3008A011920DF308A0148200B
:100E600043308A0148208A0162228030A100C030CC
:100E70008A010F200330A6005508B4005408B300BF
:100E80008A011920DF308A01482043308A01482036
:100E90008A0162228030A10086308A010F2003304F
:100EA000A6008316230883128A01172025308A01A1
:100EB00048208A0162228030A1008C308A010F20F4
:100EC0000330A6008316250883128A0117202530D7
:100ED0008A0148208A0162228030A100CA308A013A
:100EE0000F200330A6005B08B4005A08B3008A0143
:100EF00019203A308A0148200230A6005C088A0195
:100F000017208A0162228A110A12061C8C2F8A017C
:100F100062228A110A12EF278A01622201305E02E0
:100F20000130031D0030CC0000305F180130CC05CB
:100F30008A110A120319EB2F8A016222DC088A1136
:100F40000A12031DAF2F8A0162228A0162223C30FD
:100F5000DC008A016222DA035A0A0319DB038A01E0
:100F60006222DC038A0162228A0162225F108A0106
:100F700062225B085A048A110A120319C12F030165
:100F8000031D0130CC000130DC08031D0030CC050E
:100F90008A110A120319EB2F8A0162228A01622246
:100FA00004308A01B520DA008A01B720DB008A010B
:100FB00062228A01622206308A01B520DC008A01A1
:100FC00062228A016222103087068A0162228A0127
:100FD0006222203087068A0162228A016A2E8A01F3
:100FE00062228A01622204308A01B520DA008A0175
:100FF000B720DB008A0162228A01622206308A0160
:10100000B520DC008A0162228A0105208A01622261
:101010000330B200E8308A01FF208A01622280306A
:10102000A1008A010F200A30A600F6308A01CF20E5
:101030008A0162228A150A12061876288A0162221B
:101040008030A100C0308A010F200330A6005B0869
:10105000B4005A08B3008A0119203A308A014820A6
:101060000230A6005C088A01172020308A0148203F
:101070008A0148204D308A0148208A0148208A018F
:1010800062228A150A12861C4A288A016222DA0A1A
:101090000319DB0A8A01622203305B028A150A12F5
:1010A000031C62288A150A12031D5C2885305A0227
:1010B0008A150A12031C62288A0162228A016222AE
:1010C000DB01DA018A0162228A150A12871F6E2863
:1010D0008A016222DA035A0A0319DB038A016222B7
:1010E000C8308A01FE208A150A121A288A01622253
:1010F000043003178D0003135A088A01BF205B08D0
:101100008A01BF208A0162220130B200F4308A01D4
:10111000FF208A0162228A150A120618D7288A013E
:1011200062228030A100C0308A010F200330A60067
:101130005B08B4005A08B3008A0119203A308A01CA
:1011400048200230A6005C088A01172020308A015E
:1011500048208A01482053308A0148208A014820CB
:101160008A0162228A150A12861CB9288A01622223
:10117000DC0A8A0162223C305C028A150A12031CD6
:10118000C6288A0162228A016222DC018A01622267
:101190008A150A12871FCF288A016222DC038A017E
:1011A0006222C8308A01FE208A150A128B288A0121
:1011B0006222063003178D0003135C088A01BF20EA
:1011C0008A0162220130B200F4308A01FF208A01D4
:1011D00062228A150A1206185C298A01622280306E
:1011E000A100C0308A010F200330A6005B08B400C4
:1011F0005A08B3008A0119203A308A014820023087
:10120000A6005C088A01172020308A0148208A0144
:10121000482053308A0148208A0148208A016222EE
:1012200001305E028A150A12031D29298A016222F1
:101230008030A100CC308A010F204F308A01482035
:101240004E308A01482020308A0148208A150A122F
:1012500038298A0162228030A100CC308A010F2017
:101260004F308A01482046308A0148208A014820B0
:101270008A0162228A150A12861C54298A01622276
:1012800001305E028A150A12031D4E298A0162226C
:101290008A016222DE018A150A1254298A01622219
:1012A0008A0162220130DE008A016222C8308A018E
:1012B000FE208A150A12E9288A01622207300317E4
:1012C0008D0003135E088A01BF208A01622201306B
:1012D000B200F4308A01FF208A0162228A010520CF
:1012E0008A0162228030A1008A010F200B30A60003
:1012F00003308A01CF208A0162228A150A12061859
:10130000BA298A0162228030A100C0308A010F20F0
:101310000330A60056088A011720DF308A014820D2
:1013200043308A0148208A0162228A150A12861CEB
:101330009C298A016222D60A8A01622265305602FD
:101340008A150A12031CA9298A0162228A016222D3
:10135000D6018A0162228A150A12871FB2298A01E0
:101360006222D6038A016222C8308A01FE208A15D1
:101370000A127D298A01622203178D010313560880
:101380008A01BF208A0162220130B200F4308A0152
:10139000FF208A0162228030A1008A010F200B30D9
:1013A000A60011308A01CF208A0162228A150A1212
:1013B0000618132A8A0162228030A100C0308A01F7
:1013C0000F200330A60057088A011720DF308A015A
:1013D000482043308A0148208A0162228A150A1275
:1013E000861CF5298A016222D70A8A0162226530A9
:1013F00057028A150A12031C022A8A0162228A01F4
:101400006222D7018A0162228A150A12871F0B2ADB
:101410008A016222D7038A016222C8308A01FE2033
:101420008A150A12D6298A016222013003178D001B
:10143000031357088A01BF208A0162220130B200DB
:10144000F4308A01FF208A0162228A0105208A0184
:1014500062228030A1008A010F200B30A6001F30CD
:101460008A01CF208A0162228A150A1206186E2A82
:101470008A0162228030A100C0308A010F2003302F
:10148000A60058088A01172025308A0148208A01C1
:1014900062228A150A12861C502A8A016222D80A00
:1014A0008A016222653058028A150A12031C5D2ADD
:1014B0008A0162228A016222D8018A0162228A1587
:1014C0000A12871F662A8A016222D8038A016222D1
:1014D000C8308A01FE208A150A12342A8A01622243
:1014E000023003178D00031358088A01BF208A01B8
:1014F00062220130B200F4308A01FF208A016222A8
:101500008030A1008A010F200B30A60030308A0104
:10151000CF208A0162228A150A120618C52A8A017A
:1015200062228030A100C0308A010F200330A60063
:1015300059088A01172025308A0148208A01622231
:101540008A150A12861CA72A8A016222D90A8A01F0
:101550006222653059028A150A12031CB42A8A01D4
:1015600062228A016222D9018A0162228A150A1244
:10157000871FBD2A8A016222D9038A016222C830EC
:101580008A01FE208A150A128B2A8A016222033000
:1015900003178D00031359088A01BF208A016222B4
:1015A0000130B200F4308A01FF208A0162228A01F0
:1015B00005208A01622208008A150A128C1CF02A72
:1015C0008C1001305E028A150A12031DF02ADD0A12
:1015D0000A305D028A150A12031DF02ADD015F142C
:1015E00009008A0162228A150A12F12A5400690050
:1015F0006D006500720020007300650074007500C6
:1016000070003A000000540065006D00700020007A
:1016100031002000530065007400750070003A002E
:101620000000540065006D007000200032002000B2
:10163000530065007400750070003A000000480017
:1016400075006D0069006400690074007900310064
:101650002000530065007400750070003A0000001F
:10166000480075006D00690064006900740079002D
:1016700032002000530065007400750070003A00CD
:02168000000068
:02400E003A1F57
:00000001FF
