:10000000D4288313B000B101B10D0030310280302B
:1000100003193002031C1028AE1B10282030B00733
:100020003008840008008030A100FE30A620013096
:10003000A6207530A8003030B928AB002408031979
:10004000C8282B08840000080319C828A620AB0A7A
:10005000A4031E28AE000611861183160611861110
:100060000F30860583122E08A01854283E30A800B1
:100070008030B9203330AD0068201330A8008830BC
:10008000B92068206430B82068206430B82022305D
:10009000AD006820283053200C3053200630532008
:1000A000A0142E0854282014AD00201C62288611AC
:1000B000033C031C672867200730A800D030B92014
:1000C000031408002014FE3C031977288615201C11
:1000D000201006150F3086052D08F0398604000023
:1000E0000611AD0E0000201868283230B8202E0806
:1000F000C8289818181218162208A7002608A80061
:10010000A901AA018328842800008C1A9E28FF30A8
:10011000A907031CAA07031CA707031CA807031CA5
:10012000C828290F82282A0F8328FA30A900AA019B
:1001300084289818181218168C1E9C281A08031464
:10014000C8280C1EA12899000314C828A11B2A281E
:100150002119A1280800AA01A900FF30A907031C42
:10016000AA07031CC8280330A800E630B920AD2830
:10017000A801FC3EA700A809031CC428FF3000000A
:10018000A7070318BF28A7070000A80FBE2808006C
:100190008313831203130800AD002308AE002D085B
:1001A000230701200008C828830183162030990006
:1001B00020309800831290309800A0011A30DD00A2
:1001C0000D30DE00831687128312871207308316E4
:1001D0009F00FF30850083128A0113208A11D222EA
:1001E0003130B4003030B5006430B6006130B70053
:1001F0007930B8007330B9002030BA006F30BB00DE
:100200007630BC006530BD007230BE002030BF00CB
:100210007930C0006F30C1007530C2007230C30049
:100220002030C4006330C5006830C6006930C700A4
:100230006C30C8006430C9002030CA006130CB0087
:100240006230CC007330CD006530CE006E30CF0010
:100250007430D0002E30D100013005180030B300CA
:10026000013085180030B305013005190030B305A1
:10027000003085190130B3058A1103195629303031
:10028000D2003130D3003930D400D5003430D6001C
:100290003130D7003730D8003130D9003530DA006E
:1002A0003930DB003130DC008A116E230130051853
:1002B0000030B300013085180030B3050030051957
:1002C0000130B305013085190030B3058A110319D7
:1002D00080293030D2003130D3003930D400D500FD
:1002E0003430D6003130D7003730D8003130D90023
:1002F0003530DA003930DB003130DC008A116E2312
:10030000013005180030B300013085180030B30506
:10031000003005190130B305003085190130B305EF
:100320008A110319AA293030D2003130D300393074
:10033000D400D5003430D6003130D7003730D80063
:100340003130D9003530DA003930DB003130DC00B3
:100350008A116E23013005180030B3000030851873
:100360000130B305013005190030B305013085199E
:100370000030B3058A110319D4293030D20031304E
:10038000D3003930D400D5003430D6003130D70016
:100390003730D8003130D9003530DA003930DB0061
:1003A0003130DC008A116E23013005180030B300B3
:1003B000003085180130B305013005190030B30550
:1003C000003085190130B3058A110319FE29303038
:1003D000D2003130D3003930D400D5003430D600CB
:1003E0003130D7003730D8003130D9003530DA001D
:1003F0003930DB003130DC008A116E230130051802
:100400000030B300003085180130B3050030051905
:100410000130B305013085190030B3058A11031985
:10042000282A3030D2003130D3003930D400D50002
:100430003430D6003130D7003730D8003130D900D1
:100440003530DA003930DB003130DC008A116E23C0
:10045000013005180030B300003085180130B305B5
:10046000003005190130B305003085190130B3059E
:100470008A110319522A3030D2003130D30039307A
:10048000D400D5003430D6003130D7003730D80012
:100490003130D9003530DA003930DB003130DC0062
:1004A0008A116E23003005180130B3000130851821
:1004B0000030B305013005190030B305013085194E
:1004C0000030B3058A1103197C2A3030D200313054
:1004D000D3003930D400D5003430D6003130D700C5
:1004E0003730D8003130D9003530DA003930DB0010
:1004F0003130DC008A116E23003005180130B30062
:10050000013085180030B305013005190030B305FE
:10051000003085190130B3058A110319A62A30303D
:10052000D2003130D3003930D400D5003430D60079
:100530003130D7003730D8003130D9003530DA00CB
:100540003930DB003130DC008A116E2300300518B1
:100550000130B300013085180030B30500300519B3
:100560000130B305013085190030B3058A11031934
:10057000D02A3030D2003130D3003930D400D50009
:100580003430D6003130D7003730D8003130D90080
:100590003530DA003930DB003130DC008A116E236F
:1005A0008A01F02841308A01A12054308A01A1201B
:1005B0000D308A01A1200A308A01A1200330A60053
:1005C000E830A2008A0179208A11031CD22A4F3C0C
:1005D0008A11031DE22A8A0179208A11031CD22A7A
:1005E0004B3C8A11031DE22A41308A01A12054307C
:1005F0008A01A12045308A01A12030308A01A12042
:100600000D308A01A1200A308A01A12041308A01DF
:10061000A12054308A01A12020308A01A1202B3052
:100620008A01A12020308A01A12043308A01A12023
:100630004D308A01A12047308A01A12046308A012D
:10064000A12020308A01A1203D308A01A120203044
:100650008A01A12031308A01A1200D308A01A12018
:100660000A308A01A12041308A01A12054308A0138
:10067000A1202B308A01A12043308A01A1204E30D5
:100680008A01A1204D308A01A12049308A01A12090
:100690003D308A01A12031308A01A1202C308A010D
:1006A000A12032308A01A1202C308A01A1203030D3
:1006B0008A01A1202C308A01A12030308A01A1209A
:1006C0002C308A01A12030308A01A1200D308A010E
:1006D000A1200A308A01A1208716080041308A0132
:1006E000A12054308A01A12020308A01A1202B3082
:1006F0008A01A12020308A01A12043308A01A12053
:100700004D308A01A12047308A01A12046308A015C
:10071000A12020308A01A1203D308A01A120203073
:100720008A01A12031308A01A1200D308A01A12047
:100730000A308A01A120C8308A01AB2041308A01E9
:10074000A12054308A01A12020308A01A1202B3021
:100750008A01A12020308A01A12043308A01A120F2
:100760004D308A01A12047308A01A12053308A01EF
:10077000A12020308A01A1203D308A01A120203013
:100780008A01A12022308A01A1202B308A01A120D8
:1007900038308A01A1208A01A1200430A1000B3049
:1007A000A400AC0152308A011D2022308A01A12010
:1007B0000D308A01A1200A308A01A120C8308A01A7
:1007C000AB200430A1001E30A400AC0134308A01FB
:1007D0001D20C8308A01AB200430A1000230A400E3
:1007E000AC015D308A011D200A308A01A12013303E
:0E07F000AA0088308A01AC2008008A01FD2B87
:02400E00AA3FC7
:00000001FF
