:100000000C9463000C948B000C948B000C94ED0505
:100010000C94ED050C94ED050C948B000C948B0066
:100020000C948B000C948B000C948B000C948B0024
:100030000C948B000C948B000C948B000C948B0014
:100040000C941A050C948B000C9466040C944004D8
:100050000C948B000C948B000C948B000C948B00F4
:100060000C948B000C948B000000000024002700EF
:100070002A0000000008000201000003040700003D
:1000800000000000000000000000250028002B00F8
:1000900000000000230026002900040404040404D6
:1000A0000404020202020202030303030303010227
:1000B00004081020408001020408102001020408F6
:1000C00010208B0A810A11241FBECFEFD8E0DEBFBB
:1000D000CDBF12E0A0E0B1E0E0EFFCE102C005908E
:1000E0000D92A232B107D9F723E0A2E2B2E001C03B
:1000F0001D92AD34B207E1F710E0C2E6D0E004C0D3
:100100002197FE010E94590CC136D107C9F70E9400
:100110001D070C946B0E0C940000DC01ED91FC911A
:10012000DB0114964D915C9115976D917C91028045
:10013000F381E02D0994CF92DF92EF92FF920F931B
:100140001F93CF93DF936C017A018B01C0E0D0E065
:10015000CE15DF0589F0D8016D918D01D601ED91A5
:10016000FC910190F081E02DC6010995892B11F4D5
:100170007E0102C02196ECCFC701DF91CF911F9184
:100180000F91FF90EF90DF90CF900895FC01538D79
:10019000448D252F30E0842F90E0821B930B541761
:1001A00010F0CF96089501970895FC01918D828DEE
:1001B000981761F0828DDF01A80FB11D5D968C91BB
:1001C000928D9F5F9F73928F90E008958FEF9FEFC6
:1001D0000895FC01918D828D981731F0828DE80F82
:1001E000F11D858D90E008958FEF9FEF0895FC013C
:1001F000918D228D892F90E0805C9F4F821B910909
:100200008F739927089585E792E00E94F70021E017
:10021000892B09F420E0822F0895FC01848DDF01F1
:10022000A80FB11DA35ABF4F2C91848D90E0019669
:100230008F739927848FA689B7892C93A089B18958
:100240008C9180648C93938D848D981306C0028862
:10025000F389E02D80818F7D80830895EF92FF9256
:100260000F931F93CF93DF93EC0181E0888F9B8DD9
:100270008C8D981305C0E889F989808185FD24C09B
:10028000F62E0B8D10E00F5F1F4F0F731127E02E1E
:100290008C8DE8120CC00FB607FCFACFE889F989FB
:1002A000808185FFF5CFCE010E940D01F1CF8B8DAE
:1002B000FE01E80FF11DE35AFF4FF0820B8FEA8930
:1002C000FB898081806207C0EE89FF896083E889AD
:1002D000F98980818064808381E090E0DF91CF9113
:1002E0001F910F91FF90EF900895CF93DF93EC0152
:1002F000888D8823C9F0EA89FB89808185FD05C046
:10030000A889B9898C9186FD0FC00FB607FCF5CF7F
:10031000808185FFF2CFA889B9898C9185FFEDCFC7
:10032000CE010E940D01E7CFDF91CF91089580E0CB
:1003300090E0892B29F00E94030181110C940000A8
:100340000895833081F028F4813099F08230A1F053
:1003500008958730A9F08830B9F08430D1F48091C5
:1003600080008F7D03C0809180008F778093800014
:10037000089584B58F7702C084B58F7D84BD0895BC
:100380008091B0008F7703C08091B0008F7D809303
:10039000B00008958E3008F08E508770806480938E
:1003A0007C0080917A00806480937A0080917A004A
:1003B00086FDFCCF809178002091790090E0922B0F
:1003C00008953FB7F8948091670290916802A091D8
:1003D0006902B0916A0226B5A89B05C02F3F19F0AB
:1003E0000196A11DB11D3FBFBA2FA92F982F8827B5
:1003F000820F911DA11DB11DBC01CD0142E0660F10
:10040000771F881F991F4A95D1F708958F929F9261
:10041000AF92BF92CF92DF92EF92FF926B017C017D
:100420000E94E1014B015C01C114D104E104F1041B
:10043000F1F00E94E101DC01CB0188199909AA09B8
:10044000BB09883E9340A105B10570F321E0C21AB3
:10045000D108E108F10888EE880E83E0981EA11CFF
:10046000B11CC114D104E104F10419F7DDCFFF90F0
:10047000EF90DF90CF90BF90AF909F908F900895B6
:1004800020916D0230916E022817390771F4909116
:100490006B0280916C02981741F0E0916B02F0E0E2
:1004A000EE5DFD4F808190E008958FEF9FEF0895FE
:1004B00008951F93CF93DF93DC015C962D913C91BF
:1004C0005D972115310539F481E090E013969C93F6
:1004D0008E9312973DC05196ED91FC915297509694
:1004E0009C915097892F80951FB75E964C915E978F
:1004F00041FB772770F941FD6095F894408177239F
:1005000011F0492B01C048234083E9012197F1F7FD
:1005100048E0508160FF02C0592B01C0582350832E
:10052000E9012197F1F76695415099F7772321F07A
:1005300090818923808303C08081982B90831FBF83
:100540005C968D919C915D970197F1F721E030E0E9
:10055000C901DF91CF911F91089520916D023091D3
:100560006E022817390771F480916C0220916B029A
:1005700090E0805C9F4F821B910960E470E00E94D4
:100580002A0C089580E090E0089520916D0230914A
:100590006E0228173907B9F490916B0280916C02B2
:1005A000981789F0E0916B02F0E0EE5DFD4F8081DD
:1005B00020916B0230E02F5F3F4F2F733327209342
:1005C0006B0290E008958FEF9FEF0895E0916D0228
:1005D000F0916E02E817F90769F4A389B4899C9138
:1005E0008589809589238C9310926E0210926D02FA
:1005F00081E0089580E00895089580E090E00895F6
:100600000E94560E0F931F93CF93DF93EC018881C6
:100610009981009729F02A813B812617370788F4B2
:100620008B016F5F7F4F0E948C0D009761F0998363
:1006300088831B830A832C813D81232B11F4FC01C9
:10064000108281E001C080E0DF91CF911F910F9176
:100650000895EF92FF920F931F93CF93DF93FC01C6
:10066000248135816115710511F480E019C04115AF
:100670005105A9F07B01EC018A01020F131FB8019B
:100680000E940203882389F3288139818C819D810E
:10069000B701820F931F0E94640E1D830C8381E0BB
:1006A000DF91CF911F910F91FF90EF900895CF931D
:1006B000DF93EC0188819981009711F00E94F40C7E
:1006C000198218821D821C821B821A82DF91CF91AF
:1006D0000895EF92FF920F931F93CF93DF93CDB7BF
:1006E000DEB728970FB6F894DEBF0FBECDBF7C01F2
:1006F000CB014AE08E010F5F1F4FB8010E94630BD0
:10070000F80101900020E9F73197AF01401B510B30
:10071000B801C7010E942903811103C0C7010E94CB
:100720005703C70128960FB6F894DEBF0FBECDBFA2
:10073000DF91CF911F910F91FF90EF9008950F934C
:100740001F93CF93DF9300D0CDB7DEB78C016983C1
:100750001A8241E050E0BE016F5F7F4F0E94290383
:10076000811103C0C8010E945703C8010F900F9068
:10077000DF91CF911F910F910895CF93DF93EC01FB
:100780006115710561F0FB0101900020E9F73197D7
:10079000AF01461B570B0E942903811103C0CE01F4
:1007A0000E945703CE01DF91CF910895EF92FF92FF
:1007B0000F931F93CF93DF93EC017B018A01BA0162
:1007C0000E940203811104C0CE010E94570307C09A
:1007D0001D830C83B701888199810E94640ECE012C
:1007E000DF91CF911F910F91FF90EF900895FC0141
:1007F0001182108213821282158214826115710592
:1008000051F0FB0101900020E9F73197AF01461B41
:10081000570B0C94D6030895FC01808191810C94B0
:10082000F40CFB01DC0111961C921E9213961C9293
:100830001E92129715961C921E9214978617970770
:1008400049F0608171816115710521F04481558104
:100850000C94D60308956115710579F0FB010190A0
:100860000020E9F73197AF01461B570BDC01ED91F2
:10087000FC910280F381E02D099480E090E00895DE
:100880001F920F920FB60F9211242F933F934F9305
:100890005F936F937F938F939F93AF93BF93EF93E8
:1008A000FF9385E792E00E940D01FF91EF91BF91C8
:1008B000AF919F918F917F916F915F914F913F91F8
:1008C0002F910F900FBE0F901F9018951F920F92AF
:1008D0000FB60F9211242F938F939F93EF93FF9353
:1008E000E0918502F09186028081E0918B02F09187
:1008F0008C0282FD12C0908180918E028F5F8F7377
:1009000020918F02821751F0E0918E02F0E0EB58B7
:10091000FD4F958F80938E0201C08081FF91EF91F2
:100920009F918F912F910F900FBE0F901F90189550
:100930001F93CF93DF93282F30E0F901EE58FF4F3C
:100940008491F901E255FF4FD491F901E656FF4F2A
:10095000C491CC23C9F0162F81110E94A101EC2F64
:10096000F0E0EE0FFF1FEA57FF4FA591B4918FB74C
:10097000F894111105C09C91ED2FE095E92302C078
:10098000EC91ED2BEC938FBFDF91CF911F910895E8
:10099000CF93DF93EC0160E08E810E94980461E0C8
:1009A0008E810E94980460E08E810E9498048BE8FA
:1009B00091E00197F1F7DF91CF910895CF93DF9305
:1009C00090E0FC01E255FF4F2491FC01E656FF4FF9
:1009D0008491882361F190E0880F991FFC01E85908
:1009E000FF4FC591D491FC01EA57FF4FA591B491F7
:1009F000611109C09FB7F89488812095822388836C
:100A0000EC912E230BC0623061F49FB7F8943881CB
:100A1000822F809583238883EC912E2B2C939FBF6C
:100A200006C08FB7F894E8812E2B28838FBFDF9103
:100A3000CF9108951F920F920FB60F9211242F930A
:100A40003F938F939F93AF93BF9380916302909155
:100A50006402A0916502B09166023091620223E0C7
:100A6000230F2D3720F40196A11DB11D05C026E8E6
:100A7000230F0296A11DB11D209362028093630291
:100A800090936402A0936502B0936602809167021E
:100A900090916802A0916902B0916A020196A11D2D
:100AA000B11D8093670290936802A0936902B0938E
:100AB0006A02BF91AF919F918F913F912F910F90BB
:100AC0000FBE0F901F901895CF92DF92EF92FF927A
:100AD0000F931F93CF93DF937C016C0187E0C80EC7
:100AE000D11CC0E0D0E0062F10E0B8010C2E02C0EF
:100AF000759567950A94E2F76170F60181916F012F
:100B00000E9498042196C430D10579F7C701DF917E
:100B1000CF911F910F91FF90EF90DF90CF900C94A9
:100B2000C804CF92DF92EF92FF920F931F93CF935F
:100B3000DF93EC01F62E642F8C810E9498048D8146
:100B40008F3F19F060E00E9498048F850F2D10E010
:100B500084FF25C06E0187E0C80ED11CE12CF12C6A
:100B6000B8010E2C02C0759567950A94E2F7617082
:100B7000F60181916F010E949804FFEFEF1AFF0ABE
:100B800088E0E816F10461F7CE01DF91CF911F9163
:100B90000F91FF90EF90DF90CF900C94C804B801B4
:100BA00084E0759567958A95E1F7CE010E9464050A
:100BB0006F2DCE01DF91CF911F910F91FF90EF909C
:100BC000DF90CF900C94640541E00E94910581E094
:100BD00090E0089540E00C9491051F920F920FB69B
:100BE0000F9211242F933F934F935F936F937F93B3
:100BF0008F939F93AF93BF93EF93FF93E0916D0219
:100C0000F0916E02309709F451C0968DA685B78594
:100C1000858591FF04C09C91892329F447C09C914C
:100C2000892309F043C0A389B4899C918589809563
:100C300089238C93868997890197F1F7608D718D4F
:100C4000A685B785558538E020E0CB010197F1F7FF
:100C5000822F90E095958795282F4C91452309F098
:100C60002068315091F7868D81FD209580916C022E
:100C700090E001968F73992730916B02381749F0F5
:100C8000A0916C02B0E0AE5DBD4F2C9380936C02DE
:100C900003C0868D8160868F828D938D0197F1F7D9
:100CA000A389B4899C918589892B8C93FF91EF91BD
:100CB000BF91AF919F918F917F916F915F914F9174
:100CC0003F912F910F900FBE0F901F901895EF92AC
:100CD000FF920F931F93CF93DF93EC01623018F0D4
:100CE0008F8588608F876B8B1C8A80E48D8B80E179
:100CF0008E8B80E58F8B61E08C810E94DE048D817C
:100D00008F3F19F061E00E94DE0461E08E810E9455
:100D1000DE047E0187E0E80EF11C00E010E08F8524
:100D200084FD03C084E090E002C088E090E00817F2
:100D300019074CF461E0F70181917F010E94DE0404
:100D40000F5F1F4FECCF8BE39DE00197F1F760E061
:100D50008C810E94980460E08E810E9498048D81AD
:100D60008F3F19F060E00E9498046F8564FD1DC0FC
:100D700063E0CE010E9464050BE416E4C80101970C
:100D8000F1F763E0CE010E946405C8010197F1F715
:100D900063E0CE010E94640583E592E00197F1F7DC
:100DA00062E0CE010E94640516C06062CE010E941E
:100DB000EA058BE496E40197F1F76F856062CE0156
:100DC0000E94EA0583E592E00197F1F76F85606282
:100DD000CE010E94EA056F856062CE010E94EA059D
:100DE00084E0888B6CE0CE010E94EA0561E0CE01D0
:100DF0000E94EA058BE39FE10197F1F782E0898B7E
:100E000066E0CE01DF91CF911F910F91FF90EF909F
:100E10000C94EA05CF93DF93BC018AE293E00E9431
:100E20002B04EC0165E771E08AE293E00E942B0459
:100E30008C0F9D1FDF91CF910895CF93DF93CDB796
:100E4000DEB768970FB6F894DEBF0FBECDBF7894BB
:100E500084B5826084BD84B5816084BD85B58260BF
:100E600085BD85B5816085BD80916E008160809370
:100E70006E001092810080918100826080938100D9
:100E800080918100816080938100809180008160E9
:100E9000809380008091B10084608093B100809144
:100EA000B00081608093B00080917A00846080936C
:100EB0007A0080917A00826080937A0080917A0033
:100EC000816080937A0080917A00806880937A00B4
:100ED0001092C100109245031092440310924303F4
:100EE0001092420310924103109240038DE991E069
:100EF000909347038093460390913603963108F010
:100F000057C02DEB30E030934103209340032BE991
:100F100031E030934303209342032CE231E03093DD
:100F200045032093440320916800983050F031E04D
:100F30009E3008F430E081E001C0880F3A95EAF76E
:100F400001C084E0822B80936800983038F09E3096
:100F500040F0963148F020E030E008C02DE630E067
:100F600005C02BE630E002C02CE630E030933E03B3
:100F700020933D03983030F481E001C0880F9A95AA
:100F8000EAF70EC0292F30E09E3018F428503109BE
:100F900002C02E50310981E001C0880F2A95EAF77E
:100FA00080933F0380914603909147030197F1F7A7
:100FB0008091440390914503892B21F180916D022A
:100FC00090916E0223E08A329207E1F0009711F0CF
:100FD0000E94E602809148038E7F8093480310921E
:100FE0006C0210926B028AE293E090936E028093FF
:100FF0006D02E0913D03F0913E03908180913F03AB
:10100000892B8083E0918502F091860282E08083C3
:10101000E0918102F09182021082E0918302F091CE
:1010200084028FEC808310928D02E0918902F0910E
:101030008A0286E08083E0918702F09188028081B5
:1010400080618083E0918702F091880280818860CE
:101050008083E0918702F09188028081806880839C
:10106000E0918702F091880280818F7D808362E029
:1010700082E193E00E94670661E089E00E94DE045D
:1010800060E089E00E94980462E084E00E94DE044F
:1010900066E371E082E193E00E942B0468E97AE361
:1010A00080E090E00E94060287E491E00E940A0737
:1010B00064E670E080E090E00E9406028AE491E03D
:1010C0000E940A0764E670E080E090E00E94060259
:1010D0008FE491E00E940A0764E670E080E090E00F
:1010E0000E9406026AE571E0CE0143960E94F70372
:1010F000BE016D5E7F4F8E010F5F1F4FC8010E94C2
:10110000110462E2C8010E949F0368E671E00E9438
:10111000BD0362E20E949F0366E671E00E94BD0388
:1011200062E20E949F0360E771E00E94BD0362E2F9
:101130000E949F03BC018AE293E00E948D0065E754
:1011400071E08AE293E00E942B04C8010E940C0423
:10115000CE0143960E940C0464E670E080E090E0CB
:101160000E94060288E791E00E940A0764E670E0A8
:1011700080E090E00E94060285E891E00E940A0764
:1011800068EB7BE080E090E00E94060261E082E193
:1011900093E00E94EA058BE39FE10197F1F798EC59
:1011A000892E912CA12CB12C2AEF422E512C612C8E
:1011B000712C8FE00E94CA017C019093720280938F
:1011C00071028EE00E94CA019093740280937302B0
:1011D000E6E7F0E08491E2EBF0E0D490EEE9F0E0B5
:1011E000C490CC2079F081110E94A101EC2DF0E097
:1011F000EE0FFF1FE057FF4FA591B4918C91D822BD
:1012000009F07AC180E10E94CA01092E000CAA0BE4
:10121000BB0B9C01AD012059314041095109A0E5AA
:10122000B0E00E94B70BA50194010E94980BBA018F
:10123000A901485D5F4F6F4F7F4FCA0157FF04C040
:1012400088279927841B950B9093700280936F02D7
:1012500082EF91E08E199F098A3591052CF09093C9
:1012600072028093710204C0109272021092710295
:10127000A0917302B091740224E630E00E943E0C0B
:10128000A30192010E94980B57FD05C03093740290
:101290002093730204C01092740210927302809122
:1012A0007102909172028836910514F061E00EC0CF
:1012B0008091730290917402CD97C4F780916F0270
:1012C00090917002853691058CF760E089E00E946C
:1012D0009804E1E0809125038111E0E0E195F0E0E0
:1012E000EE5EFC4F6489606882E193E00E94EA054B
:1012F000E0907302F090740261E971E0CE014396D0
:101300000E94F703BE016D5E7F4FC8010E94110469
:10131000B701C8010E94690369E971E00E94BD0339
:10132000BC0182E193E00E948D00C8010E940C0480
:10133000CE0143960E940C04E1E0809125038111C7
:10134000E0E0E195F0E0EE5EFC4F6489655F606887
:1013500082E193E00E94EA0580917102909172020D
:101360001C8A1B8A1E8A1D8A188E1F8A4AE0B801B1
:101370000E94630BF80101900020E9F73197AF015B
:10138000401B510BB801CE0143960E94D603BE010B
:101390006D5E7F4FC8010E9411046FEDC8010E946D
:1013A0009F036DE971E00E94BD03BC0182E193E0FF
:1013B0000E948D00C8010E940C04CE0143960E9439
:1013C0000C04E0912503E23010F4E15001C0E1E0AB
:1013D000F0E0EE5EFC4F6489606882E193E00E9479
:1013E000EA05E0906F02F090700261EA71E0CE01D0
:1013F00043960E94F703BE016D5E7F4FC8010E94B5
:101400001104B701C8010E94690369EA71E00E94F2
:10141000BD03BC0182E193E00E948D00C8010E94DF
:101420000C04CE0143960E940C04E0906F02F090F1
:101430007002C0907102D0907202209073023090BE
:10144000740261EB71E0CE0143960E94F703BE0186
:101450006D5E7F4FC8010E94110462E2C8010E94C4
:101460009F036EEB71E00E94BD0362E20E949F0346
:1014700066E671E00E94BD0362E20E949F0362EC97
:1014800071E00E94BD03B1010E9469036EEF71E03B
:101490000E94BD03B6010E94690368E072E00E94E9
:1014A000BD03B7010E94690362E20E949F03BC0171
:1014B0008AE293E00E948D0065E771E08AE293E0A2
:1014C0000E942B04C8010E940C04CE0143960E9486
:1014D0000C0460ED77E080E090E00E94060282E17B
:1014E00092E00E940A076CEA7DE080E090E00E94B2
:1014F00006020E9497015DCE1092700210926F0258
:10150000A7CE88E291E090932B0380932A038AE28E
:1015100093E00C94E602109278021092770288EE23
:1015200093E0A0E0B0E08093790290937A02A093D8
:101530007B02B0937C022AE031E030937602209364
:10154000750225EC30E0309382022093810224EC76
:1015500030E0309384022093830220EC30E030931B
:1015600086022093850221EC30E03093880220939C
:10157000870222EC30E030938A022093890226EC25
:1015800030E030938C0220938B0210928E021092E6
:101590008F02109290021092910210922D031092DD
:1015A0002C0380932E0390932F03A0933003B093CA
:1015B000310388E291E090932B0380932A031092E9
:1015C0004103109240031092430310924203109281
:1015D0004503109244031092470310924603609112
:1015E00048036E7F6D7F609348036695617081E06C
:1015F000682782E00E94980461E082E00E94DE0495
:10160000E0EBF0E0E491E0933A03ECE9F0E0E49100
:10161000F0E0EE0FFF1FEA57FF4F859194919093F2
:101620003C0380933B0360E083E00E94DE048091F2
:10163000480381FD04C061E083E00E94980483E0D8
:1016400080933603E1EBF0E0E491E0933703EDE9BA
:10165000F0E0E491F0E0EE0FFF1FE057FF4F8591BF
:10166000949190933903809338031092150310924C
:1016700014038CE191E090931303809312038CE0A8
:10168000809316038FEF809317038BE080931803EA
:101690008DE08093190381E180931A0382E18093A6
:1016A0001B0383E180931C0310921D0310921E0301
:1016B00010921F03109220031092210361E082E137
:1016C00093E00C946706BB274A3031F4992322F447
:1016D000BDE2909581959F4F0C946F0BBB27FB014A
:1016E0005527AA27880F991FAA1FA41710F0A41B1B
:1016F00083955051B9F7A05DAA3308F0A95DA19375
:10170000009779F7B111B1931192CB010C94880B2A
:10171000DC01FC01672F71917723E1F7329704C058
:101720007C916D9370836291AE17BF07C8F30895E3
:10173000052E97FB1EF400940E94AF0B57FD07D0B7
:101740000E94F90B07FC03D04EF40C94AF0B50959C
:101750004095309521953F4F4F4F5F4F089590959D
:101760008095709561957F4F8F4F9F4F08950E9490
:101770001B0CA59F900DB49F900DA49F800D911DF3
:10178000112408952F923F924F925F926F927F9211
:101790008F929F92AF92BF92CF92DF92EF92FF9281
:1017A0000F931F93CF93DF93CDB7DEB7CA1BDB0B2D
:1017B0000FB6F894DEBF0FBECDBF09942A883988D2
:1017C00048885F846E847D848C849B84AA84B984D9
:1017D000C884DF80EE80FD800C811B81AA81B981E5
:1017E000CE0FD11D0FB6F894DEBF0FBECDBFED01F9
:1017F0000895A1E21A2EAA1BBB1BFD010DC0AA1F52
:10180000BB1FEE1FFF1FA217B307E407F50720F069
:10181000A21BB30BE40BF50B661F771F881F991FE4
:101820001A9469F760957095809590959B01AC012D
:10183000BD01CF010895A29FB001B39FC001A39F36
:10184000700D811D1124911DB29F700D811D1124F9
:10185000911D089597FB072E16F4009407D077FD8D
:1018600009D00E94450C07FC05D03EF49095819567
:101870009F4F0895709561957F4F08950E941B0CAE
:10188000B7FF0895821B930B0895AA1BBB1B51E160
:1018900007C0AA1FBB1FA617B70710F0A61BB70BE0
:1018A000881F991F5A95A9F780959095BC01CD0185
:1018B0000895EE0FFF1F0590F491E02D0994CF934A
:1018C000DF938230910510F482E090E0E0914B03C9
:1018D000F0914C0320E030E0C0E0D0E0309711F10F
:1018E0004081518148175907C0F04817590761F4E2
:1018F00082819381209719F09B838A832BC09093D8
:101900004C0380934B0326C02115310519F0421773
:10191000530718F49A01BE01DF01EF010280F38141
:10192000E02DDCCF2115310509F1281B390B2430BE
:10193000310590F412968D919C9113976115710564
:1019400021F0FB019383828304C090934C03809326
:101950004B03FD01329644C0FD01E20FF31F81935A
:101960009193225031092D933C933AC02091490321
:1019700030914A03232B41F420910201309103015D
:1019800030934A03209349032091000130910101D3
:101990002115310541F42DB73EB740910401509116
:1019A0000501241B350BE0914903F0914A03E2172E
:1019B000F307A0F42E1B3F0B2817390778F0AC0172
:1019C0004E5F5F4F2417350748F04E0F5F1F50934F
:1019D0004A03409349038193919302C0E0E0F0E011
:1019E000CF01DF91CF9108950F931F93CF93DF9392
:1019F000009709F48CC0FC01329713821282009187
:101A00004B0310914C030115110581F420813181A4
:101A1000820F931F2091490330914A0328173907F9
:101A200079F5F0934A03E093490371C0D80140E08F
:101A300050E0AE17BF0750F412962D913C911397CA
:101A4000AD012115310509F1D901F3CF9D01DA016D
:101A50003383228360817181860F971F82179307DA
:101A600069F4EC0128813981260F371F2E5F3F4F23
:101A7000318320838A819B8193838283452B29F440
:101A8000F0934C03E0934B0342C01396FC93EE9308
:101A90001297ED01499159919E01240F351FE217CC
:101AA000F30771F480819181840F951F029611963E
:101AB0009C938E938281938113969C938E9312971D
:101AC000E0E0F0E0D80112968D919C911397009779
:101AD00019F0F8018C01F6CF8D919C9198012E5F41
:101AE0003F4F820F931F2091490330914A032817DB
:101AF000390769F4309729F410924C0310924B0384
:101B000002C01382128210934A0300934903DF91AB
:101B1000CF911F910F910895A0E0B0E0E2E9FDE0C0
:101B20000C94C60BEC01009721F4CB010E945F0CD2
:101B3000B8C0FC01E60FF71F9C0122503109E217E3
:101B4000F30708F4ACC0D9010D911C911197061749
:101B50001707B0F00530110508F49FC0C8010497BD
:101B60008617970708F499C002501109061B170B36
:101B7000019311936D937C93CF010E94F40C8DC05F
:101B80005B01A01AB10A4C01800E911EA0914B037B
:101B9000B0914C0340E050E0E12CF12C109709F497
:101BA0004AC0A815B905D1F56D907C9011976301D5
:101BB00082E0C80ED11CCA14DB0480F1A3014A19CB
:101BC0005B096A0182E0C80ED11C1296BC90129784
:101BD0001396AC91B5E0CB16D10440F0B282A3834A
:101BE00051834083D9016D937C930AC00E5F1F4FD0
:101BF000C301800F911FF90191838083EB2DFA2F90
:101C0000E114F10431F0D7011396FC93EE9312978F
:101C100044C0F0934C03E0934B033FC08D919C91E3
:101C200011974817590708F4AC017D0112960D90E1
:101C3000BC91A02DB3CF8091490390914A038815A0
:101C40009905E1F446175707C8F480910001909177
:101C50000101009741F48DB79EB740910401509166
:101C60000501841B950BE817F907C8F4F0934A03A4
:101C7000E0934903F901718360830FC0CB010E9497
:101C80005F0C7C01009759F0A801BE010E945B0E19
:101C9000CE010E94F40CC70104C0CE0102C080E056
:101CA00090E0CDB7DEB7EEE00C94E20B81E090E07F
:101CB000F8940C946B0EFB01DC0102C001900D92B4
:101CC00041505040D8F70895FB01DC0101900D927E
:101CD0000020E1F7089510E0C2E6D0E004C0FE0164
:101CE0000E94590C2196C336D107C9F7F894FFCF4B
:101CF00000004D038000000000002E019B00C60084
:101D00007501F700D500E90000000000E4059B0024
:101D1000FD02FC020000000059029B00FD02580277
:101D2000AD02C5024002436F6E6E656374696E67F3
:101D30002047534D2E2E0041540041544530004160
:101D4000542B43474154543D310041542B5341508F
:101D500042523D332C312C00434F4E5459504500D4
:101D600047505253000D0A0041542B5341504252E8
:101D70003D312C310041542B48545450494E495464
:101D800000536D6F6B653A2000252020004620200F
:101D90000050756C73653A20002042504D20202081
:101DA0000041542B48545450504152413D0055522B
:101DB0004C00687474703A2F2F696F746865616C99
:101DC0007468636172652E303030776562686F7356
:101DD000746170702E636F6D2F636F6E6E656374C8
:101DE0002E7068703F675F76616C75653D00267484
:101DF0005F76616C75653D0026705F76616C756518
:101E00003D0041542B48545450414354494F4E3D9A
:021E10003000A0
:107E0000112484B714BE81FFF0D085E080938100F7
:107E100082E08093C00088E18093C10086E0809377
:107E2000C20080E18093C4008EE0C9D0259A86E02C
:107E300020E33CEF91E0309385002093840096BBD3
:107E4000B09BFECF1D9AA8958150A9F7CC24DD24C4
:107E500088248394B5E0AB2EA1E19A2EF3E0BF2EE7
:107E6000A2D0813461F49FD0082FAFD0023811F036
:107E7000013811F484E001C083E08DD089C08234E0
:107E800011F484E103C0853419F485E0A6D080C0E4
:107E9000853579F488D0E82EFF2485D0082F10E0AE
:107EA000102F00270E291F29000F111F8ED06801E7
:107EB0006FC0863521F484E090D080E0DECF843638
:107EC00009F040C070D06FD0082F6DD080E0C81688
:107ED00080E7D80618F4F601B7BEE895C0E0D1E017
:107EE00062D089930C17E1F7F0E0CF16F0E7DF06D8
:107EF00018F0F601B7BEE89568D007B600FCFDCFD4
:107F0000A601A0E0B1E02C9130E011968C91119780
:107F100090E0982F8827822B932B1296FA010C0160
:107F200087BEE89511244E5F5F4FF1E0A038BF0790
:107F300051F7F601A7BEE89507B600FCFDCF97BE46
:107F4000E89526C08437B1F42ED02DD0F82E2BD052
:107F50003CD0F601EF2C8F010F5F1F4F84911BD097
:107F6000EA94F801C1F70894C11CD11CFA94CF0C13
:107F7000D11C0EC0853739F428D08EE10CD085E9AC
:107F80000AD08FE07ACF813511F488E018D01DD067
:107F900080E101D065CF982F8091C00085FFFCCF94
:107FA0009093C60008958091C00087FFFCCF809118
:107FB000C00084FD01C0A8958091C6000895E0E648
:107FC000F0E098E1908380830895EDDF803219F02E
:107FD00088E0F5DFFFCF84E1DECF1F93182FE3DFCA
:107FE0001150E9F7F2DF1F91089580E0E8DFEE27F6
:047FF000FF270994CA
:027FFE00040479
:0400000300007E007B
:00000001FF
