:10000000DD29AC01B001AF000630A80030082C0299
:10001000031D0C282F082B0204300318013003198C
:1000200002302805031D0130D9298030A100FE309F
:100030004221013042217530AC0030307629A101D7
:10004000A117B800B808031DB803FE304221A30869
:1000500003192C28230B2E2880303F282308023A2E
:10006000031D3428C0303F282308033A031D3A28D3
:1000700094303F282308043A031D4028D430A300BD
:10008000380823074229A101A117B800FE304221F8
:1000900038084229B101B201B301B401A8124721C5
:1000A000031C0800D33E0319A8162D3EC63E0318B4
:1000B0004F280A3E031C4F28AF00AE01AD01AC0132
:1000C0000A30AB00A1212F082B07B1002C08B20089
:1000D000030103180130B2072D08B3000301031810
:1000E0000130B3072E08B400030103180130B40730
:1000F000A603031984284721031C0800C63E0318E1
:1001000084280A3E03185C28A81E9128B109B20968
:10011000B309B409B10A0319B20A0319B30A0319DE
:10012000B40A31080314D929A601B100B201A01103
:1001300026080319A0150530A5002730B00010309F
:10014000AD200330B000E830AD20B0016430AD2008
:10015000B0010A30AD203108B428AF003208AC003D
:100160003108AB0085212B08AB00A5030319A011B2
:1001700026080319BE2825020318C5282B08031DCD
:10018000A011A019C528303E42290800B6008611EA
:1001900006118316861106110F3086058312360864
:1001A000A018F0283E30AC00803076213330B50006
:1001B00004211330AC00883076210421643075218D
:1001C0000421643075212230B50004212830EF204D
:1001D0000C30EF200630EF20A0143608F028201451
:1001E000B500201CFE280611033C031C0329032133
:1001F0000730AC00D0307621031408002014FE3CF8
:10020000031913290615201C201086150F308605AA
:100210003508F039860400008611B50E000020185C
:100220000429323075213608D92998181812181661
:100230002308AB002708AC00AF01B0011F2920291B
:1002400000008C1A3A29FF30AF07031CB007031CCB
:10025000AB07031CAC07031CD9292F0F1E29300F35
:100260001F29FA30AF00B00120299818181218166B
:100270008C1E38291A080314D9290C1E3D2999000F
:100280000314D929A11BC62821193D290800C1083A
:1002900003191529410303193529A500A2012508D1
:1002A00003178D000313260803178F00602103191D
:1002B000D9294221A50A0319A60AA20F4F29D92933
:1002C000831603170C140000000083120C08D929B0
:1002D000B001AF00FF30AF07031CB007031CD929E2
:1002E0000330AC00E63076216A29AC01FC3EAB005D
:1002F000AC09031C8129FF300000AB0703187C29DF
:10030000AB070000AC0F7B290800B201B10110302F
:10031000B5002C0DB10DB20D2F08B1023008031C31
:10032000300FB20203189B292F08B10730080318B9
:10033000300FB2070310AB0DAC0DB50B89292B089C
:1003400008002030B500BD01BE01BF01C00103108F
:100350002B1CB8293108BD0732080318320FBE071D
:1003600033080318330FBF0734080318340FC007CE
:10037000C00CBF0CBE0CBD0CAE0CAD0CAC0CAB0C71
:10038000B50BA72908001030BA00AC01AB01B60CC0
:10039000B50C031CD1292F08AB0730080318300F08
:1003A000AC07AC0CAB0CB20CB10CBA0BC7293108C2
:1003B000080083138312031308008301831620307F
:1003C000990020309800831290309800A0010730E7
:1003D00083169F0083128A01152083160614861443
:1003E00005108512831285120510C901C8017F10FE
:1003F000FF103130CF003230D0003330D1003430F4
:10040000D2003130D3003230D4003330D500343014
:10041000D6004130D7004230D8004330D9004430B4
:10042000DA004130DB004230DC004330DD00443094
:10043000DE004130DF004230E0004330E100443074
:10044000E2003130E3003230E4003330E500343094
:10045000E6003130E7003230E8003330E900343074
:10046000EA004130EB004230EC004330ED00443014
:10047000EE003130EF003230F0003330F100413027
:10048000F2003430F3003530F4003630F5004230FD
:10049000F600FF30CE008316051685150515851468
:1004A000871107118710071083128A157821831688
:1004B000A101A001831287150711871007100130D1
:1004C0008A0168218A11051E6D2A01308316A00059
:1004D00083128A1126238A118C2A8A11851D782A73
:1004E00002308316A00083128A1126238A118C2AD7
:1004F0008A11051D832A03308316A00083128A11F6
:1005000026238A118C2A8A11851C8C2A0430831692
:10051000A00083128A112623871107158710071060
:1005200001308A0168218A11051E9E2A0530831632
:10053000A00083128A1126238A11BD2A8A11851DE3
:10054000A92A06308316A00083128A1126238A1155
:10055000BD2A8A11051DB42A07308316A000831214
:100560008A1126238A11BD2A8A11851CBD2A0830CA
:100570008316A00083128A1126238711071187147E
:10058000071001308A0168218A11051ECF2A09301F
:100590008316A00083128A1126238A11EE2A8A115B
:1005A000851DDA2A0A308316A00083128A112623B9
:1005B0008A11EE2A8A11051DE52A0B308316A00048
:1005C00083128A1126238A11EE2A8A11851CEE2AAB
:1005D0000C308316A00083128A112623871107117D
:1005E0008710071401308A0168218A11051E002B2B
:1005F0000D308316A00083128A1126238A111F2B27
:100600008A11851D0B2B0E308316A00083128A11D0
:1006100026238A111F2B8A11051D162B0F308316D6
:10062000A00083128A1126238A111F2B8A11851C90
:100630001F2B10308316A00083128A1126238316E5
:10064000A0088A11831203195A2A08008316A008E9
:100650008A118312031D322B8316A1018312080015
:100660008A11562C0130831620028A118312031D31
:10067000442B31308316A10001308312B000F430D6
:100680008A0169218A11562C0230831620028A11B0
:100690008312031D562B32308316A10001308312C2
:1006A000B000F4308A0169218A11562C0330831678
:1006B00020028A118312031D682B33308316A10098
:1006C00001308312B000F4308A0169218A11562C5E
:1006D0000430831620028A118312031D7A2B4130C5
:1006E0008316A10001308312B000F4308A01692121
:1006F0008A11562C0530831620028A118312031D9D
:100700008C2B34308316A10001308312B000F430FA
:100710008A0169218A11562C0630831620028A111B
:100720008312031D9E2B35308316A10001308312E6
:10073000B000F4308A0169218A11562C07308316E3
:1007400020028A118312031DB02B36308316A100BC
:1007500001308312B000F4308A0169218A11562CCD
:100760000830831620028A118312031DC22B4230E7
:100770008316A10001308312B000F4308A01692190
:100780008A11562C0930831620028A118312031D08
:10079000D42B37308316A10001308312B000F4301F
:1007A0008A0169218A11562C0A30831620028A1187
:1007B0008312031DE62B38308316A100013083120B
:1007C000B000F4308A0169218A11562C0B3083164F
:1007D00020028A118312031DF82B39308316A100E1
:1007E00001308312B000F4308A0169218A11562C3D
:1007F0000C30831620028A118312031D0A2C433009
:100800008316A10001308312B000F4308A016921FF
:100810008A11562C0D30831620028A118312031D73
:100820001C2C2A308316A10001308312B000F43052
:100830008A0169218A11562C0E30831620028A11F2
:100840008312031D2E2C30308316A1000130831239
:10085000B000F4308A0169218A11562C0F308316BA
:1008600020028A118312031D402C23308316A1001D
:1008700001308312B000F4308A0169218A11562CAC
:100880001030831620028A118312031D522C44302B
:100890008316A10001308312B000F4308A0169216F
:1008A0008A11562C8316A1018312080008008A11B0
:1008B00089248A110618622C7F140130B0002C3074
:1008C0008A0169218A1186186B2CFF140130B0004F
:1008D0002C308A016921013006180030C200003036
:1008E000FF180130C2058A110319792CFF108A11F3
:1008F000A224013086180030C20000307F18013079
:10090000C2058A110319872C7F108A11A2248A013B
:10091000572C0130A700F430A3008A0115218A1159
:10092000031CA12CC300303043028A11031D9A2CF2
:100930008A118C26313043028A11031DA12C8A11A1
:10094000F42408008A0115208030A100C0308A01FB
:1009500043200930A600A7308A014D218A11DC24EA
:100960008030A10094308A0143200930A600B530C0
:100970008A014D212730B00010308A0169218A1187
:10098000C4248A1578290800C401333044028A112E
:100990000318DB2C05140330AC0020308A017621CB
:1009A00005104B30AC0000308A0176210130C407BD
:1009B0008A11031CC52C0800C401333044028A117B
:1009C0000318F32C05140730AC00D0308A017621CF
:1009D00005104630AC0050308A0176210130C40742
:1009E0008A11031CDD2C08008A0115208030A1002B
:1009F0008A0143200930A600CA308A014D21C40172
:100A0000083044028A110318202D8A015722440815
:100A1000773E840083162108800080308312A10075
:100A20000230A300440A8A0121204408773E840052
:100A300000088A01C6200130C4078A11031C002D5A
:100A4000C401083044028A110318652D44084F3E42
:100A500084000008A9004408773E84000008AA002A
:100A600029082A028A110319372D8A11652D0730AA
:100A700044028A1103183E2D8A11602D8030A10096
:100A800099308A0143200930A600DF308A014D21C8
:100A90000130CC008030A100D9308A0143200930D8
:100AA000A600E8308A014D210230A6004C088A01D8
:100AB00095200730B000D0308A0169218A11F526CF
:100AC0000130C4078A11031C212DC40108304402DF
:100AD0008A110318AA2D4408573E84000008A90073
:100AE0004408773E84000008AA0029082A028A11D7
:100AF00003197C2D8A11AA2D073044028A1103188C
:100B0000832D8A11A52D8030A10099308A014320C0
:100B10000930A600DF308A014D210230CC00803040
:100B2000A100D9308A0143200930A600E8308A01AB
:100B30004D210230A6004C088A0195200730B000F4
:100B4000D0308A0169218A11F5260130C4078A1143
:100B5000031C662DC401083044028A110318EF2DCE
:100B600044085F3E84000008A9004408773E8400E2
:100B70000008AA0029082A028A110319C12D8A1126
:100B8000EF2D073044028A110318C82D8A11EA2D6F
:100B90008030A10099308A0143200930A600DF305F
:100BA0008A014D210330CC008030A100D9308A0168
:100BB00043200930A600E8308A014D210230A6000A
:100BC0004C088A0195200730B000D0308A01692195
:100BD0008A11F5260130C4078A11031CAB2DC4010C
:100BE000083044028A110318342E4408673E8400FA
:100BF0000008A9004408773E84000008AA002908DC
:100C00002A028A110319062E8A11342E0730440253
:100C10008A1103180D2E8A112F2E8030A1009930D1
:100C20008A0143200930A600DF308A014D210430BB
:100C3000CC008030A100D9308A0143200930A600C1
:100C4000E8308A014D210230A6004C088A01952027
:100C50000730B000D0308A0169218A11F5260130B1
:100C6000C4078A11031CF02DC401083044028A1104
:100C70000318792E44086F3E84000008A900440838
:100C8000773E84000008AA0029082A028A11031965
:100C90004B2E8A11792E073044028A110318522EE6
:100CA0008A11742E8030A10099308A0143200930C6
:100CB000A600DF308A014D210530CC008030A10034
:100CC000D9308A0143200930A600E8308A014D213D
:100CD0000230A6004C088A0195200730B000D030C1
:100CE0008A0169218A11F5260130C4078A11031C83
:100CF000352ECC018030A10096308A014320093086
:100D0000A600F0308A014D210730B000D0308A01B2
:100D100069218A15782908008A0115208030A100F0
:100D2000C0308A0143200A30A60000308A014D21DC
:100D30008030A10094308A0143200A30A6000E3092
:100D40008A014D218A013521493C8A11031DA22EB9
:100D50008A013521443C8A11031DA22EA9018A0172
:100D6000352129084D3E84001A088000A90A290867
:100D7000023C8A11031DAF2E4E08A9003030290213
:100D80008A11031DCF2E8030A100D6308A01432066
:100D90000A30A60021308A014D218A11ED2E4E081D
:100DA000A90030302902CC008030A100D7308A0160
:100DB00043200A30A60032308A014D210230A600BD
:100DC0004C088A01952020308A01C6200730B000E7
:100DD000D0308A0169218A11F5260730B000D03061
:100DE0008A0169218A15782908008A011520803036
:100DF000A1008A0143200A30A6003F308A014D211C
:100E00008030A100C0308A0143200A30A600513052
:100E10008A014D218030A10094308A0143200A309C
:100E2000A6005E308A014D218030A100D4308A01B5
:100E300043200A30A6006F308A014D218A015722D3
:100E40004130831621028A118312031D292F8A1132
:100E5000F7274230831621028A118312031D322F95
:100E60008A1146274330831621028A118312031DFB
:100E70003B2F8A11B7274430831621028A1183122F
:100E8000031D442F8A1578298A011E2F8A011520F7
:100E90008030A1008A0143200A30A6007F308A01F9
:100EA0004D218030A100C0308A0143200A30A600C5
:100EB00094308A014D218030A10094308A01432072
:100EC0000A30A6009F308A014D218A015722413005
:100ED000831621028A118312031DAB2F8030A100DB
:100EE000D4308A0143200A30A600A7308A014D2160
:100EF00052308A013D210330A700E830A3008A0167
:100F000015218A11031C782F493C8A11031D7F2F5C
:100F10000430A1004C088A0194200330A700E83077
:100F2000A3008A0115218A11031C782F4B3C8A11DA
:100F3000031D912F8030A100D4308A0143200A3054
:100F4000A600B4308A014D210F30B000A0308A01D4
:100F500069218A1578294230831621028A11831269
:100F6000031DB42F8A1578298A01652F08008A018C
:100F700015208030A1008A0143200A30A600C3302A
:100F80008A014D210430A1004C088A0194200330CD
:100F9000A700E830A3008A0115218A11031CC22F83
:100FA0004D3C8A11031DCB2FC101A6018A014A20A5
:100FB0008A11031CC22FC9008030A10094308A011D
:100FC00043203D308A01C62049088A019420203000
:100FD0008A01C62054308A01C6204B308A01C620BF
:100FE0000730B000D0308A0169218A1578298A013A
:100FF00015208030A1008A0143200A30A600D83095
:101000008A014D21C401023044028A150318502878
:101010008A0157228030A1000230A300440A8A01CD
:1010200021208316210883128A01C6200A30A600D7
:10103000E8308A014D213030831621020030031838
:1010400001308312C200831621088312AB003930AD
:101050008A010120C2058A1503193A283030831607
:1010600021028312A9004408463E8400290880001A
:101070008A154B288030A100C0308A0143200A30F5
:10108000A600EF308A014D210730B000D0308A0130
:1010900069218A1578290130C4078A15031C0328A1
:1010A0004608A900B6012908B500B0010A30AF0012
:1010B0008A01C321BB003208BC004708AA002A08E5
:1010C0003B07C800B6014808B500B0010A30AF00C0
:1010D0008A01C321CA003208CB0001304B028A15B5
:1010E000031C83288030A10094308A0143200A30F9
:1010F000A600FB308A014D210730B000D0308A01B4
:1011000069218A1578298030A10094308A01432012
:101110000B30A60007308A014D21A6014B08B20012
:101120004A08B1008A01972054308A01C6204B300A
:101130008A01C6208030A100D4308A0143200B30C0
:10114000A6000E308A014D218A01572241308316B4
:1011500021028A158312031DAF288A15BA20423056
:10116000831621028A158312031DB8288A1578294F
:101170008A15A4288A0115208030A1008A01432005
:101180000B30A60023308A014D210430A1004C0809
:101190008A0194200330A700E830A3008A011521BA
:1011A0008A15031CC5284D3C8A15031DCE28C10194
:1011B000A6018A014A208A15031CC528C900CB084C
:1011C0008A15031DE8284A0849028A150318FB28D6
:1011D0008030A10094308A0143200B30A6003430C7
:1011E0008A014D210730B000D0308A0169218A156B
:1011F00078298A15292955308A013D210330A70015
:10120000E830A3008A0115218A15031CFB28423C03
:101210008A15031D02290430A1004C088A0194207C
:101220000430A10046088A0194200430A100470838
:101230008A0194208030A10094308A0143200B3031
:10124000A60044308A014D210330B000E8308A0105
:1012500069218A0115208030A1008A0143200B30CA
:10126000A60055308A014D21C501450848028A155E
:10127000031C6829C401053044028A150318632938
:1012800085168030A10094308A0143200B30A600DF
:1012900064308A014D21A60145084802B100B2011F
:1012A000031CB2038A0197200B30A60070308A011C
:1012B0004D210330B000E8308A0169210130C407B4
:1012C0008A15031C3B290130C5078A15031C3529E3
:1012D00085128030A100D7308A0143200B30A60050
:1012E00078308A014D210730B000D0308A01692161
:1012F0008A0115208030A10082308A0143200B3002
:10130000A60086308A014D218030A100C7308A01B5
:1013100043200B30A60096308A014D218030A10079
:1013200094308A0143200B30A6009D308A014D2164
:101330008030A100D4308A0143200B30A600B030A9
:101340008A014D21CC018A01572C8A15A529470015
:1013500061007400650020004F00700065006E00A1
:10136000650064002E002E00000057006100690037
:101370007400200075006E00740069006C0020008D
:10138000470061007400650020006C006F0063007E
:101390006B00000045006E007400650072002000C4
:1013A00079006F007500720020007000610073000A
:1013B000730077006F00720064003A0000004D0077
:1013C0006100740063006800650064002E00000086
:1013D0004900440020004E006F003A002000000049
:1013E0004E006F0020004D00610074006300680033
:1013F000200046006F0075006E0064002E000000A3
:10140000570061006900740069006E0067002000E9
:1014100066006F007200200061000000720065002D
:101420006700690073007400650072006500640065
:10143000200063006100720064002E002E002E0068
:10144000000055006E0072006500670069007300BF
:1014500074006500720065006400200049004400CB
:101460002E0000004300610072006400200049006B
:10147000440020006E006F003A0020000000500081
:101480006C00650061007300650020005000720070
:10149000650073007300200066006F0072003A0060
:1014A000000041003A002000460069006C006C001A
:1014B00020004600750065006C00000042003A0004
:1014C0002000520065006300680061007200670040
:1014D000650020003200300054004B000000430043
:1014E0003A002000530068006F007700200042009F
:1014F00061006C0061006E00630065000000520036
:1015000065006300680061007200670065002000EC
:1015100079006F00750072002000630061007200A6
:1015200064002E002E00000041003A00200043001D
:101530006F006E006600690072006D0000004200DE
:101540003A0020004200610063006B00000052007E
:1015500065006300680061007200670069006E004A
:1015600067002E002E000000530065006E0064002E
:1015700069006E006700200053004D0053002E00EC
:101580002E002E00000059006F0075007200200030
:10159000630075007200720065006E007400200028
:1015A000620061006C0061006E0063006500000075
:1015B00045006E0074006500720020007100750027
:1015C00061006E0074006900740079003A00000048
:1015D00020004C00690074007200650000004500A6
:1015E000720072006F0072002E002E002E002E007E
:1015F0002100210000004F007600650072006600A7
:101600006C006F007700650064002E00000042004F
:1016100069006C006C003A002000000041003A00B4
:10162000200043006F006E006600690072006D00CC
:1016300020002000200042003A002000420061000B
:1016400063006B00000043006800610063006B00F2
:1016500069006E006700200042006C006E006300AD
:101660002E002E002E000000420061006C00610080
:101670006E006300650020006900730020004C00CC
:101680006F0077002E000000420061006C006100D6
:101690006E0063006500200055007000640061006A
:1016A0007400650064002E000000460069006C00B4
:1016B0006C006E00670020004600750065006C003D
:1016C0002E002E002E000000520065006D0061000B
:1016D00069006E0069006E0067003A00200000009B
:1016E00020004C00690074007200650020000000BA
:1016F00044006F006E0065002E002000540068005A
:1017000061006E006B0073002E0000004600750043
:1017100065006C0020004D0061006E0061006700F4
:1017200065006D0065006E007400000053007900D4
:101730007300740065006D00000041003A00200055
:1017400045006E00740065007200200079006F0093
:1017500075007200200063006100720064000000E8
:1017600042003A00200050006100730073007700CF
:101770006F007200640020004D006F00640065007F
:02178000000067
:02400E00AA3FC7
:00000001FF
