:100000008D288030A100FE305F2001305F207530E8
:10001000A40030307628A101A117AA00FE305F208D
:100020002A085F28A800861106118316861106117A
:100030000F30860583122808A0183C283E30A40003
:10004000803076203330A70050201330A400883051
:100050007620502064307520502064307520223086
:10006000A700502028303B200C303B2006303B209E
:10007000A01428083C282014A700201C4A28061198
:10008000033C031C4F284F200730A400D0307620BB
:10009000031408002014FE3C03195D280615201CDB
:1000A000201086150F3086052708F0398604861142
:1000B000A70E201850283230752028088928A11B47
:1000C000122808008001840AFF3E031D6228892847
:1000D000A601A500FF30A507031CA607031C89285D
:1000E0000330A400E33076206A28A401F43EA30084
:1000F000A409FE30031C7F28A30703187C28A3074C
:100100000000A40F7C2800002318862823188828C4
:10011000080083138312031308008301A001073032
:1001200083169F0005148514051585158710071083
:1001300087110711871306100717871620308400D0
:10014000603083126220A0308400203062200120C1
:100150002730AD001030AC00CA212E18C3288030E3
:10016000A1000B204E3012206F30122020301220C0
:10017000533012206D3012206F3012206B3012205D
:1001800065301220D7288030A1000B202D3012209E
:10019000533012204D3012204F3012204B3012209D
:1001A00045301220213012202D3012209521AE181A
:1001B000EC288030A100C0300B204E3012206F3070
:1001C0001220203012204630122069301220723066
:1001D000122065301220FF288030A100C0300B2093
:1001E0002D30122046301220493012205230122079
:1001F00045301220213012202D30122095218030E0
:10020000A10089300B2052301220463012202030BD
:100210001220633012206D301220643012203A30E8
:100220001220AF08031D27298030A100CA300B20FF
:100230004E3012204F3012204E3012204530122006
:100240002030122087100710871107110610013087
:100250002F02031D3C298030A100CA300B205530ED
:100260001220503012202030122012201220871429
:10027000071087150711572202302F02031D53293B
:100280008030A100CA300B20443012204F301220A1
:10029000573012204E3012202030122087100714C1
:1002A00087110715572203302F02031D6A2980305A
:1002B000A100CA300B204C301220453012204630AD
:1002C000122054301220203012208710071087157A
:1002D0000711572204302F02031D81298030A1000D
:1002E000CA300B20523012204930122047301220E1
:1002F000483012205430122087140710871107113C
:10030000572205302F02031D94298030A100CA30E6
:100310000B2050301220553012204D30122050301A
:100320001220203012200614A8281330AD00883087
:10033000AC00871EA22987140710871107115722C6
:10034000CA2199292730AD001030AC000330A60037
:10035000E8306920071FB329871407108715071194
:100360005722CA21AA29071BBC2987100710871109
:1003700007110614CA21B329061000302E180130C7
:10038000AB000030AE180130AB040319C929CA21F3
:10039000BD299529AF01013005180030AB000030B0
:1003A00085180130AB050319DF29051DD9292E1445
:1003B000DA292E10851DDE29AE14DF29AE1001309A
:1003C00005180030AB00013085180030AB05013056
:1003D00005190030AB05013085190030AB05031954
:1003E000F229AF01003005180130AB00013085184B
:1003F0000030AB05013005190030AB050030851920
:100400000130AB050319062A0130AF000030051892
:100410000130AB00013085180030AB050030051904
:100420000130AB05013085190030AB0503191A2ADC
:100430000230AF00003005180130AB0001308518E4
:100440000030AB05003005190130AB0500308519CF
:100450000130AB0503192E2A0330AF000030051818
:100460000130AB00003085180130AB0501300519B3
:100470000030AB05013085190030AB050319422A65
:100480000430AF00003005180130AB000030851893
:100490000130AB05013005190030AB05003085197E
:1004A0000130AB050319562A0530AF000800871745
:1004B0002D08A4002C08762087132C08203CA300CC
:1004C0002D08031C013E4E3CA400230876200800A2
:0204D000682A98
:02400E008A0026
:00000001FF
