:02000000FA28DC
:0C000600831207108710071187110800F3
:0C00120083122F088A002E0882000800CC
:10001E0083120313D801D9011030DC00510DD80D15
:10002E00D90D5408D8025508031C550FD9020318D0
:10003E0027285408D80755080318550FD907031059
:0A004E00D00DD10DDC0B15280800C1
:1000580083123608223E84000008B600B61B3628F4
:1000680085103728851405140510361B3D28851082
:100078003E28851405140510B61A4428851045280D
:10008800851405140510361A4B2885104C2885143C
:1000980005140510B619522885105328851405141F
:1000A80005103619592885105A2885140514051085
:1000B800B6186028851061288514051405103618AF
:1000C800672885106828851405140510051505117D
:0400D8008510080087
:1000DC00E8308312D4000330D5003008D00031084A
:1000EC00D1000F205008B200E830D4000330D50006
:1000FC003008D0003108D1000F205808D000590822
:10010C00D1006430D4000030D5000F205008B3006B
:10011C006430D4000030D5003008D0003108D10054
:10012C000F205808D0005908D1000A30D4000030F4
:10013C00D5000F205008B4000A30D4000030D50090
:10014C003008D0003108D1000F205808D0005908D1
:10015C00D1005008B5003208B6002C20071403302B
:10016C00DC009730DD00DD0BB928DC0BB928000072
:10017C00000003203308B6002C2087140330DC0069
:10018C009730DD00DD0BC828DC0BC8280000000010
:10019C0003203408B6002C2007150330DC00973000
:1001AC00DD00DD0BD728DC0BD72800000000032076
:1001BC003508B6002C2087150330DC009730DD00A5
:1001CC00DD0BE628DC0BE62800000000032008000D
:1001DC0009208A110A128000840AAE0A0319AF0A98
:0801EC00D003031DEE280800FA
:1001F4000A308312A000A101C030A200F930A3008C
:10020400A430A400B030A5009930A6009230A70015
:100214008230A800F830A9008030AA009030AB00EA
:100224008316910107308312990083168501831286
:1002340085018316870183128701AC01AD0100306B
:100244002D02031D2729FA302C0203183229200815
:10025400B0002108B1006E20AC0A0319AD0A2129AF
:100264000130A002031CA10300302102031D3C291C
:100274000030200203184029A001A1011F294129AF
:02400E0032304E
:00000001FF
