:020000004B2C87
:0C000600000000000000000000000800E6
:10001200243083120313FC00B530FD00FD0B0F28C2
:0A002200FC0B0F280000000008008E
:0E002C00533083120313FD00FD0B1A28080049
:10003A0083160313A81B24288312861326288312E7
:10004A0086178316281B2C28831206132E28831240
:10005A0006178316A81A34288312861236288312A2
:10006A0086168316281A3C28831206123E28831203
:10007A000616641842280615432806118615032019
:10008A0086118316A8194C28831286134E288312C8
:10009A0086178316281954288312061356288312A2
:1000AA0006178316A8185C28831286125E28831204
:1000BA008616831628186428831206126628831265
:1000CA00061664186A2806156B2806118615032079
:0E00DA008611641C7228092073281620080065
:1000E8007B15FB1F7E280130F300F201F101F001BE
:0800F800FA0DF20CFF300800C4
:100100008316031398188628000080282708831276
:04011000990008004A
:1001140083120313641083162708A8001D20641497
:020124000800D1
:10012600FB14FB1F9D28FF30F300F200F100F000E6
:08013600FA0DF20CFF30080085
:0E013E00F201F101F001F801F30100300800B8
:08014C00FA1FF2130030080055
:10015400243083120313FD00FD0BAE2800000800B9
:1001640083160313A50183126F0884000008831605
:10017400A4002408003A0319CC282408A7008020EE
:100184008316A50A250883126F07840000088316C6
:06019400A400BB280800D6
:10019A00831603130710831207107530FC00E13031
:1001AA00FD00FD0BD628FC0BD62807143130FD00C4
:0E01BA00FD0BDD28000000008316071408006E
:1001C80083120313B2014230FD00FD0BE928000041
:1001D8000718FB288530FD00FD0BF028071CF628C2
:1001E8000130B2004230FD00FD0BF8280000080085
:1001F8007C183229FC1803297C195129FC28A001F4
:100208007208031D23297108F2007008F1007808AC
:10021800F000F801A0157208031D23297108F200E7
:100228007008F100F001A01120167208031D23299F
:100238007108F200F101A015720803194529200878
:10024800F302031D031C49290310F21B3229F80D80
:10025800F00DF10DF20DF30B292949297B1B701CB8
:100268004D29F81F4D29F00A0319F10A0319F20A5A
:10027800031D4D29F20CF10CF00CF30A0319512956
:100288004D290130FC009F2054290230FC007420C5
:1002980054290430FC00A62054290830FC0093207F
:0402A800000008004A
:1002AC006829803083160313A4007B29C030A40076
:1002BC007B299430A4007B29D430A4007B29803086
:1002CC00A4007B29831603132408013A0319572928
:1002DC002408023A03195C292408033A03195F29FC
:1002EC002408043A03196229652925038312F000B6
:1002FC00831624088312F00770088316A400831257
:10030C0070088316A8001D206410EF016F08831677
:10031C0026078400000803199D2983126F08831691
:10032C00260784000008A7008A20EF0A8C29831274
:04033C00641408003D
:0E0340008312031363088A006208820008001B
:06034E00FB15FF30080062
:1003540083120313F301083073020318E329071807
:10036400B429B1293130FD00FD0BB629000000008D
:100374000718CE297308073CF0007008F10001301B
:10038400F00071080319CA29F00D7010FF3EC4294A
:10039400F0097008F205E1297308073CF0007008C1
:1003A400F1000130F00071080319DC29F00D701020
:1003B400FF3ED6297008F204071CE129DE29F30A5E
:0803C400AD297208F0000800E9
:1003CC007B14FB1FF129F201FA1FFF30F200F10040
:0A03DC00F000FA0DF20CFF300800EB
:1003E60083120313F8010830FC00700DF80D740831
:1003F600F8020318002AF8070310F00DFC0BF82981
:020406000800EC
:10040800643083120313F4006C08F000F3213030D9
:10041800F00770088316A00064308312F4006C089B
:10042800F000F3217808F0000A30F400F3213030AE
:1004380070078316A1000A308312F4006C08F000DC
:10044800F3217808F000303070078316A200A3016A
:1004580083126A088316A40083126B088316A5000A
:08046800A030A6005621080097
:1004700083120313FB01FC01FA0173080319652AB7
:10048000FA13F2178630F302F31B492A0319492A9B
:10049000672AF309F30A08307302031C562AF30093
:1004A000F20DF2017308031D03105D2A730803198E
:1004B0005D2A0310F20CF30B592A7B1B721C652A70
:1004C000031C652AF20A03196C2AF1016F2A7B14B6
:1004D000FB1F722AF101722A0130FC00742A0030DD
:1004E000FC00742AFF30FC00FC080319782AE6217E
:0604F0007208F000080094
:1004F600831203139F01C0309F046A08F000F00DB9
:100506007010F00D7010F00D701070089F041F141D
:10051600AA201F151F1D912A00008D2A1F101E08D4
:06052600F000F1010800E5
:10052C00643083120313F4006A08F000F3213030B6
:10053C00F0077008EB006430F4006A08F000F32157
:10054C007808F0000A30F400F32130307007EC002A
:10055C000A30F4006A08F000F3217808F00030301B
:0E056C007007ED00EE016B30EF00B2200800CA
:10057A00831203137008F800FB01FC019E30F3009C
:10058A00FA01F201F101F0010230FC00FC2008003E
:10059A00831203137408003A031DE82A7508003A07
:1005AA00031DE82A7608003A031DE82A7708003A6C
:1005BA00031DE82AFF30F000FF30F1007F30F2001F
:1005CA00FF30F300832B8312031377080319772B69
:1005DA00730803197A2B720876068039FA00F21723
:1005EA00F617A0017208F8007108FC007008FD00F7
:1005FA007408FD027508031C750FFC027608031CBB
:10060A00760FF802F801FC01FD01031C132B0310FD
:10061A00F20CF10CF00CF80C0130A0007708F30290
:10062A00031C1D2B7E302007F30703187D2B222B7A
:10063A007E302007F307031C802B1830FA07FD0DC4
:10064A00FC0DF80DF00DF10DF20DA00D7408F0027D
:10065A007508031C750FF1027608031C760FF20267
:10066A00760DA004201C3B2B7D14462B7408F00742
:10067A0075080318750FF10776080318760AF2074A
:10068A007D10FA031F307A05031D242B7B1B7D1C6A
:10069A006D2B0310F00DF10DF20DA00D7408F00290
:1006AA007508031C750FF1027608031C760FF20217
:1006BA00760D20040139FD070318FC0A0319F80A0C
:1006CA00031D6D2BF80CFC0CFD0CF30A03197D2B92
:1006DA00FA1FF8137808F2007C08F1007D08F00090
:1006EA000030822B0130A721822B02309F20822BDF
:0E06FA0004309320822B08307420000008008A
:100708008316031398169030831298008316871760
:10071800071383128C1E932B1A08F0008D2B0800E8
:100728008316031386110611061286120613861302
:1007380083128611061186130613861206120920E3
:100748000920092086160616861503208611092019
:100758008615032086110920861503208611092095
:100768000612861503208611092086150320861196
:100778008612861786150320861109208613061609
:100788008615032086110612861503208611092076
:100798008615032086110616861503208611092062
:1007A8000612861503208611861706178616061662
:0C07B80086150320861109206414080037
:1007C400A0218A110A128000840AE20A0319E30AAA
:0807D400F003031DE22B0800F5
:1007DC00CD20E4203208013A031D132CAA21700805
:1007EC00EB00AA21AA217008EA00AA21AA216A0812
:1007FC006B07F200F3010318F30A00307306031DB4
:10080C00092C72087006031D132C6B08F100F00103
:0C081C006A08F0070318F10A132C08000A
:10082800262C803083120313EA00392CC030EA00EA
:10083800392C9430EA00392CD430EA00392C803035
:10084800EA00392C831203136A08013A0319152C9C
:100858006A08023A03191A2C6A08033A03191D2C6C
:100868006A08043A0319202C232C6B03F0006A0849
:10087800F0077008EA00641470088316A8001D20A9
:0E08880064106C088316A8001D20641408007C
:100896002C25942301308316A8001D200C308316C6
:1008A600A8001D2081308316990018158423013075
:1008B6008316A4000130A5002330A600562102307D
:1008C600EA000430EB00DF30EC001424023083161B
:1008D600A4000530A5002130A6005621023083165B
:1008E600A4000930A5005D30A6005621023083160B
:1008F600A4001030A5005B30A6005621EE23700838
:10090600E5007108E6007108F200F3017208E900DB
:100916007008E8000130EA007B227008E7007008E2
:10092600FF3CF0007008E700BD223330F40033309E
:10093600F5002330F6008030F700CD22382270080B
:10094600E7000D30FB00AF30FC00B630FD00FD0BBC
:10095600AA2CFC0BAA2CFB0BAA2C00000130EA00E7
:100966000B30EB006908EC0004220230EA0001308B
:10097600EB006808EC0004220230EA000D30EB00C0
:100986006708EC0004224330EF00B22083126908A6
:10099600EA00962233308312EF00B22083126808F1
:1009A600EA009622B030A70080205130EF00B22036
:1009B60083126708EA0096224E308312EF00B220B7
:0409C600812CE42C70
:100A580021308400413083120313F000EA30E200B1
:080A68000430E300E223080062
:0409D4004334003474
:1009D800483475346D346934643469347434793422
:0E09E8003A34203420342034203425340034B6
:0209F6000034CB
:1009F80025340934543465346D34703465347234B4
:100A0800613474347534723465343A3420340034C3
:100A1800483475346D3469346434693474347934E1
:060A28003A3420340034D2
:060A2E0025340A340034F7
:100A3400433409344C3469346734683474343A3494
:040A44002034003426
:040A4800253400341D
:0A0A4C004C34443452343A34003480
:02400E000A00A6
:00000001FF
