:1000000012C0189518951895189518951895189563
:100010001895189518951895189518951895189578
:100020001895189518958FE58DBFC8E3E0E24E2E20
:1000300084E08EBFD4E0F4E05F2EA89584B7082E4C
:10004000877F84BF88E1992781BD91BDEEEFF3E002
:10005000A0E6B0E088278D933197E9F766248FEF0B
:1000600087BB8FEF84BB8FEF81BB80E090E0A5E67C
:10007000B0E08D939C93A5E6B0E00D911C910F34F8
:1000800050E0150710F009F0B9C080E080936400DB
:1000900000916400033010F009F0A2C0A89AA99A58
:1000A000A998AA9AAA9880E090E0A1E6B0E08D9382
:1000B0009C9380E080936000009160000F3110F00D
:1000C00009F087C00091610040916500040FA7E628
:1000D000B0E00C93EEEFF1E0A7E6B0E08C91992749
:1000E000A8E6B0E014D1A8E6B0E08C9180958C939E
:1000F00080E08093630000916300073010F009F006
:1001000018C091E0A8E6B0E0EAD0A8E6B0E08C9193
:1001100080FBA8E3B0E08C9182F98C93C09AC098E0
:10012000C19AC198A3E6B0E08C918F5F8C9308F4DC
:10013000E2CFA1E6B0E0C3D000916100409165003C
:10014000040FA7E6B0E00C93EEEFF1E0A7E6B0E015
:100150008C919927A9E6B0E0DAD0A9E6B0E08C91BD
:1001600080958C9380E0809363000091630007305A
:1001700010F009F018C091E0A9E6B0E0B0D0A9E60F
:10018000B0E08C9180FBA8E3B0E08C9183F98C9374
:10019000C09AC098C19AC198A3E6B0E08C918F5FD5
:1001A0008C9308F4E2CFA1E6B0E089D0EF93FF93FF
:1001B000E6EFF0E08BD0FF91EF91A898A99AA9986B
:1001C000AA9AAA98A0E6B0E08C918F5F8C9308F46D
:1001D00073CFA4E6B0E08C918F5F8C9308F458CF76
:1001E000A5E6B0E00D911C9142E050E0040F151F10
:1001F000A5E6B0E00D931C9308F03DCF36CF00008C
:1002000000000000000000000000000000000000EE
:1002100000000000000000000000000000000000DE
:10022000000F8011C020C020402040304030801896
:10023000000F0000000000000000000000000000AF
:10024000383078787878C07880390033001E000024
:10025000000000000000000000000000000000039B
:10026000000E380C381C701C603CE034806300C009
:100270000080000000000000000000000000C0003E
:10028000C003000EE01CF019F031F0303030603067
:100290006018800F00000000000000000000000057
:1002A000000000000000000000000000000000004E
:1002B0000000000000000000000000000000ED91C0
:1002C000FC91EF5FFF4FFC93EE9308953197F1F7A8
:1002D0000895689462F80895E89462F8089590305B
:1002E00029F08C9186959A95E9F78C930895C89595
:1002F00031960020089591E005C092E003C094E09B
:1003000001C098E0F4DF0D929A95E1F70895E80FA7
:04031000F91FF1CF11
:00000001FF
