:10000000FE288313B200B301B30D003033028030F9
:1000100003193202031C1028AF1B10282030B2072E
:100020003208840008008030A100FE30AB2001308F
:10003000AB207530A9003030DF28A101A117B10035
:10004000FE30AB203108AB28AC0025080319F2289C
:100050002C08840000080319F228AB20AC0AA50381
:100060002528AF00861106118316861106110F3060
:10007000860583122F08A0185B283E30A900803027
:10008000DF203330AE006F201330A9008830DF202E
:100090006F206430DE206F206430DE202230AE001E
:1000A0006F2028305A200C305A2006305A20A014D5
:1000B0002F085B282014AE00201C69280611033C81
:1000C000031C6E286E200730A900D030DF200314F7
:1000D00008002014FE3C03197C280615201C201063
:1000E00086150F3086052E08F03986048611AE0E6F
:1000F00020186F283230DE202F08F22898181812A6
:1001000018162308A8002708A900AA01AB0188280F
:10011000892800008C1AA328FF30AA07031CAB070C
:10012000031CA807031CA907031CF2282A0F872811
:100130002B0F88286430AA00AB0189289818181260
:1001400018168C1EA1281A080314F2280C1EA628C3
:1001500099000314F228A11B31282119A6280800B0
:10016000A500A201250803178D0003132608031715
:100170008F00C3200319F228AB20A50A0319A60A91
:10018000A20FB228F228831603170C1400000000F7
:1001900083120C08F2288001840AFF3E031DCB283D
:1001A000F228AB01AA00FF30AA07031CAB07031C0F
:1001B000F2280330A900E330DF20D328A901F43E60
:1001C000A800A909FE30031CE828A8070318E528A1
:1001D000A8070000A90FE52800002818EF28281814
:1001E000F12808008313831203130800AE002408CB
:1001F000AF002E08240701200008F228830183168F
:100200000C30990020309800831290309800A001A3
:10021000073083169F0085108510831285108F305C
:1002200083168700831287012030840060308A01A2
:10023000CB20A030840060308A01CB208A011320BB
:100240003030CA003130CB003730CC003230CD00F6
:100250003030CE00CF003530D0003430D1003530D2
:10026000D2003830D3003430D4008030A1008A016D
:100270001D200330A600EB308A01B0208A11ED2248
:100280008A011320071287128A11BC228A110718CB
:10029000542A8A11A6225730B6006130B700743054
:1002A000B8006530B9007230BA002030BB006C3045
:1002B000BC006530BD007630BE006530BF006C30DC
:1002C000C0002030C1007430C2006F30C300C400D1
:1002D0002030C5004C30C6004F30C7005730C80032
:1002E0002E30C9008A117C238A0113208A115622DC
:1002F0008A110718542A071287128A11BC228030EB
:10030000A100C7308A011D200330A600FC308A01FD
:10031000B0208A11071C8E298A11542A8A11871845
:10032000522A8A11A6225730B6006130B7007430C5
:10033000B8006530B9007230BA002030BB006C30B4
:10034000BC006530BD007630BE006530BF006C304B
:10035000C0002030C1004C30C2004F30C3005730C5
:10036000C4002E30C5008A117C238A0113208A1113
:100370008718522A8A11BC228030A100C7308A0116
:100380001D200430A60004308A01B0208A11871C89
:10039000CB298A11522A8A110719502A8A11A622BA
:1003A0005730B6006130B7007430B8006530B9001E
:1003B0007230BA002030BB006C30BC006530BD002C
:1003C0007630BE006530BF006C30C0002030C10008
:1003D0004D30C2006930C3006430C400C5006C30C9
:1003E000C6006530C7002E30C8008A117C238A0100
:1003F00013208A110719502A8A11BC228030A100CB
:10040000C7308A011D200430A6000C308A01B020BC
:100410008A11071D0D2A8A11502A8A1107194E2A9E
:100420008A11A6225730B6006130B7007430B80088
:100430006530B9007230BA002030BB006C30BC00AF
:100440006530BD007630BE006530BF006C30C00046
:100450002030C1004830C2006930C3006730C4009A
:100460006830C5002E30C6008A117C238A01132013
:100470008A1187194E2A8A11BC228030A100C73008
:100480008A011D200430A60014308A01B0208A1190
:10049000871D4C2A8A114E2A8A01382A8A01F92995
:1004A0008A01B7298A0178298A0142298030A1006E
:1004B0008A011D200430A6001C308A01B020D6011C
:1004C000D501D6088A11031D812A0A3055028A11E6
:1004D0000318812A8030A100C0308A011D20043019
:1004E000A6002D308A01B020071687120330AB001A
:1004F000E8308A01D220D50A0319D60A8A11031DD1
:10050000612AD601D501D6088A11031DA32A0A3013
:1005100055028A110318A32A8030A100C0308A0135
:100520001D200430A6003E308A01B0200712871635
:100530000330AB00E8308A01D220D50A0319D60A6D
:100540008A11031D832A8A01132008008A011320BF
:100550001430A800363084008001840AA8038A1170
:10056000031DAC2A8030A1008A011D200430A600A2
:100570004F308A01B02008008030A1008A011D2080
:100580000430A6001C308A01B0208030A100C030A9
:100590008A011D200430A6005E308A01B0200030A0
:1005A00007180130B500003087180130B50500305C
:1005B00007190130B505003087190130B5058A11DA
:1005C0000319EC2A8030A100C7308A011D200430B5
:1005D000A60066308A01B020080041308A01A620BA
:1005E00054308A01A6200D308A01A6200A308A01E3
:1005F000A6200330A700E830A3008A017E208A11DC
:10060000031CED2A4F3C8A11031DFD2A8A017E201E
:100610008A11031CED2A4B3C8A11031DFD2A41302F
:100620008A01A62054308A01A62045308A01A620DE
:1006300030308A01A6200D308A01A6200A308A01B6
:10064000A62041308A01A62054308A01A6202B30F2
:100650008A01A62043308A01A6204D308A01A620B7
:1006600047308A01A62046308A01A6203D308A0103
:10067000A62031308A01A6200D308A01A6200A303A
:100680008A01A62041308A01A62054308A01A62082
:100690002B308A01A62043308A01A6204E308A01E1
:1006A000A6204D308A01A62049308A01A6203D307F
:1006B0008A01A62031308A01A6202C308A01A6208A
:1006C00032308A01A6202C308A01A62030308A01DF
:1006D000A6202C308A01A62030308A01A6202C309A
:1006E0008A01A62030308A01A6200D308A01A6207A
:1006F0000A308A01A620080041308A01A620543021
:100700008A01A6202B308A01A62043308A01A62028
:100710004D308A01A62047308A01A62046308A0142
:10072000A6203D308A01A62031308A01A6200D3056
:100730008A01A6200A308A01A620C8308A01D12069
:1007400041308A01A62054308A01A6202B308A012C
:10075000A62043308A01A6204D308A01A6204730CA
:100760008A01A62053308A01A6203D308A01A620A6
:10077000C8308A01D12022308A01A6200430A1008D
:100780000B30A500AD014A308A01242022308A01B5
:10079000A6200D308A01A6200A308A01A620C83082
:1007A0008A01D1200430A1001430A500AD013630FB
:1007B0008A0124201A308A01A6200D308A01A62041
:1007C0000A308A01A6201330AB0088308A01D2207B
:1007D00008008A01E92B43006F006E006E0065007F
:1007E0006300740069006E0067002000470053003A
:1007F0004D002E002E00000054006F006F002000FE
:100800004C004F00570000004C004F0057002000E4
:1008100020002000200000004D00690064006400FA
:100820006C00650020000000480069006700680057
:1008300020002000200000005700610074006500C7
:10084000720020007200650070006F00720074007A
:10085000200053005900530000004D006F00740049
:100860006F0072003A00200043006C006F006300CC
:100870006B00770069007300650000004D006F0099
:1008800074006F0072003A00200041006E00740096
:1008900069002D0043006C006B0020000000530035
:1008A00065006E00640069006E0067002000530060
:1008B0004D0053002E002E002E0000004C0065005D
:1008C000760065006C003A00200000004E006F00CA
:0C08D0006E0065002000200020000000E9
:02400E00AA3FC7
:00000001FF
