:10000000DD29AC01B001AF000630A80030082C0299
:10001000031D0C282F082B0204300318013003198C
:1000200002302805031D0130D9298030A100FE309F
:100030004221013042217530AC0030307629A101D7
:10004000A117B800B808031DB803FE304221A30869
:1000500003192C28230B2E2880303F282308023A2E
:10006000031D3428C0303F282308033A031D3A28D3
:1000700094303F282308043A031D4028D430A300BD
:10008000380823074229A101A117B800FE304221F8
:1000900038084229B101B201B301B401A8124721C5
:1000A000031C0800D33E0319A8162D3EC63E0318B4
:1000B0004F280A3E031C4F28AF00AE01AD01AC0132
:1000C0000A30AB00A1212F082B07B1002C08B20089
:1000D000030103180130B2072D08B3000301031810
:1000E0000130B3072E08B400030103180130B40730
:1000F000A603031984284721031C0800C63E0318E1
:1001000084280A3E03185C28A81E9128B109B20968
:10011000B309B409B10A0319B20A0319B30A0319DE
:10012000B40A31080314D929A601B100B201A01103
:1001300026080319A0150530A5002730B00010309F
:10014000AD200330B000E830AD20B0016430AD2008
:10015000B0010A30AD203108B428AF003208AC003D
:100160003108AB0085212B08AB00A5030319A011B2
:1001700026080319BE2825020318C5282B08031DCD
:10018000A011A019C528303E42290800B6008611EA
:1001900006118316861106110F3086058312360864
:1001A000A018F0283E30AC00803076213330B50006
:1001B00004211330AC00883076210421643075218D
:1001C0000421643075212230B50004212830EF204D
:1001D0000C30EF200630EF20A0143608F028201451
:1001E000B500201CFE280611033C031C0329032133
:1001F0000730AC00D0307621031408002014FE3CF8
:10020000031913290615201C201086150F308605AA
:100210003508F039860400008611B50E000020185C
:100220000429323075213608D92998181812181661
:100230002308AB002708AC00AF01B0011F2920291B
:1002400000008C1A3A29FF30AF07031CB007031CCB
:10025000AB07031CAC07031CD9292F0F1E29300F35
:100260001F29FA30AF00B00120299818181218166B
:100270008C1E38291A080314D9290C1E3D2999000F
:100280000314D929A11BC62821193D290800C1083A
:1002900003191529410303193529A500A2012508D1
:1002A00003178D000313260803178F00602103191D
:1002B000D9294221A50A0319A60AA20F4F29D92933
:1002C000831603170C140000000083120C08D929B0
:1002D000B001AF00FF30AF07031CB007031CD929E2
:1002E0000330AC00E63076216A29AC01FC3EAB005D
:1002F000AC09031C8129FF300000AB0703187C29DF
:10030000AB070000AC0F7B290800B201B10110302F
:10031000B5002C0DB10DB20D2F08B1023008031C31
:10032000300FB20203189B292F08B10730080318B9
:10033000300FB2070310AB0DAC0DB50B89292B089C
:1003400008002030B500BD01BE01BF01C00103108F
:100350002B1CB8293108BD0732080318320FBE071D
:1003600033080318330FBF0734080318340FC007CE
:10037000C00CBF0CBE0CBD0CAE0CAD0CAC0CAB0C71
:10038000B50BA72908001030BA00AC01AB01B60CC0
:10039000B50C031CD1292F08AB0730080318300F08
:1003A000AC07AC0CAB0CB20CB10CBA0BC7293108C2
:1003B000080083138312031308008301831681301E
:1003C000990024309800831290309800A0010730E3
:1003D00083169F0083128A011520831606140716C0
:1003E000871605108512831285120510C901C801F0
:1003F0003130D0003230D1003330D2003430D3002D
:100400003130D4003230D5003330D6003430D7000C
:100410004130D8004230D9004330DA004430DB00AC
:100420004130DC004230DD004330DE004430DF008C
:100430004130E0004230E1004330E2004430E3006C
:100440003130E4003230E5003330E6003430E7008C
:100450003130E8003230E9003330EA003430EB006C
:100460004130EC004230ED004330EE004430EF000C
:100470003130F0003230F1003330F2004130F3001F
:100480003430F4003530F5003630F6004230F700F5
:10049000FF30CF00831605168515051585148711C5
:1004A00007118710071083128A151C218316A101DA
:1004B000A0018312871507118710071001308A01E8
:1004C00068218A11051E6C2A01308316A000831250
:1004D0008A1125238A118B2A8A11851D772A0230D9
:1004E0008316A00083128A1125238A118B2A8A1170
:1004F000051D822A03308316A00083128A1125234A
:100500008A118B2A8A11851C8B2A04308316A0003D
:1005100083128A11252387110715871007100130D0
:100520008A0168218A11051E9D2A05308316A000C4
:1005300083128A1125238A11BC2A8A11851DA82AB3
:1005400006308316A00083128A1125238A11BC2A43
:100550008A11051DB32A07308316A00083128A1161
:1005600025238A11BC2A8A11851CBC2A08308316CF
:10057000A00083128A112523871107118714071001
:1005800001308A0168218A11051ECE2A093083169E
:10059000A00083128A1125238A11ED2A8A11851D54
:1005A000D92A0A308316A00083128A1125238A11C2
:1005B000ED2A8A11051DE42A0B308316A000831250
:1005C0008A1125238A11ED2A8A11851CED2A0C3007
:1005D0008316A00083128A11252387110711871023
:1005E000071401308A0168218A11051EFF2A0D3087
:1005F0008316A00083128A1125238A111E2B8A11CB
:10060000851D0A2B0E308316A00083128A11252324
:100610008A111E2B8A11051D152B0F308316A00081
:1006200083128A1125238A111E2B8A11851C1E2BE9
:1006300010308316A00083128A1125238316A00888
:100640008A1183120319592A08008316A0088A11F7
:100650008312031D312B8316A101831208008A1116
:10066000552C0130831620028A118312031D432B5F
:1006700031308316A10001308312B000F4308A01BA
:1006800069218A11552C0230831620028A118312A7
:10069000031D552B32308316A10001308312B000A8
:1006A000F4308A0169218A11552C03308316200207
:1006B0008A118312031D672B33308316A10001308A
:1006C0008312B000F4308A0169218A11552C04305C
:1006D000831620028A118312031D792B4130831661
:1006E000A10001308312B000F4308A0169218A111F
:1006F000552C0530831620028A118312031D8B2B83
:1007000034308316A10001308312B000F4308A0126
:1007100069218A11552C0630831620028A11831212
:10072000031D9D2B35308316A10001308312B000CC
:10073000F4308A0169218A11552C07308316200272
:100740008A118312031DAF2B36308316A1000130AE
:100750008312B000F4308A0169218A11552C0830C7
:10076000831620028A118312031DC12B4230831687
:10077000A10001308312B000F4308A0169218A118E
:10078000552C0930831620028A118312031DD32BA6
:1007900037308316A10001308312B000F4308A0193
:1007A00069218A11552C0A30831620028A1183127E
:1007B000031DE52B38308316A10001308312B000F1
:1007C000F4308A0169218A11552C0B3083162002DE
:1007D0008A118312031DF72B39308316A1000130D3
:1007E0008312B000F4308A0169218A11552C0C3033
:1007F000831620028A118312031D092C43308316AD
:10080000A10001308312B000F4308A0169218A11FD
:10081000552C0D30831620028A118312031D1B2CC8
:100820002A308316A10001308312B000F4308A010F
:1008300069218A11552C0E30831620028A118312E9
:10084000031D2D2C30308316A10001308312B0001F
:10085000F4308A0169218A11552C0F308316200249
:100860008A118312031D3F2C23308316A10001300F
:100870008312B000F4308A0169218A11552C10309E
:10088000831620028A118312031D512C44308316D3
:10089000A10001308312B000F4308A0169218A116D
:1008A000552C8316A1018312080008008A11BF2469
:1008B0008A1106185D2C8A11F7248A11061C622CF5
:1008C0008A11DF248A11071E8F2C8A0115206830B7
:1008D0008A013D218A013D218A013D218A013D2174
:1008E0008A11071E7E2C8030A1008A014320093026
:1008F000A60036308A014D218A01702C8030A1007B
:10090000C0308A0143200930A60047308A014D21BA
:100910000F30B000A0308A0169218A151C298A1184
:10092000871EBC2C8A0115206C308A013D218A016A
:100930003D218A013D218A013D218A11871EAB2C70
:100940008030A1008A0143200930A60058308A0176
:100950004D218A019D2C8030A100C0308A014320A6
:100960000930A60047308A014D210F30B000A03079
:100970008A0169218A151C2908008A01562C013038
:10098000A700F430A3008A0115218A11031CDE2C74
:10099000C300483043028A11031DD02C8A113E2621
:1009A000533043028A11031DD72C8A113E26503042
:1009B00043028A11031DDE2C8A110F250800C40191
:1009C000333044028A110318F62C05140330AC00AE
:1009D00020308A01762105104B30AC0000308A01AE
:1009E00076210130C4078A11031CE02C0800C401E1
:1009F000333044028A1103180E2D05140730AC0061
:100A0000D0308A01762105104630AC0050308A0182
:100A100076210130C4078A11031CF82C08008A01D2
:100A200015208030A1008A0143200930A6006830DB
:100A30008A014D21C401083044028A1103183B2D5C
:100A40008A0156224408783E8400831621088000DB
:100A500080308312A1000230A300440A8A012120C1
:100A60004408783E840000088A01C6200130C4078B
:100A70008A11031C1B2D8A011520C5010530450272
:100A80008A1103182C2EC401083044028A1103185D
:100A9000272E0130C508031D0030C2004408503E17
:100AA00084000008A9004408783E84000008AA00D9
:100AB00029082A02031D0130C2058A110319622D7B
:100AC0008A11272E013045020130031D0030C2007B
:100AD0004408583E84000008A9004408783E840079
:100AE0000008AA0029082A02031D0130C2058A1144
:100AF00003197C2D8A11272E023045020130031D77
:100B00000030C2004408603E84000008A900440888
:100B1000783E84000008AA0029082A02031D01303B
:100B2000C2058A110319962D8A11272E033045021A
:100B30000130031D0030C2004408683E84000008F4
:100B4000A9004408783E84000008AA0029082A0267
:100B5000031D0130C2058A110319B02D8A11272EF9
:100B6000043045020130031D0030C2004408703ECD
:100B700084000008A9004408783E84000008AA0008
:100B800029082A02031D0130C2058A110319CA2D42
:100B90008A11272E073044028A110318D12D8A1199
:100BA000222EC5088A11031DD72D0130CC0001303B
:100BB00045028A11031DDE2D0230CC0002304502B1
:100BC0008A11031DE52D0330CC00033045028A1144
:100BD000031DEC2D0430CC00043045028A11031DA6
:100BE000F32D0530CC00483043020130031D0030A6
:100BF000C2004C084D02031D0130C2058A110319C1
:100C0000032E8A11272E8030A1008A01432009304B
:100C1000A60077308A014D218030A100C0308A01C2
:100C200043200930A60080308A014D210230A60001
:100C30004C088A0195200730B000D0308A01692124
:100C40008A11B3260130C4078A11031C442D0130D8
:100C5000C5078A11031C3E2DCC018030A1008A01FA
:100C600043200930A60088308A014D210730B000AA
:100C7000D0308A0169218A151C2908008A011520B3
:100C80008030A1008A0143200930A60098308A01F3
:100C90004D218030A100C0308A0143200930A600D8
:100CA000A6308A014D218A013521493C8A11031D54
:100CB000532E8A013521443C8A11031D532EA9016C
:100CC0008A01352129084E3E84001A088000A90AAD
:100CD0002908023C8A11031D602E8A0115204F0845
:100CE000A900303029028A11031D822E8030A10014
:100CF000C0308A0143200930A600B7308A014D2157
:100D00008A11AB2E4F08A90030302902CC00803068
:100D1000A100C0308A0143200930A600C6308A01F4
:100D20004D210230A6004C088A01952020308A010E
:100D3000C6208A01C6204C08CD000730B000D03054
:100D40008A016921483043028A11031DA92E8A01B4
:100D50000F258A11B3260730B000D0308A016921EF
:100D60008A151C2908008A0115208030A1008A01FB
:100D700043200930A600D3308A014D218030A100E4
:100D8000C0308A0143200930A600E0308A014D219D
:100D90008A0156224130831621028A118312031DD3
:100DA000D32E8A1197274230831621028A1183128B
:100DB000031DDC2E8A11F0264330831621028A118E
:100DC0008312031DE52E8A11572744308316210212
:100DD0008A118312031DEE2E8A151C298A01C82E42
:100DE0008A0115208030A1008A0143200930A60025
:100DF000F0308A014D218030A100C0308A014320AB
:100E00000A30A60001308A014D218A015622413064
:100E1000831621028A118312031D4B2F8030A100FB
:100E2000C0308A0143200A30A60012308A014D21C9
:100E300052308A013D210330A700E830A3008A0127
:100E400015218A11031C182F493C8A11031D1F2FDD
:100E50000430A1004C088A0194200330A700E83038
:100E6000A3008A0115218A11031C182F4B3C8A11FB
:100E7000031D312F8030A100C0308A01432009308A
:100E8000A60047308A014D210F30B000A0308A0102
:100E900069218A151C294230831621028A11831286
:100EA000031D542F8A151C298A01052F08008A0169
:100EB00015208030A1008A0143200A30A60023308B
:100EC0008A014D210430A1004C088A01942003308E
:100ED000A700E830A3008A0115218A11031C622FA4
:100EE0004D3C8A11031D6B2FC101A6018A014A20C6
:100EF0008A11031C622FC9008030A100C0308A0112
:100F000043203D308A01C62049088A0194202030C0
:100F10008A01C62054308A01C6204B308A01C6207F
:100F20000730B000D0308A0169218A151C298A0156
:100F300015208030A1008A0143200A30A6003030FD
:100F40008A014D21C401023044028A110318F02F96
:100F50008A0156228030A1000230A300440A8A018F
:100F600021208316210883128A01C6200A30A60098
:100F700040308A014D2130308316210200300318A1
:100F800001308312C200831621088312AB0039306E
:100F90008A010120C2058A110319DA2F3030831625
:100FA00021028312A9004408463E840029088000DB
:100FB0008A11EB2F8030A100C0308A0143200A3013
:100FC000A60047308A014D210730B000D0308A0199
:100FD00069218A151C290130C4078A11031CA32F1B
:100FE0004608A900B6012908B500B0010A30AF00D3
:100FF0008A01C321BB003208BC004708AA002A08A6
:101000003B07C800B6014808B500B0010A30AF0080
:101010008A01C321CA003208CB0001304B028A1575
:10102000031C22288030A1008A0143200A30A60038
:1010300053308A014D210730B000D0308A01692138
:101040008A151C298A0115208030A1008A014320BD
:101050000A30A6005F308A014D21A6014B08B2007C
:101060004A08B1008A01972054308A01C6204B30CB
:101070008A01C6208030A100C0308A0143200A3096
:10108000A60001308A014D218A0156224130831683
:1010900021028A158312031D4F288A155A204230D7
:1010A000831621028A158312031D58288A151C29CC
:1010B0008A1544288A0115208030A1008A01432026
:1010C0000A30A60066308A014D210430A1004C0888
:1010D0008A0194200330A700E830A3008A0115217B
:1010E0008A15031C65284D3C8A15031D6E28C10115
:1010F000A6018A014A208A15031C6528C900CB086D
:101100008A15031D88284A0849028A1503189A2857
:101110008030A1008A0143200A30A60077308A017E
:101120004D210730B000D0308A0169218A151C2971
:101130008A15C72855308A013D210330A700E830C1
:10114000A3008A0115218A15031C9A28423C8A159E
:10115000031DA1280430A1004C088A01942004300A
:10116000A10046088A0194200430A10047088A01A2
:1011700094208030A1008A0143200A30A6008730E5
:101180008A014D210330B000E8308A0169218A01CB
:1011900015208030A1008A0143200A30A600983033
:1011A0008A014D21C501450848028A15031C0C29F6
:1011B000C401053044028A150318072985168030BA
:1011C000A1008A0143200A30A600A7308A014D21E0
:1011D000A60145084802B100B201031CB2038A010E
:1011E000972020308A01C6204C308A01C6202E303C
:1011F0008A01C62020308A01C6200330B000E830C2
:101200008A0169210130C4078A15031CD9280130DD
:10121000C5078A15031CD32885128030A100C03071
:101220008A0143200A30A600B2308A014D210730DE
:10123000B000D0308A0169218A0115208030A100D8
:101240008A0143200A30A600C0308A014D21803037
:10125000A100C0308A0143200A30A600D1308A01A3
:101260004D21CC018A01562C8A153429460075007F
:1012700065006C0020004C006500760065006C0085
:101280003A00200048004900470048000000530091
:1012900065006E00640069006E0067002000530066
:1012A0004D0053002E002E002E002E002E000000B8
:1012B0004600750065006C0020004C00650076005B
:1012C00065006C003A0020004C004F005700000001
:1012D00045006E0074006500720020007500720009
:1012E000200070006100730073003A0000004D00A0
:1012F0006100740063006800650064002E00000057
:101300004900440020004E006F003A002000000019
:101310004E006F0020004D00610074006300680003
:10132000200046006F0075006E0064002E00000073
:10133000570061006900740069006E0067002000BA
:1013400066006F00720020006100000072006500FE
:101350006700690073007400650072006500640036
:10136000200063006100720064002E000000550040
:101370006E0072006500670069007300740065000C
:101380007200650064002E002E0000004300610022
:101390007200640020004900440020006E006F00CD
:1013A0003A002000000041003A0020004600690099
:1013B0006C006C0020004600750065006C000000A9
:1013C00042003A002B003200300054004B00200055
:1013D00043003A00200042006C006E0063000000F1
:1013E00052006500630068006100720067006500DC
:1013F000200075007200200063006100720064002C
:10140000000041003A0043006F006E006600690072
:1014100072006D00200042003A004200610063004B
:101420006B000000520065006300680061007200FC
:10143000670069006E0067002E002E002E002E004F
:101440002E002E00000059006F0075007200200071
:10145000620061006C0061006E00630065000000C6
:1014600045006E0074006500720020007100750078
:1014700061006E0074006900740079003A00000099
:1014800020004C00690074007200650000004500F7
:10149000720072006F0072002E002E002E002E00CF
:1014A0002100210000004F007600650072006600F8
:1014B0006C006F007700650064002E0000004200A1
:1014C00069006C006C003A002000000043006800D6
:1014D000610063006B0069006E006700200042003D
:1014E0006C006E0063002E002E002E0000004200F3
:1014F00061006C0061006E006300650020006900FF
:10150000730020004C006F0077002E0000004200A6
:1015100061006C0061006E006300650020005500F2
:101520007000640061007400650064002E0000001B
:10153000460069006C006C006E00670020004600E9
:10154000750065006C002E002E002E000000520079
:1015500065006D00610069006E0069006E00670043
:101560003A00000044006F006E0065002E0020006D
:101570005400680061006E006B0073002E000000D4
:1015800041003A0020004300610072006400200026
:1015900042003A00200050006100730077006400B0
:1015A000000043003A002000430061007200640024
:1015B00020002B00200050006100730077006400C1
:0415C0002000000007
:02400E00AA3FC7
:00000001FF
