:02000000B6291F
:0400060000000800EE
:10000A00103083120313FD00FD0B092800000800BD
:10001A00083083120313FC002330FD00FD0B132864
:06002A00FC0B1328080086
:1000300083120313CD1B1E2886131F2886174D1B02
:100040002328061324280617CD1A282886122928C3
:1000500086164D1A2D2806122E2806164518322807
:10006000061533280611861503208611CD193A2866
:1000700086133B2886174D193F280613402806177C
:10008000CD1844288612452886164D184928061290
:100090004A28061645184E2806154F2806118615BB
:1000A00003208611451C56280D20572805200800DE
:0E00B000831203133F088A003E0882000800F6
:1000BE008312031345104C08CD0018204514080078
:1000CE00710DF80DF90D7408F8027508031C750F03
:1000DE00F902F00DF10D0F30FC00710DF80DF90D58
:1000EE007408701C8028F8027508031C750FF9023D
:1000FE008528F80775080318750FF907F00DF10D2F
:10010E00FC0B7428701891287408F80775080318EA
:08011E00750FF907000008004D
:0E012600073083120313FD00FD0B972808001D
:10013400831203137408003A031DA9287508003AB2
:10014400031DA928FF30F0007F30F100022983123B
:100154000313FD01F901F801710870040319003457
:1001640071087506FA00FA1BFD09FB01F51FBF288B
:10017400F409F509F40A0319F50AF11FC628F00970
:10018400F109F00A0319F10A71087504FA00FA1B5F
:10019400DB2867207B18EE28FD1F0034F009F109E5
:1001A400F00A0319F10AF809F909F80A0319F90A16
:1001B4000034F51FEA28F11BE6287108F9007008DD
:1001C400F800F101F001CE28F101F001F00A003449
:1001D400F109F009FB0ACB28F80A0319F90A740893
:1001E4007802031DCE2875087902031DCE28F90173
:1001F400F801F00A0319F10AF11FCE280000FF34B8
:020204000800F0
:100206001529803083120313C8002629C030C80080
:1002160026299430C8002629D430C80026298030E3
:10022600C80026294808013A031904294808023A51
:10023600031909294808033A03190C294808043AFE
:1002460003190F2912294903F0004808F00770081E
:10025600C8007008CD0018204510CB014B084A078E
:100266008400000803193F294B084A078400000848
:0C027600CC005F20CB0A312945140800A1
:10028200831203139F01C0309F044808F000F00D51
:100292007010F00D7010F00D701070089F041F1494
:1002A20093201F151F1D5729000053291F101E08D8
:0602B200F000F10108005C
:1002B8008316031386110611061286120613861377
:1002C80083128611061186130613861206120D2054
:1002D8000D200D20861606168615032086110D2082
:1002E8008615032086110D208615032086110D2002
:1002F80006128615032086110D2086150320861107
:10030800861286178615032086110D208613061679
:1003180086150320861106128615032086110D20E6
:1003280086150320861106168615032086110D20D2
:1003380006128615032086118617061786160616D6
:0C0348008615032086110D2045140800C6
:1003540058208A110A128000840ABE0A0319BF0AAF
:08036400F003031DAA290800A3
:10036C004F3083120313A0004E30A1002030A200A6
:10037C00A3015330A4006530A5006E30A600733085
:10038C00A7006F30A8007230A9005630AA00613067
:10039C00AB006C30AC007530AD006530AE003A305F
:1003AC00AF002030B000B1014F30B2004630B30086
:1003BC004630B400B5014D30B6006F30B700743024
:1003CC00B8006F30B9007230BA003A30BB00203040
:1003DC00BC00BD018316071487115C210C30CD00C5
:1003EC0018200130C8000130C9002430CA00032194
:1003FC000230C8000130C9003630CA000321C801E0
:10040C0041217008C6007108C7004608C3004708A0
:10041C00C4006430F4000030F5004608F0004708D2
:10042C00F1009A2030307007C0006430F4000030C6
:10043C00F5004608F0004708F1009A207808F00013
:10044C007908F1000A30F4000030F5009A203030C1
:10045C007007C1000A30F4000030F5004608F000C7
:10046C004708F1009A207808F0007908F100303044
:10047C007007C2000130C8000E30C9004030CA00FD
:10048C0003210330FB008A30FC005530FD00FD0BCE
:10049C004D2AFC0B4D2AFB0B4D2A0000000080302E
:1004AC004406F00080307002031D5E2A0F304302B8
:1004BC00031C692A87150230C8000830C900203097
:1004CC00CA000321712A87110230C8000830C90004
:0A04DC003230CA000321052A722AFB
:02400E000A00A6
:00000001FF
