:02000000722B61
:10000800FF00030E8301DB000A08DA008A0170088A
:10001800A2007108A1000408A3008C1E24288C12D9
:10002800CD0133237008CD003D08513E840070088F
:100038008000BD0A3D08073A031D2328BD013E2361
:100048002208F0002108F100230884005A088A00D9
:0A0058005B0E8300FF0E7F0E09000F
:0E006200533083120313FD00FD0B35280800F8
:0C0070000000000000000000000008007C
:10007C00243083120313FC00B530FD00FD0B442823
:0A008C00FC0B4428000000000800EF
:1000960083120313E81B5128861352288617681B00
:1000A6005628061357280617E81A5B2886125C2876
:1000B6008616681A602806126128061650186528E2
:1000C600061566280611861538208611E8196D284A
:1000D60086136E2886176819722806137328061762
:1000E600E818772886127828861668187C2806125B
:1000F6007D280616501881280615822806118615B1
:1001060038208611501C89283E208A283120080074
:100116007B15FB1F95280130F300F201F101F00178
:08012600FA0DF20CFF30080095
:10012E008316031398189D280000972883126708DA
:04013E00990008001C
:100142008312031350106708E8004B205014080074
:08015200FA1FF213003008004F
:10015A00FB14FB1FB728FF30F300F200F100F00098
:08016A00FA0DF20CFF30080051
:0E017200F201F101F001F801F3010030080084
:100180007C18F628FC18C7287C191529C028A0015E
:100190007208031DE7287108F2007008F100780862
:1001A000F000F801A0157208031DE7287108F2009D
:1001B0007008F100F001A01120167208031DE72855
:1001C0007108F200F101A01572080319092920082D
:1001D000F302031D031C0D290310F21BF628F80D72
:1001E000F00DF10DF20DF30BED280D297B1B701CAA
:1001F0001129F81F1129F00A0319F10A0319F20A4B
:10020000031D1129F20CF10CF00CF30A0319152946
:1002100011290130FC00B92018290230FC008B2084
:1002200018290430FC00A92018290830FC00AD2052
:0402300000000800C2
:0E023400831203134F088A004E088200080050
:100242000D3083120313E70097200A30E70097204E
:020252000800A2
:10025400243083120313FD00FD0B2E290000080037
:100264004429803083120313E3005729C030E3008C
:1002740057299430E3005729D430E30057298030BC
:10028400E3005729831203136308013A031933293E
:100294006308023A031938296308033A03193B290E
:1002A4006308043A03193E2941296403F0006308F2
:1002B400F0077008E3007008E8004B205010E601D6
:1002C4006608650784000008031970296608650735
:1002D40084000008E700A120E60A622950140800FF
:1002E4007B14FB1F7D29F201FA1FFF30F200F1009D
:0A02F400F000FA0DF20CFF300800D4
:1002FE0083120313F8010830FC00700DF80D74081A
:10030E00F80203188C29F8070310F00DFC0B842952
:02031E000800D5
:10032000831203137008F800FB01FC019E30F300F8
:10033000FA01F201F101F0010230FC00C0200800D6
:1003400083120313FB017308031D77080319F729B0
:1003500072087606FA007708F3077E30031CB4298A
:10036000F3020318FA29B729F302031CFD297208C6
:10037000F8007108FC007008FD00F817F61703106C
:10038000F201F101F0011830A0007D1CD1297408A0
:10039000F00775080318750FF10776080318760F34
:1003A000F207F20CF10CF00CF80CFC0CFD0C031035
:1003B000A00BC529F21BE129F80DF00DF10DF20D8E
:1003C000F3037B1B701CF329F81FF329F00A0319B0
:1003D000F10A0319F20A031DF329F20CF10CF00CD7
:1003E000F30A0319FA29FA1FF2130030FF2901302A
:1003F000B920FF290230AD20FF2904308B200000F6
:020400000800F2
:10040200643083120313F4005E08F0007F21303061
:10041200F0077008DF006430F4005E08F0007F210E
:100422007808F0000A30F4007F2130307007E000D5
:100432000A30F4005E08F0007F217808F0003030C6
:100442007007E100E2015C08E3005D08E4005F3050
:10045200E50032215F08E70097206008E700972057
:0A0462006108E7009720212108003F
:10046C00831203139F01C0309F045C08F000F00D51
:10047C007010F00D7010F00D701070089F041F14A8
:10048C002A211F151F1D4C2A0000482A1F101E0868
:06049C00F000F101080070
:1004A20083120313FB01FC01FA01730803197E2A6C
:1004B200FA13F2178630F302F31B622A0319622A37
:1004C200802AF309F30A08307302031C6F2AF3002F
:1004D200F20DF2017308031D0310762A7308031943
:1004E200762A0310F20CF30B722A7B1B721C7E2AF3
:1004F200031C7E2AF20A0319852AF101882A7B1439
:10050200FB1F8B2AF1018B2A0130FC008D2A00305F
:10051200FC008D2AFF30FC00FC080319912A72218D
:060522007208F000080061
:10052800A62A803083120313DC00B92AC030DC000D
:10053800B92A9430DC00B92AD430DC00B92A8030DA
:10054800DC00B92A831203135C08013A0319952ABF
:100558005C08023A03199A2A5C08033A03199D2A8F
:100568005C08043A0319A02AA32A5D03F0005C087A
:10057800F0077008DC0050147008E8004B20501099
:0A0588005E08E8004B205014080044
:1005920083160313981690308312980083168717D8
:1005A200071383128C1ED82A1A08F000D22A0800D8
:1005B200831603138611061106128612061386137A
:1005C20083128611061186130613861206123E2026
:1005D2003E203E20861606168615382086113E20BD
:1005E2008615382086113E208615382086113E2039
:1005F20006128615382086113E208615382086116F
:10060200861286178615382086113E208613061616
:1006120086153820861106128615382086113E204E
:1006220086153820861106168615382086113E203A
:1006320006128615382086118617061786160616A4
:0C0642008615382086113E205014080058
:10064E001A218A110A128000840ACE0A0319CF0ACF
:08065E00F003031D272B080027
:10066600831203131A08F100981C3B2B1812181654
:060676007108F00008000D
:10067C00831203133D08053A031D712B5108523A9E
:10068C00031D712BD1015208313A031D4E2B07105B
:10069C005308313A031D532B87105408313A031D6C
:1006AC00582B07115508313A031D5D2B8711520841
:1006BC00303A031D622B07145308303A031D672B85
:1006CC0087145408303A031D6C2B07155508303A23
:0806DC00031D712B87150800B6
:1006E4002824D9220130E8004B200C30E8004B20AC
:1006F400831687010716FF3083128700C0308B00F2
:1007040083168C16813099001815C9220130DC003B
:100714000430DD00DF30DE0094220130E3000530D8
:10072400E4002430E5003221DC0136227008D900CF
:100734000130DC0036227008D8000130DC000130C2
:10074400DD005908F00090212E30F4009030F500BF
:100754002030F6007930F700A0210030F40000309A
:10076400F5004830F6008530F700A02151227008CA
:10077400DE0001220130DC000E30DD005808DE000E
:100784000122071EDF2B0230E3000230E4003E307A
:10079400E50032213030E700972021210630FB00AC
:1007A4001330FC00AD30FD00FD0BD62BFC0BD62B1B
:1007B400FB0BD62B00000000F82B0230E3000230C4
:1007C400E4002E30E50032213130E700972021216A
:1007D4000630FB001330FC00AD30FD00FD0BF02BA8
:1007E400FC0BF02BFB0BF02B00000000962BF92BDD
:1008500024308400293083120313F000FF30CE00CF
:080860000330CF00272308003C
:1007FE004334203453346D346F346B3465343A34AF
:04080E00203400345E
:100812002D344E344F344934533445342034443427
:0E082200453454344534433454342D340034BA
:02083000003492
:1008320020342034203420342D344E344F344E347E
:0E08420045342D34203420342034203400344A
:02400E000A00A6
:00000001FF
