:02000000102AC4
:10000800FF00030E8301C4000A08C3008A017008B8
:10001800A0000C1C1B280C100B308F00DC308E004D
:10002800B30A33080A3A031D1B28B30142142008F7
:10003800F00043088A00440E8300FF0E7F0E09007B
:1000480083120313F8010830FC00700DF80D7408D2
:10005800F80203183128F8070310F00DFC0B2928C3
:0200680008008E
:10006A000A3083120313F4003508F00024207008C4
:10007A00B8000A30F4003508F00024207808F000AF
:10008A007008B9000A30F4003608F000242070081D
:10009A00BA000A30F4003608F00024207808F0008C
:1000AA007008BB000A30F4003708F00024207008FA
:1000BA00BC000A30F4003708F00024207808F00069
:1000CA007008BD000A30F4003408F00024207008DB
:1000DA00BE000A30F4003408F00024207808F0004A
:0600EA007008BF000800D1
:0E00F0008312031341088A00400882000800B2
:1000FE0078208A110A128000840AC00A0319C10AE4
:08010E00F003031D7F28080027
:100116003520C501083045020318AB2845082B3E9B
:100126008400000987004508383E84000008F00076
:100136007008213E8400000886000730FC007D30F0
:10014600FD00FD0BA428FC0BA4288601C50A8D28FA
:0201560008009F
:1001580083120313C501083045020318F6298518D0
:10016800E629352045082B3E84000009870045080C
:10017800383E84000008F0007008213E8400000822
:1001880086000730FC007D30FD00FD0BC928FC0B04
:10019800C928860135204508013EF000F101031801
:1001A800F10A70082B3E8400000987007008383E69
:1001B80084000008F0007008213E840000088600D2
:1001C8000730FC007D30FD00FD0BE828FC0BE8281B
:1001D80086014508003A031D2B293508003A031DFE
:1001E8000629851D06296330B5000D30FB00AF30A8
:1001F800FC00B630FD00FD0BFF28FC0BFF28FB0BB5
:10020800FF280000051D1629B50A0D30FB00AF3088
:10021800FC00B630FD00FD0B0F29FC0B0F29FB0B72
:100228000F290000851D2629B5030D30FB00AF30CE
:10023800FC00B630FD00FD0B1F29FC0B1F29FB0B32
:100248001F2900003508643A031D2B29B50145080C
:10025800023A031D69293608003A031D4429851D01
:1002680044291730B6000D30FB00AF30FC00B63023
:10027800FD00FD0B3D29FC0B3D29FB0B3D29000032
:10028800051D5429B60A0D30FB00AF30FC00B6300E
:10029800FD00FD0B4D29FC0B4D29FB0B4D290000E2
:1002A800851D6429B6030D30FB00AF30FC00B63065
:1002B800FD00FD0B5D29FC0B5D29FB0B5D29000092
:1002C8003608183A031D6929B6014508043A031D82
:1002D800A7293708003A031D8229851D82293B304A
:1002E800B7000D30FB00AF30FC00B630FD00FD0B51
:1002F8007B29FC0B7B29FB0B7B290000051D922920
:10030800B70A0D30FB00AF30FC00B630FD00FD0B26
:100318008B29FC0B8B29FB0B8B290000851DA2293F
:10032800B7030D30FB00AF30FC00B630FD00FD0B0D
:100338009B29FC0B9B29FB0B9B29000037083C3AA7
:10034800031DA729B7014508063A031DE529340806
:10035800003A031DC029851DC0293B30B4000D306B
:10036800FB00AF30FC00B630FD00FD0BB929FC0BDB
:10037800B929FB0BB9290000051DD029B40A0D3095
:10038800FB00AF30FC00B630FD00FD0BC929FC0BAB
:10039800C929FB0BC9290000851DE029B4030D30CC
:1003A800FB00AF30FC00B630FD00FD0BD929FC0B7B
:1003B800D929FB0BD929000034083C3A031DE5294B
:1003C800B401B3281A30FB005E30FC006E30FD002B
:1003D800FD0BEC29FC0BEC29FB0BEC29000002308F
:1003E800C507AF283408003A031D012A3C30B40081
:0C03F8003708003C0318012AB703080076
:1004040031308312031390000C100B308F00DC305A
:0C0414008E0083160C14C0308B00080012
:100420003F3083120313A1000630A2005B30A3000B
:100430004F30A4006630A5006D30A6007D30A700C7
:100440000730A8007F30A9006F30AA000130AB0050
:100450000230AC000430AD000830AE001030AF0008
:100460002030B0004030B1008030B200B301B401A0
:10047000B501B601B701073083169F000F30850024
:1004800086018701831286018701022242108312AE
:1004900005184C2A8B20472AAC203508003A031D4A
:1004A0005E2A3608003A031D5E2A3708003A031D0B
:1004B0005E2A3408003A031D5E2A852A8B20421CDE
:1004C000632AB40342103408003A031D6E2A370829
:1004D000003A03196E2A3B30B400B7033708003ADC
:1004E000031D792A3608003A0319792A3B30B700F0
:1004F000B6033608003A031D842A3508003A03196A
:10050000842A1730B600B5034D2A85167F30FB00CC
:10051000D430FC003130FD00FD0B8C2AFC0B8C2A02
:0E052000FB0B8C2A000000008512472A962A49
:02400E005A0056
:00000001FF
