:100000000C9462000C948A000C948A000C948A0070
:100010000C948A000C948A000C948A000C948A0038
:100020000C948A000C948A000C948A000C948A0028
:100030000C948A000C948A000C948A000C948A0018
:100040000C94E6090C948A000C948A000C948A00A3
:100050000C948A000C948A000C948A000C948A00F8
:100060000C948A000C948A00000000080002010031
:100070000003040700000000000000000102040863
:100080001020408001020408102001020408102002
:10009000040404040404040402020202020203032E
:1000A00003030303000000002300260029000000D2
:1000B0000000250028002B0000000000240027007D
:1000C0002A00920611241FBECFEFD8E0DEBFCDBFBD
:1000D00011E0A0E0B1E0E2E2FDE102C005900D9286
:1000E000AA3FB107D9F722E0AAEFB1E001C01D9203
:1000F000A235B207E1F710E0C4ECD0E004C02297CB
:10010000FE010E94750EC23CD107C9F70E94BA0CCD
:100110000C948F0E0C9400000C94790E0C94810EAC
:1001200043E060E08DE092E00E94080967E071E042
:100130008DE092E00C94FB0BCF93DF9387E392E08A
:100140000E94D40685E292E00E94D40620E044E0BA
:1001500064E18DE092E00E94220961E082E00E9469
:10016000250B61E083E00E94250B61E087E00E949F
:10017000250B61E088E00E94250B61E089E00E9488
:10018000250B61E08AE00E94250B61E08BE00E9474
:10019000250B60E086E00E94250B60E085E00E9470
:1001A000250B60E084E00E94250B80E090E00E9437
:1001B0008C00D82F8093000281E090E00E948C0098
:1001C000C82F8093FF0182E090E00E948C00482FAE
:1001D00050E0509302024093010283E090E00E94BD
:1001E0008C008093FE0184E090E00E948C00482FF8
:1001F00050E050930C0240930B0285E090E00E9487
:100200008C00482F50E050930A024093090286E088
:1002100090E00E948C00482F50E0509308024093D9
:10022000070287E090E00E948C00482F50E0509336
:100230000602409305022D2F30E0322F22272C0F8B
:10024000311D309304022093030261E089E00E9493
:100250005E0B60E08AE0DF91CF910C945E0BCF9350
:10026000DF9384E10E94DF0AEC0185E10E94DF0A4E
:10027000BE01681B790B882777FD8095982F0E9417
:10028000620D23EE36E34AEF5EE30E94EE0D0E941C
:100290002F0D882777FD8095982F0E94620D26E606
:1002A00036E646EE5FE30E94EE0D20E030E040E0EF
:1002B00052E40E94CB0C0E942F0D70930C026093AD
:1002C0000B02DF91CF910895CF93DF938EE00E94D0
:1002D000DF0AEC018FE00E94DF0ABE01681B790B88
:1002E000882777FD8095982F0E94620D23EE36E3D4
:1002F0004AEF5EE30E94EE0D0E942F0D882777FDE6
:100300008095982F0E94620D26E636E646EE5FE362
:100310000E94EE0D20E030E040E052E40E94CB0C61
:100320000E942F0D70930A0260930902DF91CF9112
:100330000895CF93DF938091FE0142E067E0813022
:1003400009F084C08DE092E00E94080960910302E8
:10035000709104024AE050E08DE092E00E949D0C12
:1003600067E571E08DE092E00E94FB0B6091010275
:10037000709102024AE050E08DE092E00E949D0CF4
:1003800065EA71E08DE092E00E94FB0B8091010232
:1003900090910202892B79F48CE390E09093020211
:1003A000809301028091030290910402019790933F
:1003B000040280930302809101029091020201974E
:1003C0009093020280930102209103023091040273
:1003D000232B09F047C0892B09F044C080E090E04E
:1003E0000E948C00D82F8093000281E090E00E9450
:1003F0008C00C82F8093FF0182E090E00E948C0067
:10040000482F50E050930202409301022D2F30E01C
:10041000322F22272C0F311D309304022093030228
:1004200089E00E94940B61E0892B09F060E089E08B
:100430000E945E0B8AE00E94940B61E0892B09F018
:1004400060E08AE0DF91CF910C945E0B8DE092E04A
:100450000E9408096CE171E08DE092E0DF91CF919C
:100460000C94FB0BDF91CF910895CF93DF9360E065
:100470008BE00E945E0B8DE092E00E94010968EE25
:1004800073E080E090E00E945F0A41E060E08DE070
:1004900092E00E94080968E271E08DE092E00E941B
:1004A000FB0B80E090E00E948C00D82F809300022C
:1004B00081E090E00E948C00C82F8093FF0182E0D1
:1004C00090E00E948C00482F50E05093020240932D
:1004D000010283E090E00E948C008093FE012D2FAA
:1004E00030E0322F22272C0F311D3093040220934D
:1004F0000302C4E8D3E085E00E94940B892B09F045
:100500005EC042E060E08DE092E00E9408096091E8
:100510000302709104024AE050E08DE092E00E94F4
:100520009D0C67E571E08DE092E00E94FB0B60910D
:100530000102709102024AE050E08DE092E00E94D8
:100540009D0C65E371E08DE092E00E94FB0B86E07C
:100550000E94940B019749F4809103029091040248
:10056000019690930402809303028091030290917C
:1005700004028538934024F0109204021092030282
:1005800084E00E94940B019749F4809103029091BA
:100590000402019790930402809303028091030266
:1005A0009091040297FF04C0D0930402C093030209
:1005B0006CE271E080E090E00E945F0A9CCF809145
:1005C000030260910402609300028093FF0180E0C7
:1005D00090E00E948E006091FF0181E090E00E9417
:1005E0008E0061E08BE00E945E0B64EF71E080E0C2
:1005F00090E00E945F0A60E08BE00E945E0BCBE31C
:10060000D0E085E00E94940B892B09F05DC042E0A8
:1006100060E08DE092E00E94080960910302709111
:1006200004024AE050E08DE092E00E949D0C67E5F4
:1006300071E08DE092E00E94FB0B609101027091ED
:1006400002024AE050E08DE092E00E949D0C6CE3D3
:1006500071E08DE092E00E94FB0B86E00E94940B1B
:10066000019749F4809101029091020201969093C2
:100670000202809301028091010290910202CC97C4
:1006800024F0109202021092010284E00E94940B66
:10069000019749F480910102909102020197909391
:1006A000020280930102809101029091020297FF61
:1006B00004C0D0930202C09301026CE271E080E0BA
:1006C00090E00E945F0A9DCF6091010282E090E07D
:1006D0000E948E0061E08BE00E945E0B64EF71E08F
:1006E00080E090E00E945F0A60E08BE00E945E0B79
:1006F000C1E085E00E94940B892B09F048C042E0DC
:1007000060E08DE092E00E94080960910302709120
:1007100004024AE050E08DE092E00E949D0C67E503
:1007200071E08DE092E00E94FB0B609101027091FC
:1007300002024AE050E08DE092E00E949D0C6CE3E2
:1007400071E08DE092E00E94FB0B8091FE01813010
:1007500019F463E471E002C067E471E08DE092E0B7
:100760000E94FB0B86E00E94940B019749F4809154
:10077000FE01813019F41092FE0102C0C093FE0107
:100780006CE271E080E090E00E945F0AB2CF60917D
:10079000FE0183E090E00E948E0061E08BE00E9409
:1007A0005E0B64EF71E080E090E00E945F0A60E021
:1007B0008BE00E945E0B8DE092E00E94010941E017
:1007C00060E08DE092E00E9408096BE471E08DE04A
:1007D00092E00E94FB0B85E00E94940B892BD1F5DF
:1007E00042E060E08DE092E00E9408094AE050E0BB
:1007F0006091FD018DE092E00E94B20C6FED8DE002
:1008000092E00E94FD0B69E571E08DE092E00E94AC
:10081000FB0B86E00E94940B019729F48091FD0167
:100820008F5F8093FD018091FD01853610F010925D
:10083000FD0184E00E94940B019729F48091FD0151
:1008400081508093FD016CE271E080E090E00E94B5
:100850005F0AC1CF6091FD0184E090E00E948E00AC
:1008600061E08BE00E945E0B64EF71E080E090E05D
:100870000E945F0A60E08BE00E945E0B41E060E056
:100880008DE092E00E9408096EE571E08DE092E053
:100890000E94FB0B85E00E94940B892BD1F542E06E
:1008A00060E08DE092E00E9408094AE050E060912B
:1008B000FC018DE092E00E94B20C6FED8DE092E0C1
:1008C0000E94FD0B69E571E08DE092E00E94FB0B58
:1008D00086E00E94940B019729F48091FC018F5FC0
:1008E0008093FC018091FC01853610F01092FC0190
:1008F00084E00E94940B019729F48091FC018150BF
:100900008093FC016CE271E080E090E00E945F0A5D
:10091000C1CF6091FC0185E090E00E948E0061E013
:100920008BE00E945E0B64EF71E080E090E00E943B
:100930005F0A60E08BE00E945E0B8DE092E00E9417
:10094000010941E060E08DE092E00E9408096CE658
:1009500071E08DE092E00E94FB0B85E00E94940B19
:10096000892BA9F542E060E08DE092E00E94080941
:100970004AE050E06091FB018DE092E00E94B20CF1
:100980006EE771E08DE092E00E94FB0B86E00E9432
:10099000940B019729F48091FB018F5F8093FB01F9
:1009A0008091FB01843610F01092FB0184E00E94DC
:1009B000940B019729F48091FB0181508093FB01F6
:1009C0006CE271E080E090E00E945F0AC6CF609127
:1009D000FB0186E090E00E948E0061E08BE00E94C7
:1009E0005E0B64EF71E080E090E00E945F0A60E0DF
:1009F0008BE00E945E0B41E060E08DE092E00E949F
:100A0000080963E871E08DE092E00E94FB0B85E04D
:100A10000E94940B892BA9F542E060E08DE092E002
:100A20000E9408094AE050E06091FA018DE092E0EE
:100A30000E94B20C6EE771E08DE092E00E94FB0B29
:100A400086E00E94940B019729F48091FA018F5F50
:100A50008093FA018091FA01843610F01092FA0125
:100A600084E00E94940B019729F48091FA0181504F
:100A70008093FA016CE271E080E090E00E945F0AEE
:100A8000C6CF6091FA0187E090E00E948E0061E09D
:100A90008BE00E945E0B64EF71E080E090E00E94CA
:100AA0005F0A60E08BE00E945E0B8DE092E00E94A6
:100AB000010964EF71E080E090E0DF91CF910C9448
:100AC0005F0A0E942F010E94640160E087E392E0C8
:100AD0000E9426080E942F0D70930802609307025F
:100AE00060E085E292E00E9426080E942F0D70933C
:100AF00006026093050240E060E08DE092E00E9413
:100B0000080965E971E08DE092E00E94FB0B6091BD
:100B10000B0270910C024AE050E08DE092E00E94DE
:100B20009D0C6FED8DE092E00E94FD0B69E571E098
:100B30008DE092E00E94FB0B6091090270910A0225
:100B40004AE050E08DE092E00E949D0C6FED8DE058
:100B500092E00E94FD0B69E571E08DE092E00E9459
:100B6000FB0B41E060E08DE092E00E9408096CE937
:100B700071E08DE092E00E94FB0B609107027091A2
:100B800008024AE050E08DE092E00E949D0C63EA8A
:100B900071E08DE092E00E94FB0B60910502709184
:100BA00006024AE050E08DE092E00E949D0C6EE764
:100BB00071E08DE092E00E94FB0B85E00E94940BB7
:100BC000019711F40E94350280910B0290910C0262
:100BD0002091FD0130E0A901435051098417950788
:100BE0002CF02D5F3F4F281739078CF461E08BE024
:100BF0000E945E0B61E082E00E945E0B43E060E0D9
:100C00008DE092E00E94080969EA71E022C08091BB
:100C1000090290910A022091FC0130E0A9014350A1
:100C20005109841795072CF02D5F3F4F281739077E
:100C3000ACF461E08BE00E945E0B61E083E00E9417
:100C40005E0B43E060E08DE092E00E94080969EBF2
:100C500071E08DE092E00E94FB0B5CC08091070286
:100C6000909108022091FB0130E0A9014350510905
:100C7000841795072CF02D5F3F4F281739078CF408
:100C800061E08BE00E945E0B61E087E00E945E0BFA
:100C900043E060E08DE092E00E94080969EC71E0B9
:100CA000D8CF80910502909106022091FA0130E0A0
:100CB000A90143505109841795072CF02D5F3F4F30
:100CC000281739078CF461E08BE00E945E0B61E02D
:100CD00088E00E945E0B43E060E08DE092E00E94BD
:100CE00008096DED71E0B5CF60E08BE00E945E0B0E
:100CF00060E082E00E945E0B60E083E00E945E0B99
:100D000060E087E00E945E0B60E088E00E945E0B7E
:100D10000E9490000E94990168EE73E080E090E0EC
:100D20000C945F0ACF92EF920F9326E04BE060E0C5
:100D300087E392E00E94B30626E04BE061E085E2A3
:100D400092E00E94B30653E1C52E62E1E62E01E176
:100D500020E14DE06CE08DE092E00E94C0090F912F
:100D6000EF90CF900895DC0115966C931597169629
:100D70004C93169770E0FB01E458FF4FE4911796EF
:100D8000EC931797FB01E057FF4F649118966C9313
:100D9000189740E85EE360E070E01D964D935D9328
:100DA0006D937C9350970895CF93DF93EC0162E0AD
:100DB0008D810E94250B40E358EF6FEF7FEF49874D
:100DC0005A876B877C87DF91CF910895AF92BF924E
:100DD000CF92DF92EF92FF920F931F93CF93DF9307
:100DE000EC01AF80662311F0BA2C01C0B12CA885AC
:100DF000B0E0AA0FBB1FAC55BF4F40E050E0BA01B6
:100E0000FD0185919491FC0180818A218B1112C092
:100E10008A019B010F5F1F4F2F4F3F4FCD84DE8410
:100E2000EF84F8884C155D056E057F0538F4B9012F
:100E3000A801E6CF342F252FCB0104C030E020E0FD
:100E400080E090E0632F722FDF91CF911F910F917F
:100E5000FF90EF90DF90CF90BF90AF900895CF922A
:100E6000DF92EF92FF920F931F93CF93DF93CDB753
:100E7000DEB7C054D1400FB6F894DEBF0FBECDBF71
:100E80008C01F62E0E94300AF11016C0F801C184C0
:100E9000D284E384F4849B01AC012C193D094E09F2
:100EA0005F0969017A0130EDC31637E0D306E1042A
:100EB000F10410F48189BAC0F801618772878387D1
:100EC00094871482138212821182108261E08581DC
:100ED0000E945E0B6AEF70E080E090E00E945F0A83
:100EE00061E0F80185810E94250B60E0F8018581B1
:100EF0000E945E0B64E170E080E090E00E945F0A77
:100F0000F89461E0F80185810E945E0B88E290E030
:100F10000E94990A62E0F80185810E94250B8AE00F
:100F200090E00E94990A60E0C8010E94E606672BE3
:100F3000682B692B41F061E0C8010E94E606672B2F
:100F4000682B692B21F4F801118A78946EC06E0128
:100F5000FFEBCF1AFEEFDF0A9E012F5F3F4F7901B3
:100F600060E0C8010E94E606F70160837183828316
:100F7000938361E0C8010E94E606F70164837583EC
:100F800086839783F8E0EF0EF11CEC14FD0441F723
:100F900078949E012F5F3F4F790120E030E0F70108
:100FA000408151816281738184819581A681B7815D
:100FB0004115510561057105B1F10097A105B10514
:100FC00091F1F901F595E795F595E795F595E79593
:100FD000E00FF11FD080DD0C481759076A077B0727
:100FE00010F0D08203C08D2D816080832F5F3F4F32
:100FF000F8E0EF0EF11C2832310589F6F801248162
:1010000030E04081818190E0840F911D4281840F06
:10101000911D4381840F911D99272817390719F4D1
:1010200081E0818B03C0F801118A80E0C05CDE4F53
:101030000FB6F894DEBF0FBECDBFDF91CF911F91E9
:101040000F91FF90EF90DF90CF900895CF92DF92B5
:10105000EF92FF92CF93DF93EC0160E00E942F07A5
:10106000882379F18E818B3029F158F185518230B6
:1010700040F5688170E080E090E00E94600D20E023
:1010800030E040E853E40E94EE0D6B017C01698181
:1010900070E080E090E00E94620D9B01AC01C7010E
:1010A000B6010E94CB0C2DEC3CEC4CEC5DE30E94B5
:1010B000EE0D0BC0688170E080E090E00E94600D52
:1010C00004C060E070E080EC9FE7DF91CF91FF907B
:1010D000EF90DF90CF900895CF93DF93EC0160E025
:1010E0008E810E945E0B81E090E00E94990A61E08F
:1010F0008E810E945E0B81E090E00E94990A60E080
:101100008E810E945E0B84E690E0DF91CF910C947B
:10111000990AEF92FF920F931F93CF93DF938C0165
:10112000C0E0D0E0E62EF12CB7010C2E02C0759580
:1011300067950A94E2F76170F801EC0FFD1F878153
:101140000E945E0B2196C430D10571F7C801DF9172
:10115000CF911F910F91FF90EF900C946C08EF923C
:10116000FF920F931F93CF93DF938C01C0E0D0E0E9
:10117000E62EF12CB7010C2E02C0759567950A94E6
:10118000E2F76170F801EC0FFD1F87810E945E0B92
:101190002196C830D10571F7C801DF91CF911F9119
:1011A0000F91FF90EF900C946C081F93CF93DF93F7
:1011B000EC01162F642F8C810E945E0B8D818F3F76
:1011C00019F060E00E945E0B8F85612F84FF06C0DE
:1011D000CE01DF91CF911F910C94AF0870E084E0B5
:1011E000759567958A95E1F7CE010E948908612F70
:1011F000CE01DF91CF911F910C94890840E00C94AF
:10120000D50861E00E94FE0880ED97E00C94990AF1
:10121000443008F043E0FC012389421710F04FEFFF
:10122000420FFC01E40FF11D2489260F2068622F74
:101230000C94FE08FC016089262F2460208B6C60D2
:101240000C94FE080F931F93CF93DF93EC01423071
:1012500018F08F8588608F874B8B1C8A80E48D8B7C
:101260006E8B70E0605C7F4F6F8B222329F04130E2
:1012700019F48F8584608F8761E08C810E94250B33
:101280008D818F3F19F061E00E94250B61E08E8116
:101290000E94250B00E010E08F8584FF03C088E0EA
:1012A00090E002C084E090E00817190754F4FE01B2
:1012B000E00FF11F61E087810E94250B0F5F1F4F38
:1012C000EBCF80E593EC0E94990A60E08C810E944C
:1012D0005E0B60E08E810E945E0B8D818F3F19F066
:1012E00060E00E945E0B6F8564FD1DC063E0CE016F
:1012F0000E94890884E991E10E94990A63E0CE0185
:101300000E94890884E991E10E94990A63E0CE0174
:101310000E94890886E990E00E94990A62E0CE0165
:101320000E94890816C06062CE010E94FE0884E90E
:1013300091E10E94990A6F856062CE010E94FE08C9
:1013400086E990E00E94990A6F856062CE010E9452
:10135000FE086F856062CE010E94FE0884E0888BE3
:10136000CE010E941A09CE010E94010982E0898BF8
:1013700066E0CE01DF91CF911F910F910C94FE0892
:10138000CF92EF920F93FC011382128285EF91E0CE
:101390009183808364838FEF8583468327830087CF
:1013A000E186C2861386148615861686178620E087
:1013B00041E060E1CF010F91EF90CF900C942209B2
:1013C00041E00E94D50881E090E008951F920F92BD
:1013D0000FB60F9211242F933F938F939F93AF9348
:1013E000BF9380914A0290914B02A0914C02B09120
:1013F0004D023091490223E0230F2D3720F401964E
:10140000A11DB11D05C026E8230F0296A11DB11D27
:101410002093490280934A0290934B02A0934C027E
:10142000B0934D0280914E0290914F02A0915002D4
:10143000B09151020196A11DB11D80934E0290936F
:101440004F02A0935002B0935102BF91AF919F9170
:101450008F913F912F910F900FBE0F901F90189575
:101460002FB7F89460914A0270914B0280914C0220
:1014700090914D022FBF08953FB7F89480914E028E
:1014800090914F02A0915002B091510226B5A89BB5
:1014900005C02F3F19F00196A11DB11D3FBF662762
:1014A000782F892F9A2F620F711D811D911D42E0A7
:1014B000660F771F881F991F4A95D1F708958F925D
:1014C0009F92AF92BF92CF92DF92EF92FF926B0109
:1014D0007C010E943C0A4B015C01C114D104E1046F
:1014E000F104F1F00E94C90C0E943C0A68197909C4
:1014F0008A099B09683E73408105910570F321E0DC
:10150000C21AD108E108F10888EE880E83E0981E1F
:10151000A11CB11CC114D104E104F10429F7DDCFF1
:10152000FF90EF90DF90CF90BF90AF909F908F9003
:1015300008958230910538F0880F991F880F991F00
:1015400005970197F1F70895789484B5826084BD7A
:1015500084B5816084BD85B5826085BD85B58160B7
:1015600085BDEEE6F0E0808181608083E1E8F0E017
:101570001082808182608083808181608083E0E846
:10158000F0E0808181608083E1EBF0E08081846025
:101590008083E0EBF0E0808181608083EAE7F0E027
:1015A000808184608083808182608083808181608B
:1015B00080838081806880831092C10008958E307E
:1015C00008F08E5087702091060190E4299F9001C9
:1015D0001124822B80937C0080917A008064809318
:1015E0007A0080917A0086FDFCCF8091780020916E
:1015F000790090E0922B0895833081F028F48130B7
:1016000099F08230A1F008958730A9F08830B9F0C0
:101610008430D1F4809180008F7D03C08091800060
:101620008F7780938000089584B58F7702C084B54A
:101630008F7D84BD08958091B0008F7703C0809125
:10164000B0008F7D8093B0000895CF93DF9390E03A
:10165000FC01E458FF4F2491FC01E057FF4F8491B7
:10166000882349F190E0880F991FFC01E854FF4F4F
:10167000A591B49182559F4FFC01C591D4919FB71C
:10168000611108C0F8948C91209582238C938881F5
:1016900082230AC0623051F4F8948C91322F309535
:1016A00083238C938881822B888304C0F8948C9147
:1016B000822B8C939FBFDF91CF9108950F931F933F
:1016C000CF93DF931F92CDB7DEB7282F30E0F9011B
:1016D000E859FF4F8491F901E458FF4F1491F90143
:1016E000E057FF4F04910023C9F0882321F069835C
:1016F0000E94FC0A6981E02FF0E0EE0FFF1FE25527
:10170000FF4FA591B4919FB7F8948C91611103C0DC
:101710001095812301C0812B8C939FBF0F90DF9187
:10172000CF911F910F910895CF93DF93282F30E031
:10173000F901E859FF4F8491F901E458FF4FD49122
:10174000F901E057FF4FC491CC2391F081110E9421
:10175000FC0AEC2FF0E0EE0FFF1FEC55FF4FA591B8
:10176000B4912C912D2381E090E021F480E002C01F
:1017700080E090E0DF91CF910895CF92DF92EF92D9
:10178000FF920F931F93CF93DF937C016A01EB01CC
:1017900000E010E00C151D0571F06991D701ED9185
:1017A000FC910190F081E02DC7010995892B19F07A
:1017B0000F5F1F4FEFCFC801DF91CF911F910F91A6
:1017C000FF90EF90DF90CF9008956115710581F043
:1017D000DB010D900020E9F7AD0141505109461B96
:1017E000570BDC01ED91FC910280F381E02D09940F
:1017F00080E090E008950C94E50BDC01ED91FC9104
:101800000190F081E02D09948F929F92AF92BF9248
:10181000DF92EF92FF920F931F93CF93DF93CDB799
:10182000DEB7A1970FB6F894DEBF0FBECDBF7C0127
:10183000F42FD52ECB0119A2223008F42AE08E0114
:101840000F5D1F4F822E912CA12CB12C6F2F7D2D5F
:10185000A50194010E94510EF22FD32ECA0101500E
:1018600011096A3014F4E0E301C0E7E3E60FD801A0
:10187000EC93232B242B252B49F7B801C7010E9499
:10188000E50BA1960FB6F894DEBF0FBECDBFDF917A
:10189000CF911F910F91FF90EF90DF90BF90AF908D
:1018A0009F908F900895CF92DF92EF92FF920F93C7
:1018B0001F93CF93DF93EC016A017B012115310562
:1018C00079F4E881F9810190F081E02D642FDF91B6
:1018D000CF911F910F91FF90EF90DF90CF900994DF
:1018E0002A303105E9F477FF1AC06DE20E94FD0B42
:1018F0008C0144275527BA014C195D096E097F09EF
:101900002AE0CE010E94040C800F911FDF91CF913D
:101910001F910F91FF90EF90DF90CF9008952AE0F4
:10192000B701A601CE01DF91CF911F910F91FF90DA
:10193000EF90DF90CF900C94040C9A01AB016627D6
:1019400057FD6095762F0C94530C2115310541F409
:10195000DC01ED91FC910190F081E02D642F099460
:101960000C94040C9A01462F50E060E070E00C9457
:10197000A50C08950E94A40A0E94B90C0E949C0024
:10198000C0E0D0E00E9461052097E1F30E940000D2
:10199000F9CF08955058BB27AA270ED0E5C0D6D05E
:1019A00030F0DBD020F031F49F3F11F41EF4CBC0B7
:1019B0000EF4E095E7FBC1C0E92FE7D080F3BA173A
:1019C000620773078407950718F071F49EF5FFC04E
:1019D0000EF4E0950B2EBA2FA02D0B01B90190014A
:1019E0000C01CA01A0011124FF27591B99F0593F8E
:1019F00050F4503E68F11A16F040A22F232F342FD6
:101A00004427585FF3CF469537952795A795F04023
:101A10005395C9F77EF41F16BA0B620B730B840B38
:101A2000BAF09150A1F0FF0FBB1F661F771F881FF0
:101A3000C2F70EC0BA0F621F731F841F48F4879548
:101A400077956795B795F7959E3F08F0B3CF939537
:101A5000880F08F09927EE0F97958795089504D081
:101A60006894B111B5C0089598D088F09F5790F050
:101A7000B92F9927B751A0F0D1F0660F771F881FB3
:101A8000991F1AF0BA95C9F712C0B13081F09FD0F2
:101A9000B1E008959CC0672F782F8827B85F39F090
:101AA000B93FCCF3869577956795B395D9F73EF412
:101AB00090958095709561957F4F8F4F9F4F0895BA
:101AC000E89409C097FB3EF49095809570956195D8
:101AD0007F4F8F4F9F4F9923A9F0F92F96E9BB278E
:101AE0009395F695879577956795B795F111F8CF0A
:101AF000FAF4BB0F11F460FF1BC06F5F7F4F8F4F75
:101B00009F4F16C0882311F096E911C0772321F06A
:101B10009EE8872F762F05C0662371F096E8862F02
:101B200070E060E02AF09A95660F771F881FDAF759
:101B3000880F9695879597F9089597F99F6780E89C
:101B400070E060E008959FEF80EC089500240A940F
:101B50001616170618060906089500240A94121688
:101B60001306140605060895092E0394000C11F4BB
:101B7000882352F0BB0F40F4BF2B11F460FF04C068
:101B80006F5F7F4F8F4F9F4F089557FD9058440FC1
:101B9000551F59F05F3F71F04795880F97FB991FCC
:101BA00061F09F3F79F08795089512161306140689
:101BB000551FF2CF4695F1DF08C016161706180616
:101BC000991FF1CF86957105610508940895E894F1
:101BD000BB2766277727CB0197F908950BD0C4CF91
:101BE000B5DF28F0BADF18F0952309F0A6CFABCF08
:101BF0001124EECFCADFA0F3959FD1F3950F50E0EB
:101C0000551F629FF001729FBB27F00DB11D639FAE
:101C1000AA27F00DB11DAA1F649F6627B00DA11D54
:101C2000661F829F2227B00DA11D621F739FB00DFA
:101C3000A11D621F839FA00D611D221F749F33276A
:101C4000A00D611D231F849F600D211D822F762F03
:101C50006A2F11249F5750408AF0E1F088234AF000
:101C6000EE0FFF1FBB1F661F771F881F915050404C
:101C7000A9F79E3F510570F060CFAACF5F3FECF30C
:101C8000983EDCF3869577956795B795F795E79538
:101C90009F5FC1F7FE2B880F911D9695879597F949
:101CA0000895A1E21A2EAA1BBB1BFD010DC0AA1F9D
:101CB000BB1FEE1FFF1FA217B307E407F50720F0B5
:101CC000A21BB30BE40BF50B661F771F881F991F30
:101CD0001A9469F760957095809590959B01AC0179
:101CE000BD01CF010895EE0FFF1F0590F491E02D87
:101CF0000994F999FECF92BD81BDF89A992780B5D4
:101D00000895262FF999FECF1FBA92BD81BD20BD3F
:101D10000FB6F894FA9AF99A0FBE01960895F894BE
:021D2000FFCFF3
:101D2200000052028000014D616465206279204109
:101D32006E746F722041686D65642E0054696D6522
:101D420072204F46462020005365747570205469F6
:101D52006D65723A0020204D4D2020002020535303
:101D62002020004F4E20004F46460054656D7020E3
:101D7200312053657475703A004620202000546566
:101D82006D7020322053657475703A0048756D6924
:101D92006469747920312053657475703A00252086
:101DA20020200048756D696469747920322053657A
:101DB2007475703A0054656D703A200048756D690B
:101DC2003A200025202020200054656D70204120FB
:101DD2006578636565642E2E0054656D702042201F
:101DE2006578636565642E2E0048756D6964697453
:101DF200792041206578636565642E2E0048756DF3
:101E020069646974792042206578636565642E2E61
:0A1E12000000000000E009BD0B0015
:00000001FF
