:1000000013298313B500B601B60D003036028030D7
:1000100003193502031C1028B21B10282030B50725
:100020003508840008008030A100FE30BC2001307B
:10003000BC207530AC003030F028A101A117B4000D
:10004000FE30BC203408BC28AF0025080319FF2867
:100050002F08840000080319FF28BC20AF0AA5035D
:100060002528AF00A60125080319FF282F08A400A2
:1000700026080B210319FF28BC20A60AA503332854
:10008000B200861106118316861106110F308605FF
:1000900083123208A0186A283E30AC008030F0206D
:1000A0003330B1007E201330AC008830F0207E2049
:1000B0006430EF207E206430EF202230B1007E20BB
:1000C000283069200C30692006306920A0143208DD
:1000D0006A282014B100201C78280611033C031C58
:1000E0007D287D200730AC00D030F02003140800BC
:1000F0002014FE3C03198D280615201C201086159F
:100100000F3086053108F039860400008611B10EE3
:10011000000020187E283230EF203208FF2898187F
:10012000181218162308AB002708AC00AD01AE0169
:1001300099289A2800008C1AB428FF30AD07031CB8
:10014000AE07031CAB07031CAC07031CFF282D0FD5
:1001500098282E0F9928FA30AD00AE019A289818E9
:10016000181218168C1EB2281A080314FF280C1E29
:10017000B72899000314FF28A11B40282119B7288C
:100180000800A500A201250803178D000313260807
:1001900003178F00D4200319FF28BC20A50A0319D8
:1001A000A60AA20FC328FF28831603170C14000009
:1001B000000083120C08FF288001840AFF3E031D03
:1001C000DC28FF28AE01AD00FF30AD07031CAE07F1
:1001D000031CFF280330AC00E630F020E428AC011B
:1001E000FC3EAB00AC09031CFB28FF300000AB0752
:1001F0000318F628AB070000AC0FF528080083139E
:10020000831203130800B1002508B200260701205D
:1002100031088000FF28B1002408B200310824070B
:1002200001200008FF28830183160A30990024303A
:100230009800831290309800A0010330AE00E8309F
:100240008A01E3208A0113202030840060308A0173
:10025000DC20A030840060308A01DC208030A100E6
:100260008A011D200630A60025308A01C1202730D2
:10027000AE0010308A01E3208A0113208030A100F3
:100280008A011D200630A60033308A01C12041308A
:100290008A01B72054308A01B7200D308A01B72077
:1002A0000A308A01B7200330A700E830A3008A0192
:1002B0008F208A11031C2E294F3C8A11031D5729B8
:1002C0008A018F208A11031C2E294B3C8A11031DA1
:1002D000572941308A01B72054308A01B720453070
:1002E0008A01B72030308A01B7200D308A01B7204B
:1002F0000A308A01B7200330AE00E8308A01E320DB
:1003000041308A01B72054308A01B7202B308A014E
:10031000B72043308A01B7204D308A01B7204730DB
:100320008A01B72046308A01B7203D308A01B720C4
:1003300031308A01B7200D308A01B7200A308A0196
:10034000B7200330AE00E8308A01E32041308A0153
:10035000B72054308A01B7202B308A01B7204330B0
:100360008A01B7204E308A01B7204D308A01B7206C
:1003700049308A01B7203D308A01B72031308A01E7
:10038000B7202C308A01B72032308A01B7202C30B8
:100390008A01B72030308A01B7202C308A01B7207B
:1003A00030308A01B7202C308A01B72030308A01E2
:1003B000B7200D308A01B7200A308A01B7200330F8
:1003C000AE00E8308A01E3208030A100C0308A010D
:1003D0001D200630A60044308A01C1200330AE0043
:1003E000E8308A01E3208A113E228030A1008A0190
:1003F0001D204C308A01402061308A0140203A3073
:100400008A01402020308A0140200C30A500B00134
:100410006B308A01242020308A0140208030A100E6
:10042000C0308A011D204C308A0140206F308A0183
:1004300040203A308A01402020308A0140200C3090
:10044000A50077308A01312020308A0140208A11AE
:1004500074248316AF0A0319B00A3008013A2C300D
:1004600003192F068A118312031D3C2A8316B0013B
:10047000AF0183128A113E228A01F5298A011320D5
:100480008030A1008A011D200630A6004D308A016F
:10049000C12041308A01B72054308A01B7202B3067
:1004A0008A01B72043308A01B72047308A01B7203C
:1004B00050308A01B72053308A01B72050308A016A
:1004C000B72057308A01B72052308A01B7203D301B
:1004D0008A01B72031308A01B7200D308A01B72058
:1004E0000A308A01B7200330AE00E8308A01E320E9
:1004F0008A0113208030A100C0308A011D200630FF
:10050000A6005C308A01C12041308A01B7205430F6
:100510008A01B7202B308A01B72043308A01B720E7
:1005200047308A01B72050308A01B72053308A0102
:10053000B7208A01B72054308A01B72041308A01A0
:10054000B72054308A01B72055308A01B720533084
:100550008A01B7203F308A01B7200D308A01B720C9
:100560000A308A01B7200330A700E830A3008A01CF
:100570008F208A11031C782A443C8A11031DB72A54
:100580008A018F208A11031C782A203C8A11031DBE
:10059000B72A8A018F208A11031C782A463C8A11C7
:1005A000031DB72A8A018F208A11031C782A693C0F
:1005B0008A11031DB72A8A018F208A11031C782A09
:1005C000783C8A11031DB72A8A0113208030A100CC
:1005D000C0308A011D200630A6006D308A01C1207E
:1005E0000330AE00E8308A01E3208A011320413055
:1005F0008A01B72054308A01B7202B308A01B720F6
:1006000043308A01B72047308A01B72050308A0131
:10061000B72053308A01B72049308A01B7204E30C5
:100620008A01B72046308A01B7203D308A01B720C1
:1006300030308A01B7200D308A01B7200A308A0194
:10064000B720A7016430A300A80103148A018F20FA
:100650008A11031C722C2808373E84001A08800077
:10066000A80A2808283C8A11031D252B41308A013D
:10067000B72054308A01B7202B308A01B72043308D
:100680008A01B72047308A01B72050308A01B7204D
:1006900053308A01B72052308A01B72053308A0183
:1006A000B72054308A01B7203D308A01B72030305E
:1006B0008A01B7200D308A01B7200A308A01B7209D
:1006C0000330AE00E8308A01E32041308A01B720D0
:1006D00054308A01B7202B308A01B72043308A0179
:1006E000B72047308A01B72050308A01B7205330F5
:1006F0008A01B72052308A01B72053308A01B720CF
:1007000054308A01B7203D308A01B72031308A0148
:10071000B7200D308A01B7200A308A01B720033094
:10072000AE00E8308A01E32041308A01B72054301E
:100730008A01B7202B308A01B72043308A01B720C5
:1007400047308A01B72050308A01B72053308A01E0
:10075000B72050308A01B72057308A01B720523075
:100760008A01B7203D308A01B72030308A01B72096
:100770000D308A01B7200A308A01B7200330AE005D
:10078000E8308A01E3200F308316AE0083121A305E
:1007900083162E028A1183120318E62B0F3083165C
:1007A0002E028312A80083162E08373E840000080C
:1007B0008312A90028085F3E8400290880000130C8
:1007C0008316AE078A118312031CC62B5F08A9008B
:1007D0002908EB006008A9002908EC002E30ED0084
:1007E0006108A9002908EE006208A9002908EF00A5
:1007F00005308316AE0083120B3083162E028A1149
:1008000083120318182C83162E085F3E84000008FC
:100810008312A90083162E086B3E840083122908D8
:10082000800001308316AE078A118312031CFB2B54
:10083000F6011B308316AE008312263083162E027B
:100840008A11831203183C2C1B3083162E0283124C
:10085000A90083162E08373E840000088312AA00E0
:1008600029085F3E84002A08800001308316AE0705
:100870008A118312031C1C2C5F08AA002A08F700A7
:100880006008AA002A08F8002E30F9006108AA00C2
:100890002A08FA006208AA002A08FB00053083161D
:1008A000AE0083120B3083162E028A1183120318B6
:1008B000702C83162E085F3E840000088312AA0065
:1008C00083162E088312A6007730A5002A088A0115
:1008D000032101308316AE078A118312031C512CA9
:1008E0008316A201831208000330A700E830A3009A
:1008F0008A018F208A11031C222E2B3C8A11031D92
:10090000782C8A018F208A11031C222E383C8A11F0
:10091000031D782C8A018F208A11031C222E383C5B
:100920008A11031D782CAA0103148A018F208A11D1
:10093000031C222E2A08A33E84001A088000AA0A5B
:100940002A080B3C8A11031D942C8A018F208A11DE
:10095000031C222E4C3C8A11031DA52C8A018F20DA
:100960008A11031C222E4F3C8A11031DA52C8A01DB
:100970008F208A11031C222E433C8A11031DA52CB3
:100980008A018F208A11031C222E413C8A11031DEB
:10099000A52C8A018F208A11031C222E543C8A1117
:1009A000031DA52C8A018F208A11031C222E493C8D
:1009B0008A11031DA52C8A018F208A11031C222E67
:1009C0004F3C8A11031DA52C8A018F208A11031C1C
:1009D000222E4E3C8A11031DA52C8A011320803043
:1009E000A100C0308A011D200630A6007D308A019A
:1009F000C12041308A01B72054308A01B7202B3002
:100A00008A01B72043308A01B7204D308A01B720D0
:100A100047308A01B72046308A01B7203D308A012D
:100A2000B72031308A01B7200D308A01B7200A3053
:100A30008A01B7200330AE00E8308A01E32041305C
:100A40008A01B72054308A01B7202B308A01B720A1
:100A500043308A01B7204D308A01B72047308A01E0
:100A6000B72053308A01B7203D308A01B7202230A9
:100A70008A01B7200430A1000B30A500B001A330DB
:100A80008A01242022308A01B7200D308A01B72044
:100A90000A308A01B7200330AE00E8308A01E32033
:100AA0004C308A01B72061308A01B72074308A0146
:100AB000B72069308A01B72074308A01B7207530B9
:100AC0008A01B72064308A01B72065308A01B720D7
:100AD0003A308A01B7200430A1000C30A500B001E3
:100AE0006B308A0124200D308A01B7204C308A01F6
:100AF000B7206F308A01B7206E308A01B720673087
:100B00008A01B72069308A01B72074308A01B72082
:100B100075308A01B72064308A01B72065308A01B8
:100B2000B7203A308A01B7200430A1000C30A5006C
:100B300077308A0131200D308A01B72068308A0170
:100B4000B72074308A01B7208A01B72070308A013B
:100B5000B72073308A01B7203A308A01B7202F308E
:100B60008A01B7208A01B72077308A01B7208A012D
:100B7000B7208A01B7202E308A01B72067308A015A
:100B8000B7206F308A01B7208A01B72067308A0109
:100B9000B7206C308A01B72065308A01B7202E302B
:100BA0008A01B72063308A01B7206F308A01B720ED
:100BB0006D308A01B7202F308A01B7206D308A014D
:100BC000B72061308A01B72070308A01B7207330B6
:100BD0008A01B7202F308A01B72070308A01B720F0
:100BE0006C308A01B72061308A01B72063308A01F6
:100BF000B72065308A01B7202F308A01B720043032
:100C0000A1000C30A500B0016B308A0124202C30EB
:100C10008A01B7200C30A50077308A0131200D30D1
:100C20008A01B7201A308A01B7200D308A01B72017
:100C30000A308A01B7201330AE0088308A01E320E1
:100C40008A01132008008A01232E50006C006500E1
:100C50006100730065002000770061006900740086
:100C60002E002E00000043006F006E007400610033
:100C70006300740069006E006700200047005300A5
:100C80004D002E002E000000470053004D002000B4
:100C90004F004B002E002E00000047005000530074
:100CA000200050006F0077006500720020005500A2
:100CB00050002E002E000000460069006E00640007
:100CC00069006E00670020004C006F006300610047
:100CD000740069006F006E0000004C006F0063003C
:100CE0006100740069006F006E002000460069001A
:100CF0007800650064002E00000053004D00530092
:100D00002000530065006E00640069006E006700FB
:080D10002E002E002E00000051
:02400E00AA3FC7
:00000001FF
