:1000000031298313B500B601B60D003036028030B9
:1000100003193502031C1028B21B10282030B50725
:100020003508840008008030A100FE30DD2001305A
:10003000DD207530AC003030F628A101A117B400E6
:10004000FE30DD203408DD28A501AF00B001A0118D
:1000500025080319A0150530A4002730AE00103084
:100060003D200330AE00E8303D20AE0164303D203D
:10007000AE010A303D202F084428AD003008AC0006
:100080002F08AB0009212B08AB00A4030319A01112
:10009000250803194E282402031855282B08031D90
:1000A000A011A0195528303EDD280800AF00240813
:1000B000031925292F088400000803192529DD20AC
:1000C000AF0AA4035728B2008611061183168611C1
:1000D00006110F30860583123208A0188D283E3095
:1000E000AC008030F6203330B100A1201330AC00DA
:1000F0008830F620A1206430F520A1206430F5205E
:100100002230B100A12028308C200C308C20063009
:100110008C20A01432088D282014B100201C9B28AC
:100120000611033C031CA028A0200730AC00D030EF
:10013000F620031408002014FE3C0319AE2806150F
:10014000201C201086150F3086053108F0398604F2
:100150008611B10E2018A1283230F5203208252949
:100160009818181218162208AB002608AC00AD012A
:10017000AE01BA28BB2800008C1AD528FF30AD0785
:10018000031CAE07031CAB07031CAC07031C25298B
:100190002D0FB9282E0FBA286430AD00AE01BB2850
:1001A0009818181218168C1ED3281A08031425291B
:1001B0000C1ED828990003142529A11B6328211996
:1001C000D82808008001840AFF3E031DE228252963
:1001D000AE01AD00FF30AD07031CAE07031C25299F
:1001E0000330AC00E330F620EA28AC01F43EAB006B
:1001F000AC09FE30031CFF28AB070318FC28AB0733
:100200000000AC0FFC2800002B1806292B18082929
:100210000800B001AF011030B1002C0DAF0DB00DD2
:100220002D08AF022E08031C2E0FB00203181F2941
:100230002D08AF072E0803182E0FB0070310AB0DC3
:10024000AC0DB10B0D292B08080083138312031387
:100250000800B1002308B20031082307012000087C
:100260002529830183160C309900203098008312D1
:1002700090309800A0012030840060308A01E22094
:10028000A030840060308A01E2203030DE0031305E
:10029000DF003930E000E1003430E2003130E300CB
:1002A0003730E4003130E5003530E6003930E70022
:1002B0003130E8003030E9003130EA003930EB000D
:1002C0003430EC003630ED003930EE003330EF00E2
:1002D000F000F1003530F200F3003030F40031303E
:1002E000F5003830F6003730F7003530F800373099
:1002F000F9003530FA003230FB003330FC00343086
:10030000FD003730FE003030FF0031308316A00092
:100310003830A1003330A200A3003930A4003030BF
:10032000A5003530A6003930A7003630A800A90056
:100330003030AA003130AB003830AC003330AD0083
:10034000AE003930AF003030B0003530B100393058
:10035000B2003630B300B4003030B5003130B600F2
:100360003830B7003330B800B9003930BA00303017
:10037000BB003530BC003930BD003630BE00BF0098
:100380003030C0003130C1003830C2003330C300DB
:10039000C4003930C5003030C6003530C7003930B0
:1003A000C8003630C900CA003030CB003130CC0034
:1003B0003830CD003330CE00CF003930D00030306F
:1003C000D1003530D2003930D3003630D400D500DA
:1003D0003030D6003130D7003830D8003330D90033
:1003E000DA003930DB003030DC003530DD00393008
:1003F000DE003630DF00E0000716FE3083128A018F
:10040000632001308A0163208A1130248030A100EA
:10041000D4308A011D2043308A0163206F308A0165
:1004200063206E308A01632074308A01632061305A
:100430008A01632063308A01632074308A0163205B
:1004400069308A0163206E308A01632067308A0137
:10045000632020308A01632047308A0163205330B3
:100460008A0163204D308A0163202E308A01632087
:100470008A0163208A0163208A11CD248030A10083
:10048000D4308A011D2047308A01632053308A010D
:1004900063204D308A01632020308A0163204D3073
:1004A0008A0163206F308A01632064308A016320EF
:1004B00075308A0163206C308A01632065308A01BF
:1004C000632020308A01632063308A0163206F300B
:1004D0008A0163206E308A0163208A0163206530BF
:1004E0008A01632063308A01632074308A016320AB
:1004F00065308A01632064308A0163200330AE00D6
:10050000E8308A01E9205D108A0113208A11302425
:100510008A115D18082BDD145D15DD155D16803020
:10052000A100C6308A011D204F308A016320463069
:100530008A0163208A0163208030A100D1308A01C2
:100540001D204F308A01632046308A0163208A01D2
:1005500063208030A1009A308A011D204F308A012B
:10056000632046308A0163208A0163208030A10025
:10057000A5308A011D204F308A01632046308A0150
:1005800063208A0163208030A100D5308A011D20BC
:1005900056308A0163206F308A01632074308A01EB
:1005A000632069308A0163206E308A0163206730DE
:1005B0008A01632020308A01632061308A01632030
:1005C00063308A0163208A01632065308A016320D9
:1005D00070308A01632074308A0163203A308A01C6
:1005E000632020308A0163204F308A016320463027
:1005F0008A0163208A0163208A11071E062B0130BD
:10060000AE002C308A01E9200130DD068A01882AFB
:100610008316E101E201E301E40183128A01132060
:100620008A1130248A115D1C822B8030A100C630D3
:100630008A011D208316610883128A0124208030DC
:10064000A100D1308A011D208316620883128A011D
:1006500024208030A1009A308A011D20831663086F
:1006600083128A0124208030A100A5308A011D2038
:100670008316640883128A0124208030A100D530BB
:100680008A011D2056308A0163206F308A01632061
:1006900074308A01632069308A0163206E308A01D8
:1006A000632067308A01632020308A016320613033
:1006B0008A01632063308A0163208A0163206530E8
:1006C0008A01632070308A01632074308A016320BC
:1006D0003A308A01632020308A0163204F308A013A
:1006E00063204E308A0163208A11C9258A11071EB2
:1006F000802B0130AE002C308A01E9200130DD066C
:100700008A01122B8A01842A5C08A7004130270243
:100710008A11031D922B8316E10A83128A11E123A9
:100720008A11E02B5C08A700423027028A11031DC2
:10073000A02B8316E20A83128A11E1238A11E02B8F
:100740005C08A700433027028A11031DAE2B8316D5
:10075000E30A83128A11E1238A11E02B5C08A700C7
:10076000443027028A11031DBC2B8316E40A83122E
:100770008A11E1238A11E02B5730B8007230B9009A
:100780006F30BA006E30BB006730BC002030BD0057
:100790006630BE006F30BF007230C0006D30C100E7
:1007A0006130C2007430C3002030C4005330C50033
:1007B0004D30C6005330C7002E30C8008A115C256A
:1007C00008005930B8006F30B9007530BA00723087
:1007D000BB002030BC007630BD006F30BE007430EE
:1007E000BF006530C0002030C1006130C2006330FE
:1007F000C300C4006530C5007030C6007430C70047
:100800006530C8006430C9002E30CA008A115C25EA
:1008100008005930B8006F30B9007530BA00203088
:10082000BB006130BC006C30BD007230BE00653072
:10083000BF006130C0006430C1007930C200203098
:10084000C3007630C4006F30C5007430C600653018
:10085000C7006430C8002E30C9008A115C2508002A
:100860008030A1008A011D2020308A01632053308E
:100870008A0163204D308A01632053308A0163204E
:1008800020308A01632056308A0163206F308A014C
:10089000632074308A01632069308A0163206E30DE
:1008A0008A01632067308A01632020308A01632037
:1008B0004D308A01632061308A01632063308A01F0
:1008C000632068308A01632069308A0163206E30BA
:1008D0008A01632065308A01632020308A01632009
:1008E0008030A100C0308A011D2043308A0163207E
:1008F00061308A0163206E308A0163205F308A0193
:10090000632041308A0163203A308A0163208030BD
:10091000A100CB308A011D2043308A016320613061
:100920008A0163206E308A0163205F308A01632070
:1009300042308A0163203A308A0163208030A1006E
:1009400094308A011D2043308A01632061308A017E
:1009500063206E308A0163205F308A016320433058
:100960008A0163203A308A0163208030A1009F30E1
:100970008A011D2043308A01632061308A0163208F
:100980006E308A0163205F308A01632044308A011F
:1009900063203A308A016320080041308A01D82060
:1009A00054308A01D8200D308A01D8200A308A01BB
:1009B000D8200330A600E830A2008A01B0208A11B6
:1009C000031CCD2C4F3C8A11031DDD2C8A01B02065
:1009D0008A11031CCD2C4B3C8A11031DDD2C4130A8
:1009E0008A01D82054308A01D82045308A01D82085
:1009F00030308A01D8200D308A01D8200A308A018F
:100A0000D82041308A01D82054308A01D8202B3098
:100A10008A01D82043308A01D8204D308A01D8205D
:100A200047308A01D82046308A01D8203D308A01DB
:100A3000D82031308A01D8200D308A01D8200A30E0
:100A40008A01D82041308A01D82054308A01D82028
:100A50002B308A01D82043308A01D8204E308A01B9
:100A6000D8204D308A01D82049308A01D8203D3025
:100A70008A01D82031308A01D8202C308A01D82030
:100A800032308A01D8202C308A01D82030308A01B7
:100A9000D8202C308A01D82030308A01D8202C3040
:100AA0008A01D82030308A01D8200D308A01D82020
:100AB0000A308A01D820080041308A01D8205430F9
:100AC0008A01D8202B308A01D82043308A01D820CF
:100AD0004D308A01D82047308A01D82046308A011B
:100AE000D8203D308A01D82031308A01D8200D30FD
:100AF0008A01D8200A308A01D820C8308A01E8202B
:100B000041308A01D82054308A01D8202B308A0104
:100B1000D82043308A01D8204D308A01D820473070
:100B20008A01D82053308A01D8203D308A01D8204C
:100B3000C8308A01E82022308A01D8200430A10080
:100B40000B30A400B0014C308A01562022308A01BB
:100B5000D8200D308A01D8200A308A01D820C83028
:100B60008A01E8200430A1001430A400B00138301C
:100B70008A0156201A308A01D8200D308A01D820E7
:100B80000A308A01D8201330AE0088308A01E9206B
:100B900008000B30AB004C3084008001840AAB03AA
:100BA0008A11031DCD2D0630AB0057308400800123
:100BB000840AAB038A11031DD72D0330A600E83049
:100BC000A2008A01B0208A11031CF22E2B3C8A114C
:100BD000031DE12D8A01B0208A11031CF22E383C3E
:100BE0008A11031DE12D8A01B0208A11031CF22E07
:100BF000383C8A11031DE12DA80103148A01B0209D
:100C00008A11031CF22E28084C3E84001A0880002A
:100C1000A80A28080B3C8A11031DFD2D8A01B0206B
:100C20008A11031CF22E0D3C8A11031D0E2E8A011F
:100C3000B0208A11031CF22E0A3C8A11031D0E2ECD
:100C4000A80103148A01B0208A11031CF22E28087F
:100C5000573E84001A088000A80A2808063C8A111A
:100C6000031D212E5508A8006708A900280829029D
:100C70008A110319492E7208A900280829028A112D
:100C80000319492E7D08A900280829028A11031D8D
:100C90006A2E5608A9006808AA0029082A028A11A3
:100CA0000319602E7308AA0029082A028A11031961
:100CB000602E7E08AA0029082A028A11031D6A2EC6
:100CC0008A11DD1C682E8A018423DD108A116A2EA8
:100CD0008A0109245508A800831628088312A90050
:100CE000280829028A110319872E831633088312D4
:100CF000A900280829028A110319872E83163E08A5
:100D00008312A900280829028A11031DAE2E560855
:100D1000A900831629088312AA0029082A028A1129
:100D20000319A42E831634088312AA0029082A0264
:100D30008A110319A42E83163F088312AA002908DA
:100D40002A028A11031DAE2E8A115D1DAC2E8A0166
:100D500084235D118A11AE2E8A0109245508A8004A
:100D6000831649088312A900280829028A11031949
:100D7000CB2E831654088312A900280829028A1151
:100D80000319CB2E83165F088312A90028082902B5
:100D90008A11031DF22E5608A90083164A088312F1
:100DA000AA0029082A028A110319E82E8316550879
:100DB0008312AA0029082A028A110319E82E831631
:100DC00060088312AA0029082A028A11031DF22E44
:100DD0008A11DD1DF02E8A018423DD118A11F22E85
:0A0DE0008A01092408008A01F32E9D
:02400E00F13F80
:00000001FF
