:020000005D2978
:0E000600533083120313FD00FD0B0728080082
:10001400243083120313FC00B530FD00FD0B1028BF
:0A002400FC0B10280000000008008B
:0C002E00000000000000000000000800BE
:10003A0083120313BE1B23288613242886173E1B0C
:10004A002828061329280617BE1A2D2886122E28B4
:10005A0086163E1A32280612332806163218372810
:10006A00061538280611861517208611BE193F284D
:10007A008613402886173E19442806134528061772
:10008A00BE18492886124A2886163E184E28061295
:10009A004F280616321853280615542806118615B5
:1000AA0017208611321C5B280A205C2803200800CE
:1000BA008312031332103D08BE001D2032140800BB
:1000CA0083120313F801F9011030FC00710DF80DC9
:1000DA00F90D7408F8027508031C750FF902031864
:1000EA007D287408F80775080318750FF9070310B7
:0A00FA00F00DF10DFC0B6B2808005F
:0E0104008312031334088A00330882000800B7
:100112009B28803083120313B900AE28C030B90087
:10012200AE289430B900AE28D430B900AE28803061
:10013200B900AE28831203133908013A03198A2839
:100142003908023A03198F283908033A0319922809
:100152003908043A0319952898283A03F000390817
:10016200F0077008B9007008BE001D203210BC01F3
:100172003C083B07840000080319C7283C083B07DA
:1001820084000008BD005D20BC0AB92832140800B2
:10019200831603138611061106128612061386139E
:1001A20083128611061186130613861206120A207E
:1001B2000A200A20861606168615172086110A209E
:1001C2008615172086110A208615172086110A2007
:1001D20006128615172086110A2086151720861109
:1001E200861286178615172086110A208613061690
:1001F20086151720861106128615172086110A20E9
:1002020086151720861106168615172086110A20D4
:1002120006128615172086118617061786160616E9
:0C0222008615172086110A2032140800EF
:10022E002E3083120313B700370AB8000A30F400D9
:10023E000030F5003508F0003608F100652030304A
:10024E00F007380884007008800002303707B800C5
:10025E000A30F4000030F5003508F0003608F100E1
:10026E0065207808F0007908F1003030F007380882
:10027E008400700880000130B9000B30BA003708D6
:10028E00BB0089200130B9000E30BA002B30BB0004
:04029E0089200800AB
:1002A20082208A110A128000840AB30A0319B40A4E
:0802B200F003031D51290800AF
:1002BA00463083120313A0005230A1004530A20039
:1002CA005130A3005530A4004530A5004E30A60099
:1002DA004330A7005930A8003A30A900AA01483093
:1002EA00AB007A30AC00AD012030AE003030AF0048
:1002FA003030B000B101FF308316850087018312C8
:10030A008701860183169F0128308100C9200130A8
:10031A00BE001D200C30BE001D2081011A30FB00DA
:10032A005E30FC006E30FD00FD0B9929FC0B99290B
:10033A00FB0B992900000130B9000130BA002030C6
:10034A00BB0089200108B500B601B50CB513003011
:0A035A00B600172181019229B12994
:02400E000A00A6
:00000001FF
