:10000000000000308A00D0288030A100FE30872018
:10001000013087207530A9003030BD28A101A1171B
:10002000B100B108031D1628030117280130B102E1
:100030000310A30CA30CA30CC0302305403EB10752
:10004000FE30872031088728A101A117B100FE30BA
:10005000872031088728AF00861106118316861184
:1000600006110F30860583122F08A01855283E3040
:10007000A9008030BD203330AE0069201330A900C4
:100080008830BD2069206430BC2069206430BC20E9
:100090002230AE006920283054200C305420063025
:1000A0005420A0142F0855282014AE00201C6328CB
:1000B0000611033C031C682868200730A900D030D3
:1000C000BD20031408002014FE3C031978280615EF
:1000D000201C201086150F3086052E08F039860466
:1000E00000008611AE0E0000201869283230BC20B6
:1000F0002F08CC289818181218168C1E7D281A085C
:100100000314CC280C1E822899000314CC28A11BB0
:100110002B28211982280800A500A2012508031711
:100120008D000313260803178F009F200319CC2886
:100130008720A50A0319A60AA20F8E28CC288316A9
:1001400003178C170C140000000083120C08CC2835
:1001500083178001840AFF3E031DA928CC28AB0128
:10016000AA00FF30AA07031CAB07031CCC280330EE
:10017000A900E630BD20B128A901FC3EA800A909CC
:10018000031CC828FF300000A8070318C328A807CD
:100190000000A90FC228080083138312031308006C
:1001A0008301831615309900243098008312903013
:1001B0009800A001073083169C009F008814081542
:1001C00087120714871409118811081488178715D6
:1001D00020308400603083128A01A920A03084007E
:1001E00050308A01A9201030840060308A01A82094
:1001F0009030840060308A01A8208A0104204030B9
:10020000BA005F30BB004130BC004230BD0043301B
:10021000BE003130BF003230C0003330C1008A151B
:100220000A1212281330AB0088308A01B02008006F
:10023000B510EF308A01822001308A018220FF3020
:100240008A018220FF308A018220FF308A018220C9
:10025000FF308A01822001308A01822000308A0129
:10026000822003308A01822001308A0182200030FE
:100270008A01822005308A0182208A017A201A08A8
:10028000C2008A017A201A08C3008A017A201A085B
:10029000C4008A017A201A08C5008A017A201A0847
:1002A000C6008A017A201A08C7008A017A201A0833
:1002B000C8008A017A201A08C9008A017A201A081F
:1002C000CA008A017A201A08CB008A017A201A080B
:1002D000CC008A017A201A08CD004B08A700A70895
:1002E0008A110A12031976298A011829EF308A0126
:1002F000822001308A018220FF308A018220FF3073
:100300008A018220FF308A018220FF308A01822008
:1003100001308A01822000308A01822004308A0163
:10032000822002308A01822001308A01822000303E
:100330008A01822008308A0182208A017A201A08E4
:10034000C2008A017A201A08C3008A017A201A089A
:10035000C4008A017A201A08C5008A017A201A0886
:10036000C6008A017A201A08C7008A017A201A0872
:10037000C8008A017A201A08C9008A017A201A085E
:10038000CA008A017A201A08CB008A017A201A084A
:10039000CC008A017A201A08CD004B08A700A708D4
:1003A0008A110A120319D629B5140800EF308A0100
:1003B000822001308A018220FF308A018220FF30B2
:1003C0008A018220FF308A018220FF308A01822048
:1003D00001308A01822000308A01822003308A01A4
:1003E000822001308A01822000308A01822005307B
:1003F0008A0182208A017A201A08C2008A017A20A2
:100400001A08C3008A017A201A08C4008A017A20D7
:100410001A08C5008A017A201A08C6008A017A20C3
:100420001A08C7008A017A201A08C8008A017A20AF
:100430001A08C9008A017A201A08CA008A017A209B
:100440001A08CB008A017A201A08CC008A017A2087
:100450001A08CD004B08A700A7088A110A12031931
:10046000332A8A01D629EF308A01822001308A019D
:100470008220FF308A018220FF308A018220FF30F3
:100480008A018220FF308A01822001308A01822085
:1004900000308A01822004308A01822002308A01E1
:1004A000822002308A01822000308A0182200930B5
:1004B0008A0182208A017A201A08C2008A017A20E1
:1004C0001A08C3008A017A201A08C4008A017A2017
:1004D0001A08C5008A017A201A08C6008A017A2003
:1004E0001A08C7008A017A201A08C8008A017A20EF
:1004F0001A08C9008A017A201A08CA008A017A20DB
:100500001A08CB008A017A201A08CC008A017A20C6
:100510001A08CD004B08A700A7088A110A12031970
:10052000932AB5140800EF308A01822001308A0135
:100530008220FF308A018220FF308A018220FF3032
:100540008A018220FF308A01822001308A018220C4
:1005500000308A01822003308A01822005308A011E
:10056000822000308A01822009308A0182208A019B
:100570007A201A08C2008A017A201A08C3008A0168
:100580007A201A08C4008A017A201A08C5008A0154
:100590007A201A08C6008A017A201A08C7008A0140
:1005A0007A201A08C8008A017A201A08C9008A012C
:1005B0007A201A08CA008A017A201A08CB008A0118
:1005C0007A201A08CC008A017A201A08CD004B083C
:1005D000A700A7088A110A120319F02AB514080007
:1005E0000F305707D800EF308A01822001308A018E
:1005F0008220FF308A018220FF308A018220FF3072
:100600008A018220FF308A01822001308A01822003
:1006100000308A01822006308A01822006308A0159
:10062000822002308A01822000308A01822057080D
:100630008A01822000308A01822058088A018220A3
:100640008A017A201A08C2008A017A201A08C30097
:100650008A017A201A08C4008A017A201A08C50083
:100660008A017A201A08C6008A017A201A08C7006F
:100670008A017A201A08C8008A017A201A08C9005B
:100680008A017A201A08CA008A017A201A08CB0047
:100690008A017A201A08CC008A017A201A08CD0033
:1006A0004B08A700A7088A110A120319592BB51481
:1006B00008000800B510EF308A01822001308A015D
:1006C0008220FF308A018220FF308A018220FF30A1
:1006D0008A018220FF308A01822001308A01822033
:1006E00000308A01822003308A01822001308A0191
:1006F000822000308A01822005308A0182208A010E
:100700007A201A08C2008A017A201A08C3008A01D6
:100710007A201A08C4008A017A201A08C5008A01C2
:100720007A201A08C6008A017A201A08C7008A01AE
:100730007A201A08C8008A017A201A08C9008A019A
:100740007A201A08CA008A017A201A08CB008A0186
:100750007A201A08CC008A017A201A08CD004B08AA
:10076000A700A7088A110A120319B82B8A015A2B6D
:10077000EF308A01822001308A018220FF308A0115
:100780008220FF308A018220FF308A018220FF30E0
:100790008A01822001308A01822000308A01822071
:1007A00004308A01822002308A01822001308A01CD
:1007B000822000308A01822008308A0182208A014A
:1007C0007A201A08C2008A017A201A08C3008A0116
:1007D0007A201A08C4008A017A201A08C5008A0102
:1007E0007A201A08C6008A017A201A08C7008A01EE
:1007F0007A201A08C8008A017A201A08C9008A01DA
:100800007A201A08CA008A017A201A08CB008A01C5
:100810007A201A08CC008A017A201A08CD004B08E9
:10082000A700A7088A110A120319182CB51408008A
:10083000EF308A01822001308A018220FF308A0154
:100840008220FF308A018220FF308A018220FF301F
:100850008A01822001308A01822000308A018220B0
:1008600008308A0182201B308A01822001308A01EF
:10087000822000308A01822000308A0182200330E9
:100880008A018220E9308A01822001308A01822097
:1008900011308A0182208A017A201A08C2008A0156
:1008A0007A201A08C3008A017A201A08C4008A0133
:1008B0007A201A08C5008A017A201A08C6008A011F
:1008C0007A201A08C7008A017A201A08C8008A010B
:1008D0007A201A08C9008A017A201A08CA008A01F7
:1008E0007A201A08CB008A017A201A08CC008A01E3
:1008F0007A201A08CD008A017A201A08CE008A01CF
:100900007A201A08CF008A017A201A08D0008A01BA
:100910007A201A08D1004B08A700A7088A110A12EA
:100920000319942CB51408004D08D6000800B51022
:1009300015305707D800EF308A01822001308A0134
:100940008220FF308A018220FF308A018220FF301E
:100950008A018220FF308A01822001308A018220B0
:1009600000308A01822007308A0182200C308A01FF
:10097000822000308A01822057088A0182200030BC
:100980008A01822001308A01822000308A0182207F
:1009900058088A0182208A017A201A08C2008A0136
:1009A0007A201A08C3008A017A201A08C4008A0132
:1009B0007A201A08C5008A017A201A08C6008A011E
:1009C0007A201A08C7008A017A201A08C8008A010A
:1009D0007A201A08C9008A017A201A08CA008A01F6
:1009E0007A201A08CB008A017A201A08CC008A01E2
:1009F0007A201A08CD004B08A700A7088A110A120E
:100A00000319042DB51408000800B510EF308A0151
:100A1000822001308A018220FF308A018220FF304B
:100A20008A018220FF308A018220FF308A018220E1
:100A300001308A01822000308A01822003308A013D
:100A400082200D308A01822000308A0182201130FC
:100A50008A0182208A017A201A08C2008A017A203B
:100A60001A08C3008A017A201A08C4008A017A2071
:100A70001A08C5008A017A201A08C6008A017A205D
:100A80001A08C7008A017A201A08C8008A017A2049
:100A90001A08C9008A017A201A08CA008A017A2035
:100AA0001A08CB008A017A201A08CC008A017A2021
:100AB0001A08CD004B08A700A7088A110A120319CB
:100AC000632DB51408000800B510EF308A018220AC
:100AD00001308A018220FF308A018220FF308A01A2
:100AE0008220FF308A018220FF308A01822001307B
:100AF0008A01822000308A01822003308A0182200C
:100B00001D308A01822000308A01822021308A0132
:100B100082208A017A201A08C2008A017A201A08E3
:100B2000C3008A017A201A08C4008A017A201A08B0
:100B3000C5008A017A201A08C6008A017A201A089C
:100B4000C7008A017A201A08C8008A017A201A0888
:100B5000C9008A017A201A08CA008A017A201A0874
:100B6000CB008A017A201A08CC008A017A201A0860
:100B7000CD008A017A201A08CE008A017A201A084C
:100B8000CF004B08A700A7088A110A120319CA2D23
:100B9000B51408004D08D90008008A010420850119
:100BA00086018701880189018030A100C0308A0157
:100BB00024200A30A60038308A018C2035108A158E
:100BC0000A1201222730AB0010308A01B0208A01BE
:100BD00012218A150A1212288316891409148516FF
:100BE00005168511051185100510831235148A111B
:100BF0000A123518FD2D8A01EC2DDB01DA0185156D
:100C000005118510051001308A01AF208A110A12E2
:100C1000891C122E0130DA008A110A12D5268A1197
:100C20000A12332E8A110A12091C1E2E0230DA0013
:100C30008A110A12D5268A110A12332E8A110A1233
:100C4000851E2A2E0330DA008A110A12D5268A114F
:100C50000A12332E8A110A12051E332E0430DA00CE
:100C60008A110A12D5268511051585100510013047
:100C70008A01AF208A110A12891C462E0530DA003B
:100C80008A110A12D5268A110A12672E8A110A12AF
:100C9000091C522E0630DA008A110A12D5268A1152
:100CA0000A12672E8A110A12851E5E2E0730DA009C
:100CB0008A110A12D5268A110A12672E8A110A127F
:100CC000051E672E0830DA008A110A12D526851112
:100CD00005118514051001308A01AF208A110A120E
:100CE000891C7A2E0930DA008A110A12D5268A1157
:100CF0000A129B2E8A110A12091C862E0A30DA006B
:100D00008A110A12D5268A110A129B2E8A110A12FA
:100D1000851E922E0B30DA008A110A12D5268A110E
:100D20000A129B2E8A110A12051E9B2E0C30DA0025
:100D30008A110A12D5268511051185100514013076
:100D40008A01AF208A110A12891CAE2E0D30DA00FA
:100D50008A110A12D5268A110A12CF2E8A110A1276
:100D6000091CBA2E0E30DA008A110A12D5268A1111
:100D70000A12CF2E8A110A12851EC62E0F30DA00F3
:100D80008A110A12D5268A110A12CF2E8A110A1246
:100D9000051ECF2E1030DA008A110A12D526DA0885
:100DA0008A110A120319FF2D0800DA088A110A12A3
:100DB000031DDF2EDB0108008A110A12E12F01302A
:100DC0005A028A110A12031DEF2E3130DB00013066
:100DD000AB00F4308A01B0208A110A12E12F0230F0
:100DE0005A028A110A12031DFF2E3430DB00013033
:100DF000AB00F4308A01B0208A110A12E12F0330CF
:100E00005A028A110A12031D0F2F3730DB000130FE
:100E1000AB00F4308A01B0208A110A12E12F0430AD
:100E20005A028A110A12031D1F2F2A30DB000130DB
:100E3000AB00F4308A01B0208A110A12E12F05308C
:100E40005A028A110A12031D2F2F3230DB000130A3
:100E5000AB00F4308A01B0208A110A12E12F06306B
:100E60005A028A110A12031D3F2F3530DB00013070
:100E7000AB00F4308A01B0208A110A12E12F07304A
:100E80005A028A110A12031D4F2F4030DB00013035
:100E9000AB00F4308A01B0208A110A12E12F083029
:100EA0005A028A110A12031D5F2F3030DB00013015
:100EB000AB00F4308A01B0208A110A12E12F093008
:100EC0005A028A110A12031D6F2F3330DB000130E2
:100ED000AB00F4308A01B0208A110A12E12F0A30E7
:100EE0005A028A110A12031D7F2F3630DB000130AF
:100EF000AB00F4308A01B0208A110A12E12F0B30C6
:100F00005A028A110A12031D8F2F5F30DB00013055
:100F1000AB00F4308A01B0208A110A12E12F0C30A4
:100F20005A028A110A12031D9F2F2330DB00013061
:100F3000AB00F4308A01B0208A110A12E12F0D3083
:100F40005A028A110A12031DAF2F4130DB00013013
:100F5000AB00F4308A01B0208A110A12E12F0E3062
:100F60005A028A110A12031DBF2F4230DB000130E2
:100F7000AB00F4308A01B0208A110A12E12F0F3041
:100F80005A028A110A12031DCF2F4330DB000130B1
:100F9000AB00F4308A01B0208A110A12E12F103020
:100FA0005A028A110A12031DDF2F4430DB00013080
:100FB000AB00F4308A01B0208A110A12E12FDB0164
:100FC000080008008A110A128719E92F8A150A12E7
:100FD00029208A110A120718F02F8A150A122920CF
:100FE0008A110A12871CF72F8A150A1229208A11E2
:100FF0000A12881FFF2FB70AC8308A01AF200530B8
:1010000037028A150A12031D0928B7018A150A1228
:1010100029208A150A12081810288A150A12402059
:101020008A01E22F8A0104208030A1008A01242055
:101030000A30A60046308A018C208030A100C030E2
:101040008A0124200A30A60057308A018C208A01A8
:10105000E22F8A0104208030A1008A0124200A3076
:10106000A60064308A018C20881587160730AB00F3
:10107000D0308A01B020881187128A150A121228EE
:101080008A0104208030A1008A0124200A30A600B1
:1010900072308A018C20B601083036028A150A1295
:1010A000031890288A01F7252A305B028A150A1254
:1010B000031D5D288A150A12962036083A3E8400E0
:1010C0000008A7005B0827028A150A12031D75286D
:1010D0008030A1000230A300360A8A0110202A3095
:1010E0008A012B208A150A128A288030A100C0307C
:1010F0008A0124200A30A6007E308A018C20073025
:10110000AB00D0308A01B0208A150A1229208A1536
:101110000A1212280130B6078A150A12031C4C283D
:101120008A150A12DF218A150A121228D601803088
:10113000A1008A0124200A30A6008E308A018C206A
:101140008030A100C0308A0124200A30A6009F30E0
:101150008A018C208A01F72541305B028A150A1228
:10116000031D36298A0104208030A1008A01242031
:101170000A30A60072308A018C20B601083036028F
:101180008A150A120318F9288A01F72536083A3E0B
:1011900084000008A7005B0827028A150A12031DB5
:1011A000DE288030A1000230A300360A8A01102018
:1011B0002A308A012B208A150A12F3288030A100D8
:1011C000C0308A0124200A30A6007E308A018C209B
:1011D0000730AB00D0308A01B0208A150A122920CE
:1011E0008A150A1212280130B6078A150A12031C42
:1011F000BE280230D7008A0104208030A1008A0175
:1012000024200A30A600B0308A018C208A011821DF
:101210008A150A12B51C21298030A100C0308A012C
:1012200024200A30A600C0308A018C200330AB0095
:10123000E8308A01B0208A150A1212288A150A128B
:1012400033298030A100C0308A0124200A30A60052
:10125000C7308A018C200330AB00E8308A01B0200F
:101260008A150A1212288A150A12062943305B02CF
:101270008A150A12031D92298A0104208030A100D8
:101280008A0124200A30A600B0308A018C208A010D
:101290005A238A150A12B51C62298030A100C03079
:1012A0008A0124200A30A600C0308A018C20033035
:1012B000AB00E8308A01B0208A150A1212288A157C
:1012C0000A128F29023056028A150A12031D7D293F
:1012D0008030A100C0308A0124200A30A600D1301D
:1012E0008A018C200330AB00E8308A01B0208A15D7
:1012F0000A12DF218A150A128F298030A100C0301E
:101300008A0124200A30A600DD308A018C200330B7
:10131000AB00E8308A01B0208A150A1229208A150C
:101320000A12472944305B028A150A12031DAD29AF
:101330008A0104208030A1008A0124200A30A600FE
:10134000ED308A018C200330AB00E8308A01B020F8
:101350008A0105258A150A12122842305B028A1575
:101360000A12031DB6298A150A1212208A150A12BA
:1013700096288A0104208030A1008A0124200A30A6
:10138000A600F6308A018C208030A100C0308A018E
:1013900024200B30A60004308A018C208A150A1202
:1013A000881CDC298A150A12081DD9298A150A12F7
:1013B000DF218A150A12CE298A150A1212288A01FB
:1013C00004208030A1008A0124200B30A6001430B4
:1013D0008A018C208A150A121B228030A1008A0102
:1013E00024200B30A60021308A018C202730AB004E
:1013F00010308A01B0208A150A1201228A150A12B9
:101400001228B601333036028A150A1203181A2A36
:1014100009150330A90020308A01BD2009114B3085
:10142000A90000308A01BD200130B6078A150A12D2
:10143000031C022A0800B601333036028A150A124C
:101440000318342A09150730A900D0308A01BD20BD
:1014500009114630A90050308A01BD200130B6077D
:101460008A150A12031C1C2A08008A150A12352A3A
:1014700050006C006500610073006500200077007B
:101480006100690074002E002E00000048006F000B
:101490006D0065005300650063007500720069000F
:1014A00074007900200053005900530000004400EC
:1014B0006F006F00720020004C006F0063006B0033
:1014C000650064002E000000530065006E0064009B
:1014D00069006E006700200053004D0053002E008D
:1014E0002E00000045006E007400650072002000B0
:1014F00070006100730073003A0000005700720032
:101500006F006E00670020005000610073007300E0
:1015100077006F007200640021000000460069003F
:101520006E006700650072007000720069006E0056
:10153000740020006D006F00640065000000410031
:101540003A004E0065007700200043003A00470053
:101550004F00200044003A0044004C0054000000BA
:1015600050007500740020007500720020006600B5
:1015700069006E006700650072002E002E000000FA
:101580004500720072006F0072002E0000004900DA
:1015900044002000410064006400650064002E00E7
:1015A00000004900440020004D0061007400630009
:1015B0006800650064002E0000004900440020001F
:1015C0006E006F00740020004D0061007400630025
:1015D0006800650064002E000000440065006C0097
:1015E00065007400650064002E00000056006F0066
:1015F00069006300650020004D006F006400650015
:101600002E002E002E000000530061007900200003
:10161000700061007300730077006F007200640057
:101620002E002E002E00000044006F006F0072009C
:1016300020004F00700065006E00650064002E0001
:1016400000004C006F0063006B00200069006E001A
:0E1650002000310030005300650063000000F0
:02400E003A1E58
:00000001FF
