:10000000DC288313B200B301B30D0030330280301B
:1000100003193202031C1028B01B10282030B2072D
:100020003208840008008030A100FE30A620013094
:10003000A6207530AA003030B928AD002408031975
:10004000C8282D08840000080319C828A620AD0A76
:10005000A4031E28B000061186118316061186110E
:100060000F30860583123008A01854283E30AA00AD
:100070008030B9203330AF0068201330AA008830B8
:10008000B92068206430B82068206430B82022305D
:10009000AF006820283053200C3053200630532006
:1000A000A014300854282014AF00201C62288611A8
:1000B000033C031C672867200730AA00D030B92012
:1000C000031408002014FE3C031977288615201C11
:1000D000201006150F3086052F08F0398604000021
:1000E0000611AF0E0000201868283230B820300802
:1000F000C8289818181218162208A9002608AA005D
:10010000AB01AC018328842800008C1A9E28FF30A4
:10011000AB07031CAC07031CA907031CAA07031C9D
:10012000C8282B0F82282C0F8328FA30AB00AC0193
:1001300084289818181218168C1E9C281A08031464
:10014000C8280C1EA12899000314C828A11B2A281E
:100150002119A1280800AC01AB00FF30AB07031C3C
:10016000AC07031CC8280330AA00E630B920AD282C
:10017000AA01FC3EA900AA09031CC428FF30000004
:10018000A9070318BF28A9070000AA0FBE28080066
:100190008313831203130800AF002408B00025075F
:1001A00001202F088000C828AF002308B0002F08C6
:1001B000230701200008C8288301831620309900F6
:1001C00020309800831290309800A0018316871485
:1001D00007114C30BB004F30BC004330BD004B30EA
:1001E000BE005530BF004E30C0004C30C1004F3013
:1001F000C2004330C3004B30C40083128A01132075
:10020000870183160711831207152730AC001030C1
:100210008A01AC2041308A01A12054308A01A120FA
:100220000D308A01A1200A308A01A1200330A600E6
:10023000E830A2008A0179208A11031C05294F3C6D
:100240008A11031D1A298A0179208A11031C0529A4
:100250004B3C8A11031D1A2941308A01A1205430D8
:100260008A01A12045308A01A12030308A01A120D5
:100270000D308A01A1200A308A01A1200330AC0090
:10028000E8308A01AC2041308A01A12054308A0133
:10029000A1202B308A01A12043308A01A1204D30BA
:1002A0008A01A12047308A01A12046308A01A1207D
:1002B0003D308A01A12031308A01A1200D308A0110
:1002C000A1200A308A01A1200330AC00E8308A0165
:1002D000AC2041308A01A12054308A01A1202B306A
:1002E0008A01A12043308A01A1204E308A01A12039
:1002F0004D308A01A12049308A01A1203D308A0178
:10030000A12031308A01A1202C308A01A120323075
:100310008A01A1202C308A01A12030308A01A1203D
:100320002C308A01A12030308A01A1202C308A0192
:10033000A12030308A01A1200D308A01A1200A308D
:100340008A01A1200330AC00E8308A01AC204130A2
:100350008A01A12054308A01A1202B308A01A120DA
:1003600043308A01A12050308A01A12042308A0105
:10037000A12046308A01A1203D308A01A1202230EF
:100380008A01A12041308A01A12022308A01A120C6
:100390000D308A01A1200A308A01A1208A0199200A
:1003A0002B3C8A11031DCE298A019920383C8A11E1
:1003B000031DCE298A019920383C8A11031DCE29BC
:1003C000A7018A0199202708403E84001A0880006E
:1003D000A70A27080A3C8A11031DE1298A11612214
:1003E0008A111E228A118718F7298A11F9218A0198
:1003F000EE2941308A01A12054308A01A1204430E5
:100400008A01A1202B308A01A12038308A01A12045
:100410008A01A1200430A1000A30A400AE014030BE
:100420008A011D200D308A01A1200A308A01A120F5
:100430001330AC0088308A01AC200800A6013230AD
:10044000A2008A0179208A11031C602A523C8A1179
:10045000031D212A8A0179208A11031C602A493C44
:100460008A11031D212A8A0179208A11031C602A1E
:100470004E3C8A11031D212A8A0179208A11031C0E
:10048000602A473C8A11031D212A41308A01A1209C
:1004900054308A01A12041308A01A1200D308A0107
:1004A000A1200A308A01A1208A0199204F3C8A119B
:1004B000031D542A8A0199204B3C8A11031D542A9A
:1004C00008008316BA010B308312A900353084006E
:1004D0008001840AA9038A11031D682A5030A900EB
:1004E000AA012A08A5004A30A40000308A01CC20C5
:1004F000AA0AA9038A11031D712A0130A600F4304B
:10050000A2008A0179208A11031CE92A2B3C8A1156
:10051000031D812A8A0179208A11031CE92A383CAB
:100520008A11031D812A8A0179208A11031CE92A74
:10053000383C8A11031D812AA70103148A017920FE
:100540008A11031CE92A2708353E84001A08800016
:10055000A70A27080B3C8A11031D9D2A8A017920CE
:100560008A11031CE92A0D3C8A11031DAE2A8A0157
:1005700079208A11031CE92A0A3C8A11031DAE2A3C
:1005800083163A038312AF004A30A3008A01D520B4
:10059000A7000D3027028A110319DE2A8A0199204B
:1005A00083163A088312A5004A30A4001A088A016B
:1005B000CC208316BA0A83128A01C02A83163A0312
:1005C0008312A5004A30A40000308A01CC208A1191
:1005D000EA2208008316BA018312043083163A0215
:1005E0008A1183120318152B4A30A30083163A0888
:1005F00083128A01D420A70083163A08BB3E8400E8
:1006000000088312A800270828028A1103190A2B60
:100610008A11152B831607118312071101308316D7
:10062000BA078A118312031CEC2A8316BA018312BB
:10063000063083163A028A1183120318402B4A307F
:10064000A30083163A0883128A01D420A7008316D8
:100650003A08BF3E840000088312A8002708280239
:100660008A110319352B8A11402B83160711831227
:10067000071501308316BA078A118312031C172B42
:0606800008008A01412B75
:02400E008A0026
:00000001FF
