:02000000852D4C
:10000800FF00030E83018316D9000A08D6008A016F
:1000180070088312A1000B1D22280B113D308100AE
:1000280083164508031922288312D90A5908643A05
:10003800031D22288316D0148312D90183122108A4
:10004800F000831656088A00590E8300FF0E7F0EB3
:0200580009009D
:0C005A0000000000000000000000080092
:10006600243083120313FC00B530FD00FD0B392844
:0A007600FC0B392800000000080010
:0E008000533083120313FD00FD0B44280800CB
:10008E0083160313EB1B4E288312861350288312FC
:10009E00861783166B1B5628831206135828831255
:1000AE0006178316EB1A5E288312861260288312B7
:1000BE00861683166B1A6628831206126828831218
:1000CE000616831650186E28831206157028831292
:1000DE00061186152D2086118316EB1979288312A9
:1000EE0086137B288312861783166B198128831239
:1000FE0006138328831206178316EB18892883129A
:10010E0086128B288312861683166B1891288312FB
:10011E0006129328831206168316501899288312F6
:10012E0006159B288312061186152D20861183161F
:0C013E00501CA3283320A42840200800F7
:10014A007B15FB1FAF280130F300F201F101F0012A
:08015A00FA0DF20CFF30080061
:0E016200F201F101F001F801F3010030080094
:08017000FA1FF2130030080031
:100178008316031350106A08EB00472083165014A7
:0201880008006D
:10018A00243083120313FD00FD0BC9280000080068
:10019A0083120313F8010830FC00700DF80D74087F
:1001AA00F8020318DA28F8070310F00DFC0BD2281E
:0201BA0008003B
:1001BC00F028803083160313E6000329C030E600D4
:1001CC0003299430E6000329D430E600032980305B
:1001DC00E6000329831603136608013A0319DF2886
:1001EC006608023A0319E4286608033A0319E7285B
:1001FC006608043A0319EA28ED286703F00066083C
:10020C00F0077008E6007008EB00472083165010CA
:10021C00E901690868078400000803191D296908A9
:10022C00680784000008EA00BC20E90A0F29501472
:02023C000800B8
:10023E007B14FB1F2A29F201FA1FFF30F200F10096
:0A024E00F000FA0DF20CFF3008007A
:1002580083120313F801F9011030FC00710DF80D39
:10026800F90D7408F8027508031C750FF9020318D4
:1002780044297408F80775080318750FF90703105F
:0A028800F00DF10DFC0B3229080007
:10029200A0017208031D5E297108F2007008F100C6
:1002A200F001A0157208031D5E297108F200F10128
:1002B200A0112016720803196C292008F302031DED
:1002C200031C70290310F21B7429F00DF10DF20DBD
:1002D200F30B642970290130FC00B1207729023028
:0E02E200FC00A52077290430FC00B82008009D
:1002F000FB14FB1F8229FF30F300F200F100F00035
:08030000FA0DF20CFF300800B9
:10030800831203139F01C0309F0483161F179F1782
:100318005E08F000F00D7010F00D7010F00D701008
:10032800700883129F041F14C5201F151F1D9E29C6
:1003380000009A291F101E08F100F00183161E08FC
:08034800F0040030F10408008C
:1003500083120313FB01FC01FA0173080319E72957
:10036000F2178E30F302F31BB8290319B829EA29D2
:10037000F309F30A08307302031CCD29F300F10DD1
:100380007208F100F20108307302031CCD29F10D4F
:10039000F1017308031D0310D52973080319D5292A
:1003A0000310F20CF10CF30BD0297B1B711CDF291D
:1003B000031CDF29F10A0319F20AF21BF629FA1FBE
:1003C000F929F209F109F10A0319F20AF929F201EE
:1003D000F101F9297B14FB1FFC29F201FA1FFC290A
:1003E000FF30F200F100FA0DF20CFC290130FC00A4
:1003F000FE290030FC00FE29FF30FC00FC08031938
:0E040000022A1F217108F0007208F1000800A6
:10040E00643083120313F4000030F5008316600885
:10041E00F0006108F1002C213030F00770088316CF
:10042E00E2006430F4000030F5006008F00061086E
:10043E00F1002C217808F0007908F1000A30F40060
:10044E000030F5002C21303070078316E3000A309F
:10045E00F4000030F5006008F0006108F1002C2176
:10046E007808F0007908F100303070078316E40048
:10047E00E5015E08E6005F08E700E230E800DE20F6
:02048E00080064
:1004900083120313F301083073020318812A05192C
:1004A000522A4F2A3130FD00FD0B542A0000000073
:1004B00005196C2A7308073CF0007008F100013040
:1004C000F00071080319682AF00D7010FF3E622ACF
:1004D000F0097008F2057F2A7308073CF0007008E5
:1004E000F1000130F000710803197A2AF00D701044
:1004F000FF3E742A7008F204051D7F2A7C2AF30A45
:080500004B2A7208F00008000C
:10050800831603138512831285127530FC00E130BF
:10051800FD00FD0B8D2AFC0B8D2A85163130FD0060
:0E052800FD0B942A00000000831685160800C3
:1005360083120313EF014230FD00FD0BA02A0000D9
:100546000519B22A8530FD00FD0BA72A051DAD2A27
:100556000130EF004230FD00FD0BAF2A000008001D
:1005660083120313FB017308031D770803190A2B73
:1005760072087606FA007708F3077E30031CC72A4E
:10058600F30203180D2BCA2AF302031C102B720860
:10059600F8007108FC007008FD00F817F617031044
:1005A600F201F101F0011830A0007D1CE42A740864
:1005B600F00775080318750FF10776080318760F0C
:1005C600F207F20CF10CF00CF80CFC0CFD0C03100D
:1005D600A00BD82AF21BF42AF80DF00DF10DF20D3E
:1005E600F3037B1B701C062BF81F062BF00A03195E
:1005F600F10A0319F20A031D062BF20CF10CF00C9A
:10060600F30A03190D2BFA1FF2130030122B0130D7
:10061600B120122B02307821122B0430A5200000C5
:020626000800CA
:1006280083120313EF014230FD00FD0B192B00006C
:10063800851A2B2B8530FD00FD0B202B851E262BC4
:100648000130EF004230FD00FD0B282B00000800B0
:10065800831603130511831205117530FC00E13070
:10066800FD00FD0B352BFC0B352B05153130FD003E
:0E067800FD0B3C2B000000008316051508004A
:1006860083120313F3010830730203187C2B851AB7
:100696004D2B4A2B3130FD00FD0B4F2B0000000087
:1006A600851A672B7308073CF0007008F1000130CB
:1006B600F00071080319632BF00D7010FF3E5D2BDF
:1006C600F0097008F2057A2B7308073CF0007008F1
:1006D600F1000130F00071080319752BF00D701050
:1006E600FF3E6F2B7008F204851E7A2B772BF30AD8
:0806F600462B7208F000080019
:1006FE00643083120313F40083166008F000CD20DB
:10070E003030F00770088316E1006430F4006008A2
:10071E00F000CD207808F0000A30F400CD20303003
:10072E0070078316E2000A30F4006008F000CD2056
:10073E007808F000303070078316E300E4015E089D
:0E074E00E6005F08E700E130E800DE2008006A
:10075C00C02B803083160313DE00D32BC030DE0099
:10076C00D32B9430DE00D32BD430DE00D32B80304F
:10077C00DE00D32B831603135E08013A0319AF2B4B
:10078C005E08023A0319B42B5E08033A0319B72B1F
:10079C005E08043A0319BA2BBD2B5F03F0005E0808
:1007AC00F0077008DE0050147008EB004720831629
:0E07BC0050106008EB00472083165014080010
:1007CA00831603135E08831203178D0083168C1396
:0A07DA000C1483120C08F000080054
:1007E400831603178C1CF82B0000F22B03135E08EE
:1007F400831203178D00831603135F0883120317F4
:100804008C0083168C130C150B08F0008B135530D9
:100814008D00AA308D008C14F01B122C8B13132C1A
:060824008B170C11080007
:10082A00643083120313F40083166008F000CD20AD
:10083A007808F0000A30F400CD203030F007700854
:10084A008316E1000A30F4006008F000CD20780831
:10085A00F000303070078316E200E3015E08E6001C
:0C086A005F08E700E130E800DE20080035
:10087600831203137008F8007108F000F101F20109
:10088600F301FB01FC019630F300FA017008F10058
:0C0896007808F000F801F2014921080088
:1008A2001A3083120313FB005E30FC006E30FD0031
:1008B200FD0B592CFC0B592CFB0B592C000008008A
:0E08C200831603135B088A005A0882000800A0
:1008D000013083160313DE0084217008D7007108ED
:1008E000D8003B242130F4002330F5002030F600FE
:1008F0007730F700B3220030F4000030F5004830C4
:10090000F6008530F700B322A82170088316D700BF
:060910007108D800080088
:100916008312031307170630FB001330FC00AD30BB
:10092600FD00FD0B942CFC0B942CFB0B942C00006F
:10093600000007130330FB008A30FC005530FD0031
:10094600FD0BA32CFC0BA32CFB0BA32C000000001F
:02095600080097
:10095800842214236F08013A031DD42C4323700802
:100968008316DD004323432370088316DC004323EA
:10097800432383165C085D07F200F3010318F30AAA
:1009880000307306031DCA2C72087006031DD42C90
:100998005D08F100F0015C08F0070318F10AD42C97
:0209A800080045
:1009AA0083160313DE0184217008D4007108D50070
:1009BA003B242130F4002330F5002030F600773054
:1009CA00F700B3220030F4000030F5004830F6009A
:1009DA008530F700B322A82170088316D400710865
:0409EA00D50008002C
:1009EE0061248A110A128000840ADA0A0319DB0ACA
:0809FE00F003031DF72C0800B3
:100A06008316031386110611061286120613861321
:100A160083128611061186130613861206123320D8
:100A2600332033208616061686152D208611332090
:100A360086152D208611332086152D20861133200C
:100A4600061286152D208611332086152D20861137
:100A56008612861786152D208611332086130616D4
:100A660086152D208611061286152D208611332017
:100A760086152D208611061686152D208611332003
:100A8600061286152D208611861706178616061657
:0E0A960086152D20861133208316501408007B
:100AA4002C239B226F08013A031D7A2D48227008DB
:100AB4008316DD004822482270088316DC00482291
:100AC400482283165C085D07F200F3010318F30A59
:100AD40000307306031D702D72087006031D7A2DF5
:100AE4005D08F100F0015C08F0070318F10A7A2DA3
:020AF4000800F8
:100AF60087308316031381003D3083128100A030B6
:040B06008B00080058
:100B0A0066270430831603139F0006148614803068
:100B1A00870083128701071687127B250325013078
:100B2A00EB0047200C308316EB0047208316DE01CA
:100B3A00E523700883160313C8000130DE00E5239D
:100B4A00700883160313C6000230DE00E52370081E
:100B5A0083160313C7000330DE00E52370088316EB
:100B6A000313C9000430DE00E5237008831603135B
:100B7A00CD000530DE00E523700883160313CE008E
:100B8A004D08CB00CA017008CA070318CB0A063001
:100B9A00DE00E523700883160313CC000730DE005D
:100BAA00E523700883160313C50052258312031325
:100BBA0070088316D1007108D2007108F200F3019F
:100BCA007208CF00D5240230FB004530FC00A93062
:100BDA00FD00FD0BEE2DFC0BEE2DFB0BEE2D0000A8
:100BEA000000AC248312031370088316D100710825
:100BFA00D2007108F200F3017208D30068240230AF
:100C0A00FB004530FC00A930FD00FD0B0A2EFC0B51
:100C1A000A2EFB0B0A2E000000000130DE00013014
:100C2A00DF004F08E0007F230230DE000130DF00E2
:100C3A005308E0007F230130E6000430E700553016
:100C4A00E800DE200230E6000430E7005130E80018
:100C5A00DE200130DE000630DF005408E0007F238A
:100C6A000130DE000C30DF005708E0007F2301303E
:100C7A00DE000930DF00DF30E000AE230130DE00A5
:100C8A000F30DF00DF30E000AE230130E6000A302B
:100C9A00E7005330E800DE200130E6001030E700BC
:100CAA005730E800DE200230DE000B30DF004A0851
:100CBA00E0004B08E10007220230E6000E30E700B0
:100CCA005A30E800DE200230DE000F30DF004C0828
:100CDA00E000152445080319B22ED01CB22ECC030D
:100CEA0080304C06F0008030003A70020318832EE0
:100CFA003B30CC000130CA02031CCB0300304B0648
:100D0A00031D892E00304A06031DB02E4C08003AF6
:100D1A00031DB02E0430DE00E5237008831603138A
:100D2A00CD000530DE00E523700883160313CE00DC
:100D3A000630DE00E523700883160313CC004D0845
:100D4A00CB00CA014E08CA070318CB0A1030831217
:100D5A008706203087068316D0108312061CB82E09
:100D6A008A1500208A11003083165506031DBF2EEE
:100D7A00480854060319C52E831207148B24C72E5C
:100D8A0083120710003083165806031DCE2E46081C
:100D9A0057060319D42E831287148B24D62E831256
:100DAA00871083164F0847060319DF2E831207158B
:100DBA008B24E12E8312071183165308490603195F
:100DCA00EA2E831287158B24EC2E83128711DA2DD3
:020DDA00ED2EFC
:100ECC00223084004D3083120313F000F33083166C
:100EDC00DA000630DB00F724A030840025308312C2
:100EEC000313F00040308316DA000730DB00F724E0
:100EFC006F308400013083120313F000033083162B
:0A0F0C00DA000030DB00F7240800D3
:1010000083160313DE018A11E5238A1570088316FF
:101010000313C8000130DE008A11E5238A15700829
:1010200083160313C6000230DE008A11E5238A15F9
:10103000700883160313C7000330DE008A11E5230E
:101040008A15700883160313C9000430DE008A1164
:10105000E5238A15700883160313CD000530DE00E2
:101060008A11E5238A15700883160313CE004D08F4
:10107000CB00CA017008CA070318CB0A0630DE008D
:101080008A11E5238A15700883160313CC000130FA
:10109000EB008A1147208A158A1151248A150130E4
:1010A0008316E6000130E7004430E8008A11DE20B4
:1010B0008A150230E6000930E7002730E8008A117F
:1010C000DE208A1583120618AC2802308316DE0053
:1010D0000130DF004A08E0004B08E1008A110722D6
:1010E0008A150230E6000430E7002A30E8008A1151
:1010F000DE208A150230DE000530DF004C08E000FB
:101100008A1115248A158312861C8A288316CA0A16
:101110000319CB0A83164B08033C031D91284A0888
:10112000843C03189528CA01CB018312871F9D2890
:1011300001308316CA02031CCB030830FB009D302C
:10114000FC000530FD00FD0BA328FC0BA328FB0BC6
:10115000A32800000000622883164B08F000F1016C
:101160007008CD004A08CE000430DE007008DF00B1
:101170008A11F2238A1505300313DE004E08DF00C2
:101180008A11F2238A150D30FB00AF30FC00B63017
:10119000FD00FD0BC928FC0BC928FB0BC92800006A
:1011A00002300313E6000930E7002230E8008A111C
:1011B000DE208A1583120618292902308316DE00E4
:1011C0000130DF004A08E0004B08E1008A110722E5
:1011D0008A150230E6000430E7002530E8008A1165
:1011E000DE208A150230DE000530DF004C08E0000A
:1011F0008A1115248A158312861C00298316CC0AAD
:10120000831680303B3AF00080304C0670020318A1
:101210000A29CC018312871F0F298316CC0383165A
:1012200080304C06F0008030003A700203181A2912
:101230003B30CC000830FB009D30FC000530FD0049
:10124000FD0B2029FC0B2029FB0B202900000000AE
:10125000DA2883160630DE004C08DF008A11F223FC
:101260008A150D30FB00AF30FC00B630FD00FD0BE1
:101270003729FC0B3729FB0B372900008312031396
:101280000618922902308316DE000130DF004A087A
:10129000E0004B08E1008A1107228A150230E600BF
:1012A0000430E7002C30E8008A11DE208A15023075
:1012B000DE000530DF004C08E0008A1115248A1595
:1012C0004508013A031D6E290230E6000D30E700A3
:1012D0004030E8008A11DE208A1577290230E600C6
:1012E0000D30E7002E30E8008A11DE208A158312C7
:1012F000861C832983164508013A031D8129C501EF
:1013000083290130C5000830FB009D30FC0005300A
:10131000FD00FD0B8929FC0B8929FB0B89290000A5
:1013200000003E2983160730DE004508DF008A11E1
:10133000F2238A150D30FB00AF30FC00B630FD0003
:10134000FD0BA029FC0BA029FB0BA02900000130FC
:101350000313EB008A1147208A1501308316E6003B
:101360000130E7003230E8008A11DE208A1583124E
:101370000618F52902308316DE000130DF00480828
:10138000E0008A117F238A150230DE000430DF007E
:10139000DF30E0008A11AE238A150230E600053006
:1013A000E700A030E8008A11DE208A158312861C2F
:1013B000DB298316C80A83164808643C0318E12910
:1013C000C8018312871FE6298316C8030830FB0073
:1013D0009D30FC000530FD00FD0BEC29FC0BEC29D9
:1013E000FB0BEC2900000000B7298316DE0148083A
:1013F000DF008A11F2238A150D30FB00AF30FC00AC
:10140000B630FD00FD0B022AFC0B022AFB0B022A60
:10141000000001300313EB008A1147208A150130C8
:101420008316E6000130E700A230E8008A11DE20D2
:101430008A1583120618572A02308316DE000130FF
:10144000DF004608E0008A117F238A150230DE00A3
:101450000430DF00DF30E0008A11AE238A1502304D
:10146000E6000530E7005C30E8008A11DE208A15CE
:101470008312861C3D2A8316C60A83164608643CDE
:101480000318432AC6018312871F482A8316C603FE
:101490000830FB009D30FC000530FD00FD0B4E2A9E
:1014A000FC0B4E2AFB0B4E2A00000000192A831663
:1014B0000130DE004608DF008A11F2238A150D3064
:1014C000FB00AF30FC00B630FD00FD0B652AFC0BC5
:1014D000652AFB0B652A000001300313EB008A111B
:1014E00047208A1501308316E6000130E7005E30A0
:1014F000E8008A11DE208A1583120618B12A02300C
:101500008316DE000130DF004708E0008A117F23E8
:101510008A150230E6000430E700B030E8008A1196
:10152000DE208A158312861C972A8316C70A831623
:101530004708643C03189D2AC7018312871FA22A0B
:101540008316C7030830FB009D30FC000530FD000A
:10155000FD0BA82AFC0BA82AFB0BA82A0000000000
:101560007C2A83160230DE004708DF008A11F2234E
:101570008A150D30FB00AF30FC00B630FD00FD0BCE
:10158000BF2AFC0BBF2AFB0BBF2A0000013003134C
:10159000EB008A1147208A1501308316E6000130DE
:1015A000E700B230E8008A11DE208A15831206189F
:1015B0000B2B02308316DE000130DF004908E0000B
:1015C0008A117F238A150230E6000430E700C33019
:1015D000E8008A11DE208A158312861CF12A831600
:1015E000C90A83165308643C0318F72AC9018312F9
:1015F000871FFC2A8316C9030830FB009D30FC00BE
:101600000530FD00FD0B022BFC0B022BFB0B022B0C
:1016100000000000D62A83160330DE004908DF00F0
:101620008A11F2238A1501300313EB008A11472037
:101630008A151A30FB005E30FC006E30FD00FD0B99
:0E1640001F2BFC0B1F2BFB0B1F2B00000800A9
:020006000034C4
:060DE600533453340034C5
:040DEC003A34003461
:060DF0004D344D340034C7
:040DF6003A34003457
:040DFA003A34003453
:080DFE004F3446344634003442
:100E0600543465346D3470342034313420346C34C9
:0C0E160069346D34693474343A340034AB
:080E22004F344E34203400343B
:100E2A00543469346D34653472342034733465341F
:0A0E3A007434753470343A34003417
:040E4400253400341D
:040E480043340034FB
:040E4C002534003415
:040E500043340034F3
:020E5400003468
:040E56003A340034F6
:040E5A0043340034E9
:100E5E00483475346D346934643469347434793497
:100E6E00313420346C3469346D34693474343A342A
:020E7E0000343E
:040E800043340034C3
:100E8400543465346D3470342034323420346C344A
:0C0E940069346D34693474343A3400342D
:040EA00025340034C1
:100EA400483475346D346934643469347434793451
:100EB400323420346C3469346D34693474343A34E3
:020EC4000034F8
:040EC600253400349B
:02400E000A0F97
:020000040000FA
:10420000190019003C003C00000002000000010001
:10421000FF00FF00FF00FF00FF00FF00FF00FF00A6
:10422000FF00FF00FF00FF00FF00FF00FF00FF0096
:10423000FF00FF00FF00FF00FF00FF00FF00FF0086
:10424000FF00FF00FF00FF00FF00FF00FF00FF0076
:10425000FF00FF00FF00FF00FF00FF00FF00FF0066
:10426000FF00FF00FF00FF00FF00FF00FF00FF0056
:10427000FF00FF00FF00FF00FF00FF00FF00FF0046
:10428000FF00FF00FF00FF00FF00FF00FF00FF0036
:10429000FF00FF00FF00FF00FF00FF00FF00FF0026
:1042A000FF00FF00FF00FF00FF00FF00FF00FF0016
:1042B000FF00FF00FF00FF00FF00FF00FF00FF0006
:1042C000FF00FF00FF00FF00FF00FF00FF00FF00F6
:1042D000FF00FF00FF00FF00FF00FF00FF00FF00E6
:1042E000FF00FF00FF00FF00FF00FF00FF00FF00D6
:1042F000FF00FF00FF00FF00FF00FF00FF00FF00C6
:10430000FF00FF00FF00FF00FF00FF00FF00FF00B5
:10431000FF00FF00FF00FF00FF00FF00FF00FF00A5
:10432000FF00FF00FF00FF00FF00FF00FF00FF0095
:10433000FF00FF00FF00FF00FF00FF00FF00FF0085
:10434000FF00FF00FF00FF00FF00FF00FF00FF0075
:10435000FF00FF00FF00FF00FF00FF00FF00FF0065
:10436000FF00FF00FF00FF00FF00FF00FF00FF0055
:10437000FF00FF00FF00FF00FF00FF00FF00FF0045
:10438000FF00FF00FF00FF00FF00FF00FF00FF0035
:10439000FF00FF00FF00FF00FF00FF00FF00FF0025
:1043A000FF00FF00FF00FF00FF00FF00FF00FF0015
:1043B000FF00FF00FF00FF00FF00FF00FF00FF0005
:1043C000FF00FF00FF00FF00FF00FF00FF00FF00F5
:1043D000FF00FF00FF00FF00FF00FF00FF00FF00E5
:1043E000FF00FF00FF00FF00FF00FF00FF00FF00D5
:1043F000FF00FF00FF00FF00FF00FF00FF00FF00C5
:00000001FF

